:040600009DEF6FF00B
:08060800046ED8CF05F0E0CF2D
:1006100006F00001E9CF0CF0EACF07F0E1CF08F0D7
:10062000E2CF09F0D9CF0AF0DACF0BF0F3CF12F016
:10063000F4CF13F0FACF14F0F5CF15F0F6CF16F093
:10064000F7CF17F000C00EF001C00FF002C010F09D
:1006500003C011F09DA030EF03F09EB08DEF03F0CA
:100660009DA236EF03F09EB277EF03F0F2A83CEFC5
:1006700003F0F2B2A1EF04F09DAA42EF03F09EBA9C
:1006800034EF04F0F0AA48EF03F0F0B4A5EF04F063
:100690000EC000F00FC001F010C002F011C003F056
:1006A0000CC0E9FF07C0EAFF078E08C0E1FF09C0E0
:1006B000E2FF0AC0D9FF0BC0DAFF12C0F3FF13C07C
:1006C000F4FF14C0FAFF15C0F5FF16C0F6FF17C0FF
:1006D000F7FF045006C0E0FF05C0D8FF1000010E70
:1006E000D86F7DEF03F0010ED76F82EF03F0702B10
:1006F000712B70510A0802E1F2D7706B7151320808
:1007000002E1F1D7716B9E9248EF03F0010EB06FDA
:1007100091EF03F0010EAF6F1200800ECF6ECE6A24
:10072000F5D77451D8B47507740774530CE1755339
:100730000AE1F0DF800E736F726B78C075F077C0DE
:1007400074F09D9079819E9048EF03F00A0D426FFE
:100750006F6B6D61726B203D20254C750A0D00009A
:100760005772617020466C6167203D2025750A0D27
:1007700000004465636C696E6174696F6E203D2092
:1007800025750A0D00004669726D77617265205506
:10079000706461746520466C6167203D2025750A90
:1007A0000D004E756D626572206F66204C6F677329
:1007B000203D2025750A0D004C6F6720577261702F
:1007C00020466C6167203D2025750A0D00004C6FA6
:1007D0006720496E646578203D2025750A0D00006C
:1007E0009EAAFED7ABCF1AF0AECF01F01AA202D06C
:1007F000AB98AB881200016603D0026602D007D026
:10080000022A00C0EEFF012EFCD7022EFAD71200FA
:10081000EA6AD90EE96E006A026A640E016EEBDFC5
:1008200057EF04F0200E0401446F036A43514E0F4A
:10083000E96E010E0320EA6EEFCF44F444C401F0E8
:1008400000016AEF04F00401426B010E4125426F82
:100850004251640801E1426B42C401F00001120000
:10086000010EAA6F88EF04F00401406B036A0101D6
:10087000B3514E0FE96E010E0320EA6EEACF44F445
:10088000E9CF43F40001ACDF44C4EAFF43C4E9FF0D
:1008900001C0EFFF036A0101B3514E0FE96E010E73
:1008A0000320EA6EEF500A0834E10001B1D70401D9
:1008B000406B4051630827E3036A4051D90F016E32
:1008C000000E032201C041F403C042F4B4C143F45A
:1008D0000001A8D742C4EAFF41C4E9FF01C0EFFF0D
:1008E000B4C141F4B0DF01C0B4F1036A0401405166
:1008F000D90FE96E000E0320EA6EEF500A0801E1FD
:1009000002D0402BD6D70001D951240801E1A8D745
:100910000101B3C141F4000196DF01C0B3F19E9A19
:1009200048EF03F0696E646578203D2025752C2022
:100930002020202575200A0D0000010EBC6FA2EFBB
:1009400004F0FBD7F29248EF03F0F09448EF03F085
:100950006C6F67496E646578203D2025640D0A0040
:100960006E756D547261636B706F696E7473203D48
:1009700020254C750D0A0000737461727420646147
:10098000746574696D65203D202564202F202564E1
:10099000202F2025642C20202564203A2025642047
:1009A0003A202564202E2025640D0A00656E6420FF
:1009B00020206461746574696D65203D2025642084
:1009C0002F202564202F2025642C20202564203A08
:1009D000202564203A202564202E2025640D0A005D
:1009E0006C61746974756465203D202566206465BA
:1009F0006772656573200D0A00006C6F6E6769741D
:100A0000756465203D2025662064656772656573A1
:100A1000200D0A0068656164696E67203D202566C7
:100A20002064656772656573200D0A0073706565E3
:100A300064203D202566206B6E6F7473200D0A00C4
:100A40006461746574696D65203D202564202F20E4
:100A50002564202F2025642C20202564203A202581
:100A600064203A202564202E2025640D0A00657636
:100A7000656E74203D2025640A0D0000030EEA6EA9
:100A8000170EE96EEF500DE0060E016E006A002EA3
:100A9000FED7012EFBD77B0E006E002EFED7EF2E69
:100AA000F3D71200020E03010B6FFA0E176F00014D
:100AB000E5DF03010B2FF9D700017DEF70F0780E11
:100AC0000609CA6EFF0ECB6E9D823DEF07F09D902A
:100AD000CD9ECFCF73F0726BCD8E120003012451E7
:100AE0002603F3CF01F0F4CF00F02703F3500026E4
:100AF00025512603F3500020026E00011200800EE3
:100B0000736F726B0301236B21C322F323C325F39D
:100B100021C324F3276B3C0E266F0001DFDF02C0E8
:100B200075F001C074F01200D2DF76C021F3E7DF68
:100B3000798112008F0ECD6EF7DF3EEF07F09494AF
:100B40008B94120094948B841200F29CF29EF2BE5D
:100B5000FDD7F5DFC950AB0EC96EC730FEE3F2DF3B
:100B6000C00EF212C3EF05F0C69A949A9488949638
:100B7000220EC66E400EC76E94948B84949A8B8A14
:100B800094968B86E2D73FEF07F0AB9EAB98AC9A7A
:100B900092988998CEEF05F09D9AF7D70101B26B34
:100BA0000001799579971200F29CF29EF2BEFDD772
:100BB000958A050E006E002EFED7958C060E006EEF
:100BC000002EFED78C9A959A050E006E002EFED749
:100BD0008C9C959CC00EF2121200080E016E050E40
:100BE000006E002EFED78C9C959C060E006E002E8B
:100BF000FED703015C378C9AD8B0958AD8A0959A15
:100C0000958C83ACFED7012E01D002D00001E7D72E
:100C1000050E006E002EFED78C9C959C0000958AD8
:100C2000060E006E002EFED7060E006E002EFED7BA
:100C3000958C83ACFED7016A060E006E002EFED79F
:100C400083BA01808C9C959C8C9A959A000134EF14
:100C500006F0010E03015B6FF29CF29EF2BEFDD71F
:100C60005AC35CF30001B9D701C05BF3C00EF212A6
:100C700003015BC301F000011200010E0301566F76
:100C8000700E5A6F0001E5DF01C056F3030156C331
:100C900001F000011200010E0301136F600E146FCA
:100CA000125301E0148F14C35AF30001D2DF01C0C4
:100CB00013F3030113C301F00001B5EF06F0010EB9
:100CC0000301146F700E156F125301E0158F13A1FD
:100CD00001D0158113A301D0158315C35AF3000168
:100CE000B8DF01C014F3030114C301F00001BFEF2A
:100CF00006F0010E0301166F430E176F145301E047
:100D0000178F155301E0178717C35AF30001A1DFAE
:100D100001C016F3030116C301F000011200F29C9A
:100D2000F29EF2BEFDD7959A0000958C83ACFED75B
:100D3000050E006E002EFED700D00000958A050E2D
:100D4000006E002EFED7C00EF2121200010E03013B
:100D5000116F000129DF91DF01C011F3030111536D
:100D600007E1010E126F000196D701C011F30301D4
:100D7000115308E1010E126F136B0001A0D701C0DF
:100D800011F30301115308E1146B010E156F0001FB
:100D9000B0DF01C011F303010001C1DF030111C382
:100DA00001F00001D9EF06F0010E0301106F000100
:100DB000CDD701C010F303011053F9E1000141EF59
:100DC00007F06B8E6B886C8A42EF07F0C150C00B46
:100DD0000E09C16EC050C00B0709C06EC09EC28014
:100DE000000E016EC250C30B0110C26E2AEF07F055
:100DF0009292899212009292898203EF07F0030186
:100E0000176B0001F8D7C282C2B2FED7C4CF17F366
:100E1000EFDF030117C301F0000112008E0E006E18
:100E2000B3C301F0B2C302F0036A015209E102C088
:100E300001F0026A080E005E015202E1006A08D069
:100E4000D89001BE04D0023601360006F9D7019EC3
:100E50001200BCD7CDDFD3DF0301B36B01C0B2F307
:100E60000001DCDF03C06EF002C06DF001C06CF069
:100E700000C06BF043EF07F022D65CD675D68CDE4F
:100E800093D79FD7E6D7120003010C6BF2CF0DF377
:100E9000F29EAA6A500EA96EA69CA69EA680A85095
:100EA0000DBFF28E0C6F0CC301F00001E3EF6AF08E
:100EB00003015E5315E05C515A25016E000E5B2163
:100EC000036E01C0E9FFEA6E010E006E5D51016E16
:100ED00004E0D8900036012EFCD70050EF1215D058
:100EE0005C515A25016E000E5B21036E01C0E9FFC3
:100EF000EA6E010E006E5D51016E04E0D89000367E
:100F0000012EFCD70050FF0AEF160001A2EF07F0F8
:100F10000301586B596B5631586F583358331F0EB5
:100F200058175651070BFF0A080F596F010E5B6FD8
:100F3000B50E5A6F58C35CF359C35DF357C35EF3E4
:100F40000001B6D712000301516B526B010E4C5DCC
:100F5000526F516B4C51515D27E251514A25E96E58
:100F6000000E4B21EA6EEFCF53F350C303F04FC393
:100F700002F04EC301F04DC300F05251546F07E030
:100F8000D8900332023201320032542FF9D7000ECA
:100F900000B0010E556F53C356F3576F0001B8DF11
:100FA00003015207512BD6D7000112000301426BF7
:100FB000436B446B456B466B476B486B496B010E4B
:100FC000405DFA0F65E2060F0001F1EF08F0540EE4
:100FD0000301426F500E436F510E446F560E456F22
:100FE000590E466F580E476F550E486F51D0600E20
:100FF0000301426F5C0E436F5D0E446F620E456FDE
:10100000650E466F640E476F610E486F41D06C0EDF
:101010000301426F680E436F690E446F6E0E456F99
:10102000710E466F700E476F6D0E486F31D0360EE1
:101030000301426F290E436F280E446F340E456F33
:10104000240E466F250E476F350E486F21D03A0E9D
:101050000301426F210E436F200E446F380E456F1F
:101060001C0E466F1D0E476F390E486F11D03E0E95
:101070000301426F190E436F180E446F3C0E456F0B
:10108000140E466F150E476F3D0E486F01D00301D9
:101090004151300A000131E0010A33E0030A35E032
:1010A000010A37E0070A39E0010A3BE0030A3DE0A4
:1010B000010A3FE00F0A41E0010A43E05B0A45E014
:1010C000060A47E0030A49E0150A4BE0330A4DE0FF
:1010D000020A4FE0060A51E0030A53E00E0A55E007
:1010E000040A57E0030A59E01F0A5BE0030A5DE0C7
:1010F000060A5FE0780A61E064D07E0E0301496F62
:1011000062D0300E0301496F5ED06D0E0301496F4E
:101110005AD0790E0301496F56D0330E0301496F3F
:1011200052D05B0E0301496F4ED05F0E0301496F31
:101130004AD0700E0301496F46D07F0E0301496FFC
:1011400042D07B0E0301496F3ED01F0E0301496F51
:101150003AD03D0E0301496F36D07B0E0301496F33
:1011600032D0050E0301496F2ED0770E0301496F6F
:101170002AD04E0E0301496F26D04F0E0301496F4E
:1011800022D0470E0301496F1ED0370E0301496F6D
:101190001AD00E0E0301496F16D07E0E0301496F5F
:1011A00012D0670E0301496F0ED05B0E0301496F29
:1011B0000AD03E0E0301496F06D0010E0301496FAC
:1011C00002D00301496B030E4B6F420E4A6F070EAC
:1011D0004C6F506B4F6B4E6B49C34DF30001B3DE48
:1011E0001200E824F76AF736FD0FF66E110EF722AB
:1011F0000A00F550FA6E0800F550F96ECE0FEE0FAA
:101200000E102E104E106E1003015A6B5B6B5A6B52
:101210005A510F0868E35B6B5A515625E96E000E70
:101220005721EA6EEFCF5CF35CAF01D05B8F5A5170
:101230005625E96E000E5721EA6EEFCF5CF35CADE8
:1012400001D05B8D5A515625E96E000E5721EA6E8A
:10125000EFCF5CF35CAB01D05B8B5A515625E96E46
:10126000000E5721EA6EEFCF5CF35CA701D05B89DB
:101270005A515625E96E000E5721EA6EEFCF5CF306
:101280005CA501D05B875A515625E96E000E5721A7
:10129000EA6EEFCF5CF35CA301D05B855A510F0877
:1012A00018E0010E5A255625E96E000E5721EA6E08
:1012B000EFCF5CF35CAF01D05B83010E5A2556255E
:1012C000E96E000E5721EA6EEFCF5CF35CAD01D002
:1012D0005B815A515825E96E000E5921EA6E5BC3B5
:1012E000EFFF5A2B95D7000199EF09F0010E03018A
:1012F000586F596B57513F0B596F565301E0598F37
:1013000059C35AF30001A5DC01C058F3030158C3C7
:1013100001F00001A7EF09F00301446B456B43C3E3
:1013200057F342C356F3030E596F460E586F000130
:101330006BD70301446B44510F081BE3000134DCFD
:101340009CDC0301566B45C357F30001CFD7036AFA
:1013500003014451460FE96E030E0320EA6EEFCFFE
:101360005AF3000176DCDBDC020E03014527442B37
:10137000E2D70001C1EF09F041C343F340C342F398
:10138000CBD7CAEF09F0010E0301416FB50E406FD4
:101390000001F2D7120003013C2D16D0060E406F5B
:1013A0003DC341F3000102DE050E0301406F3EC361
:1013B00041F30001FBDD040E0301406F3FC341F325
:1013C0000001F4DD15D00301030E406F3DC341F36E
:1013D0000001ECDD020E0301406F3EC341F300014A
:1013E000E5DD010E0301406F3FC341F30001DEDD87
:1013F000CADF120003013D51020A000103E0030AA3
:1014000008E00DD0260E0301566F576B000180DDFA
:1014100006D05A0E0301566F576B000179DD12009A
:1014200003013C2D06D0020E3D6F0001E3DF05D025
:101430000301010E3D6F0001DDDFA5DF1200010E8B
:1014400003013E5DFA0F35E2060F00015CEF0AF082
:10145000410E0301566F576B00015ADD030129D07D
:101460001E0E0301566F576B000152DD030121D0A0
:10147000740E0301566F576B00014ADD030119D04A
:10148000750E0301566F576B000142DD030111D049
:10149000520E0301566F576B00013ADD030109D06C
:1014A000720E0301566F576B000132DD030101D04C
:1014B0000301000172EF0AF0E824F76AF736D30F50
:1014C000F66E140EF7220A00F550FA6E0800F55079
:1014D000F96E50146014701480149014A0143DC35D
:1014E0003EF3ADD750DF120003013C2D0BD0020EAE
:1014F0003D6F0001F4DF010E03013D6F0001EFDFDE
:1015000005D00301030E3D6F0001E9DF120022C385
:101510003CF323C33DF324C33EF325C33FF33BDF3A
:1015200022C33CF37DDF22C33CF3DEDF120021C384
:1015300022F3200E0301236F246F256F0001E7DFE4
:101540001200050E0301566F576B0001E1DC090E16
:101550000301566F576B0001DBDCE7EF0AF0010E69
:101560000301195DFC0F36E2040F0001EDEF0AF0F4
:10157000050E0301566F010E576F0001C9DC090EFD
:101580000301566F576B0001C3DC030123D0050E26
:101590000301566F576B0001BBDC090E0301566F48
:1015A000010E576F0001B4DC030114D0050E0301D6
:1015B000566F010E576F0001ABDC090E0301566F29
:1015C000010E576F0001A4DC030104D0BAD7030158
:1015D00001D00301000101EF0BF0E824F76AF736B0
:1015E000F50FF66E150EF7220A00F550FA6E080098
:1015F000F550F96E70158E15AC15CC1518C319F38E
:10160000AED7C1DE1200080E0301566F576B000102
:101610007FDC0D0E0301566F576B000179DC0C0E59
:101620000301566F576B000173DC110E0301566FF7
:10163000576B00016DDC100E0301566F576B0001F4
:1016400067DC040E0301566F576B000161DC790EF5
:101650000301566F576B00015BDC7A0E0301566F76
:10166000576B000155DC780E0301566F576B000174
:101670004FDC5FEF0CF0010E0301195DF80FD8B0DD
:1016800021D1080F000164EF0CF0080E0301566F22
:10169000010E576F00013CDC0D0E0301566F010E69
:1016A000576F000135DC0C0E0301566F010E576FAA
:1016B00000012EDC110E0301566F010E576F000161
:1016C00027DC100E0301566F576B000121DC040E5E
:1016D0000301566F576B00011BDC0301F3D0080EAA
:1016E0000301566F010E576F000112DC0D0E03014E
:1016F000566F576B00010CDC0C0E0301566F010E88
:10170000576F000105DC110E0301566F010E576F74
:10171000000188EC07F0100E0301566F010E576FA1
:10172000000188EC07F0040E0301566F576B0001AF
:1017300088EC07F00301C6D0080E0301566F010EB6
:10174000576F000188EC07F00D0E0301566F576BC1
:10175000000188EC07F00C0E0301566F576B000177
:1017600088EC07F0110E0301566F010E576F000150
:1017700088EC07F0100E0301566F576B000188ECE0
:1017800007F0040E0301566F010E576F000188EC3D
:1017900007F0030197D0790E0301566F576B0001D4
:1017A00088EC07F07A0E0301566F576B000188EC46
:1017B00007F0780E0301566F010E576F000188EC99
:1017C00007F003017FD0790E0301566F010E576FAA
:1017D000000188EC07F07A0E0301566F576B000189
:1017E00088EC07F0780E0301566F576B000188EC08
:1017F00007F0030167D0790E0301566F010E576F92
:10180000000188EC07F07A0E0301566F010E576F46
:10181000000188EC07F0780E0301566F576B00014A
:1018200088EC07F003014ED0080E0301566F010E3D
:10183000576F000188EC07F00D0E0301566F010E83
:10184000576F000188EC07F00C0E0301566F010E74
:10185000576F000188EC07F0110E0301566F010E5F
:10186000576F000188EC07F0100E0301566F010E50
:10187000576F000188EC07F0040E0301566F010E4C
:10188000576F000188EC07F0790E0301566F010EC7
:10189000576F000188EC07F07A0E0301566F010EB6
:1018A000576F000188EC07F0780E0301566F010EA8
:1018B000576F000188EC07F0030104D0A4D60301A0
:1018C00001D0030100011200E824F76AF736E30FA4
:1018D000F66E180EF7220A00F550FA6E0800F55061
:1018E000F96E8A16DE1638179617C617F6172818D7
:1018F000BC18010E0301185DFB0F37E2050F000154
:10190000B8EF0CF0010E0301196F0001B4DE040EF4
:101910000301196F0001AFDE030127D0020E03019E
:10192000196F0001A8DE050E0301196F0001A3DE87
:1019300003011BD0030E0301196F00019CDE060E8C
:101940000301196F000197DE03010FD0070E030199
:10195000196F000190DE030108D0080E0301196F12
:10196000000189DE030101D0030100010CDD12003A
:10197000E824F76AF7368B0FF66E190EF7220A0085
:10198000F550FA6E0800F550F96E04191C19341957
:101990004C195A192D0E0301566F576B000188EC34
:1019A00007F02C0E0301566F576B000188EC07F00F
:1019B0004C0E0301566F576B000188EC07F04D0E7B
:1019C0000301566F576B000188EC07F093EF0DF0A1
:1019D000010E03011D5DF90FD8B0A8D0070F00015B
:1019E00099EF0DF02D0E0301566F010E576F000198
:1019F00088EC07F02C0E0301566F576B000188EC42
:101A000007F04C0E0301566F010E576F000188EC72
:101A100007F04D0E0301566F576B000188EC07F07D
:101A2000030184D02D0E0301566F576B000188EC23
:101A300007F02C0E0301566F576B000188EC07F07E
:101A40004C0E0301566F576B000188EC07F04D0EEA
:101A50000301566F010E576F000188EC07F0030178
:101A600065D02D0E0301566F576B000188EC07F00F
:101A70002C0E0301566F010E576F000188EC07F022
:101A80004C0E0301566F010E576F000188EC07F0F2
:101A90004D0E0301566F576B000188EC07F00301F0
:101AA00045D02D0E0301566F010E576F000188ECD3
:101AB00007F02C0E0301566F576B000188EC07F0FE
:101AC0004C0E0301566F576B000188EC07F04D0E6A
:101AD0000301566F576B000188EC07F0030126D015
:101AE0002D0E0301566F010E576F000188EC07F0B1
:101AF0002C0E0301566F010E576F000188EC07F0A2
:101B00004C0E0301566F010E576F000188EC07F071
:101B10004D0E0301566F010E576F000188EC07F060
:101B2000030104D037D7030101D003010001B0EF56
:101B30000DF0E824F76AF7364D0FF66E1B0EF7220C
:101B40000A00F550FA6E0800F550F96E241AE419EF
:101B5000621AA21A2A1BE01A241B1CC31DF338D7D1
:101B600012DC1200660E0301566F576B000188EC01
:101B700007F05E0E0301566F576B000188EC07F00B
:101B800000EF0EF0010E0301355DFC0F3CE2040F87
:101B9000000106EF0EF0660E0301566F010E576F3F
:101BA000000188EC07F05E0E0301566F010E576FBF
:101BB000000188EC07F0030126D0660E0301566F82
:101BC000576B000188EC07F05E0E0301566F010EA3
:101BD000576F000188EC07F0030115D0660E030172
:101BE000566F010E576F000188EC07F05E0E03017F
:101BF000566F576B000188EC07F0030104D0B2D791
:101C0000030101D0030100011AEF0EF0E824F76A86
:101C1000F736270FF66E1C0EF7220A00F550FA6E03
:101C20000800F550F96E961BBA1BDC1BFE1B34C373
:101C300035F3A8D7C3EC09F0120003011751FC0FCC
:101C400067E2040F00018BEF0EF0760E0301566F72
:101C5000576B000188EC07F04E0E0301566F576B6F
:101C6000000188EC07F06A0E0301566F010E576FF2
:101C7000000188EC07F003014BD0760E0301566F8C
:101C8000010E576F000188EC07F04E0E0301566FEE
:101C9000576B000188EC07F06A0E0301566F010EC6
:101CA000576F000188EC07F0030132D0760E030174
:101CB000566F010E576F000188EC07F04E0E0301BE
:101CC000566F010E576F000188EC07F06A0E030192
:101CD000566F010E576F000188EC07F0030118D012
:101CE000760E0301566F576B000188EC07F04E0E1D
:101CF0000301566F576B000188EC07F06A0E030171
:101D0000566F576B000188EC07F0030101D0030107
:101D100000019FEF0EF0E824F76AF736310FF66EF8
:101D20001D0EF7220A00F550FA6E0800F550F96E04
:101D30004A1C7A1CAC1CE01C16C317F37ED7C3ECFC
:101D400009F012000301486B476B466B456B7E0E32
:101D50002B6F7D0E2C6F7C0E2D6F400E2E6F2F6B18
:101D6000010E306F020E316F060E326F0A0E336FA6
:101D70000E0E346F120E356F420E366F160E376F21
:101D80001A0E386F220E396F2A0E3A6F2E0E3B6FE5
:101D9000320E3C6F310E3D6F300E3E6F480E3F6F7E
:101DA000490E406F4A0E416F460E426F440E436F1C
:101DB000450E446F010E2A5DB80FD8B0C7D1480F49
:101DC0000001B9EF10F00301486B476B400E466FFE
:101DD000456BBCD10301486B476B600E466F456B8A
:101DE000B5D10301486B476B700E466F456BAED1A2
:101DF0000301486B476B780E466F456BA7D1030113
:101E0000486B476B7C0E466F456BA0D10301486B56
:101E1000476B7E0E466F456B99D10301486B476B4C
:101E20007F0E466F456B92D10301486B476B7F0E67
:101E3000466F800E456F8AD10301486B476B7F0E5A
:101E4000466FC00E456F82D10301486B476B7F0E12
:101E5000466FC40E456F7AD10301486B476BC00EC5
:101E6000466F456B73D10301486B010E476FC00E7F
:101E7000466F456B6BD10301486B030E476FC00E75
:101E8000466F456B63D10301486B070E476FC00E69
:101E9000466F456B5BD10301486B0F0E476FC00E59
:101EA000466F456B53D10301486B1F0E476FC00E41
:101EB000466F456B4BD10301486B3F0E476FC00E19
:101EC000466F456B43D10301486B7F0E476FC00ED1
:101ED000466F456B3BD10301486B7F0E476FC00EC9
:101EE000466F020E456F32D10301486B476B466B5C
:101EF000020E456F2BD10301486B476B466B040EF6
:101F0000456F24D10301486B476B466B060E456F46
:101F10001DD10301486B476B466B070E456F16D109
:101F20000301486B400E476F466B470E456F0ED15D
:101F30000301486B600E476F466BC70E456F06D1B5
:101F40000301486B700E476F010E466FC70E456F59
:101F5000FDD00301486B780E476F030E466FC70E26
:101F6000456FF4D00301486B800E476F466B270E18
:101F7000456FECD0010E0301486F800E476F466B32
:101F8000370E456FE3D0030E0301486F800E476F95
:101F9000466B3F0E456FDAD0030E0301486F476B67
:101FA000466B456BD3D0030E0301486F800E476F1D
:101FB000466B456BCBD0010E0301486F800E476F17
:101FC000466B020E456FC2D00301486BC00E476FCF
:101FD000466B020E456FBAD00301486B600E476F27
:101FE000466B020E456FB2D00301486B700E476F0F
:101FF000466B456BABD00301486B380E476F466BA1
:10200000456BA4D00301486B1C0E476F466B456BB4
:102010009DD00301486B0E0E476F466B456B96D003
:102020000301486B070E476F466B456B8FD003016A
:10203000486B030E476F800E466F456B87D00301D8
:10204000486B010E476FC00E466F456B7FD0030192
:10205000486B476BE00E466F456B78D00301486BC9
:10206000476B700E466F456B71D00301486B476B31
:10207000380E466F456B6AD00301486B476B1C0EE8
:10208000466F456B63D00301486B476B0E0E466F7E
:10209000456B5CD00301486B476B070E466F456B81
:1020A00055D00301486B476B030E466F800E456F9A
:1020B0004DD00301486B476B010E466FC00E456F54
:1020C00045D00301486B476B466BC40E456F3ED04D
:1020D0000301486B476B466B640E456F37D00301B5
:1020E000486B476B466B340E456F30D00301486B2D
:1020F000476B466B380E456F29D00301486B476B21
:10210000466B180E456F22D0030E0301486F4769D6
:10211000466945691BD00301486B476B466B456BAD
:1021200015D0020E0301486FD50E476F550E466F4E
:10213000680E456F0BD0010E0301486F2A0E476FE2
:10214000AA0E466F960E456F01D00301030E4B6F2A
:102150002B0E4A6F1A0E4C6F48C350F347C34FF310
:1021600046C34EF345C34DF30001A3EC07F011EF56
:1021700011F0E824F76AF7368D0FF66E210EF7227C
:102180000A00F550FA6E0800F550F96EC61DD41D10
:10219000E21DF01DFE1D0C1E1A1E281E381E481EB4
:1021A000581E661E761E861E961EA61EB61EC61ECD
:1021B000D61E121F201F301F401F521F641F741F86
:1021C000861F981FA61FB61FC81FD81FE81FF61F1F
:1021D0000420122020202E203E204E205C206A2049
:1021E000782086209420A220B220C220D020DE2099
:1021F000EC20FA204A214A214A214A214A214A2137
:102200004A2108211621222136214A214A214A2128
:102210004A214A214A21E81EF61E041F29C32AF337
:1022200091D5C3EC09F01200010E0301216F0001EA
:1022300097EC0AF0020E0301216F000197EC0AF0FF
:10224000040E0301186F0001FEEC0AF0050E0301F5
:10225000186F000179EC0CF0070E03011C6F0001F0
:102260007CDC040E0301346F0001E1DC030E03018A
:10227000166F000161DD3D0E0301296F0001CEDF05
:10228000040E03013D6F00016FEC0AF0050E03011F
:102290003D6F00016FEC0AF0060E03013D6F000177
:1022A0006FEC0AF0120003015291536BF29CF29E04
:1022B000F2BEFDD700019FEC05F0C950050EC96EB6
:1022C000C730FEE3C950C96AC730FEE3C9CF53F334
:1022D0000301529153515015505D01E15281000E9E
:1022E00052B1010E515DD8B402D00001EBD700010C
:1022F000A2EC05F0C00EF2121200020E0301506FA4
:10230000010E516F0001CFDF96EF11F0F29CF29EAB
:10231000F2BEFDD79FEC05F0C950060EC96EC7305E
:10232000FEE3A2EC05F0C00EF212E7D71200EEDFDA
:10233000F29CF29EF2BEFDD79FEC05F0C950D80E7C
:10234000C96EC730FEE348C34AF3C95048C3C9FF4A
:10235000C730FEE347C34AF3C95047C3C9FFC7307C
:10236000FEE346C34AF3C95046C3C9FFC730FEE384
:10237000A2EC05F0C00EF212120004013B6B3A6BA6
:102380003B6B3A6B3B5335E13A51030832E334512E
:102390003A253C6F35513B213D6F040E3F6F360EA1
:1023A0003E6F3A513E25016E3B513F21036E015075
:1023B000E96E03C0EAFFEFCF3EF4F250006EF29EEA
:1023C0003DC4AAFF3CC4A9FF3EC4A8FFA69CA69E8C
:1023D000A6840F01550EA76EAA0EA76EA682A6B2FE
:1023E000FED7A6940050F21204013A2BD8B43B2B2E
:1023F000C9D7000112000401356B346B4EC339F4A8
:102400004DC338F44CC337F44BC336F40001B5DF89
:1024100012004AC34EF349C34DF348C34CF347C3BC
:102420004BF3E9DF1200F250006EF29EAA6A040E2E
:10243000A96E47C3A8FFA69CA69EA6840F01550EB1
:10244000A76EAA0EA76EA682A6B2FED7A6940050CB
:10245000F212000112000301476B0001E4DF67EF95
:1024600012F004011D6B1C6B1D6B1C6B1D511B5D61
:102470000FE303E11A511C5D0BE218511C25E96EB4
:1024800019511D21EA6EEF6A1C2BD8B41D2BEED713
:1024900000011200010E0401196FDE0E186F010E0B
:1024A0001B6F1A6B0001DDDF0101DD6B0001120003
:1024B0000301496B486B476B466B000138DF030132
:1024C0004A6B496B486B476B0001A3DFC4D7E2DF5F
:1024D00011EF13F00401366B356B3451040DF350DA
:1024E000030F356F030E366FD8B0362B35C401F0AD
:1024F00036C402F0000112000401336B326B31C4A8
:1025000034F40001E7DF02C033F401C032F433C415
:1025100035F432C434F430C439F42FC438F42EC442
:1025200037F42DC436F429DF1200F250006EF29E0B
:10253000030EAA6EA96A2AC4A8FFA69CA69EA6841A
:102540000F01550EA76EAA0EA76EA682A6B2FED7E1
:10255000A6940050F2120001120029C42AF4E5DF0B
:102560001200F250006EF29E030EAA6E020EA96EC9
:102570002AC4A8FFA69CA69EA6840F01550EA76E8E
:10258000AA0EA76EA682A6B2FED7A6940050F2129B
:102590000001120029C42AF4E4DF1200F250006E98
:1025A000F29E030EAA6E010EA96E28C4A8FFA69C77
:1025B000A69EA6840F01550EA76EAA0EA76EA68230
:1025C000A6B2FED7A6940050F21200011200040138
:1025D000286B0001E3DF06EF13F00401206B206B92
:1025E000205131080BE3306B2F6B2E6B2D6B20C409
:1025F00031F4000181DF0401202BF2D7296B0001A7
:10260000ACDF0401296B0001C5DFE1D71200798B33
:102610001200010E0301506F516B000144DE1200E5
:1026200047D7DBDFF4DFF5DF12000301156B146B16
:10263000156B146B155103081BE3F250006EF29EEC
:1026400015C3AAFF14C3A9FFA86AA69CA69EA684C8
:102650000F01550EA76EAA0EA76EA682A6B2FED7D0
:10266000A6940050F2120301142BD8B4152BE2D714
:10267000000134EF14F0F250006EF29EAA6A050ECB
:10268000A96E34C3A8FFA69CA69EA6840F01550E72
:10269000A76EAA0EA76EA682A6B2FED7A694005079
:1026A000F212000112000301526B516B526B516B1D
:1026B000525335E15151030832E34B515125536FC9
:1026C0004C515221546F030E566F4D0E556F5151A0
:1026D0005525016E52515621036E0150E96E03C01B
:1026E000EAFFEFCF55F3F250006EF29E54C3AAFFFB
:1026F00053C3A9FF55C3A8FFA69CA69EA6840F019D
:10270000550EA76EAA0EA76EA682A6B2FED7A694F5
:102710000050F2120301512BD8B4522BC9D700013B
:10272000120003014C6B0A0E4B6F4AC350F349C3AE
:102730004FF348C34EF347C34DF30001B4DF12001B
:1027400003014C6B0E0E4B6F4AC350F349C34FF35A
:1027500048C34EF347C34DF30001A5DF1200030148
:102760004C6B120E4B6F23C350F322C34FF321C3A4
:102770004EF320C34DF3000196DF120003014C6BB2
:10278000160E4B6F23C350F322C34FF321C34EF3F6
:1027900020C34DF3000187DF120003014C6B1A0EBA
:1027A0004B6F23C350F322C34FF321C34EF320C317
:1027B0004DF3000178DF120003014C6B1E0E4B6FCE
:1027C00023C350F322C34FF321C34EF320C34DF371
:1027D000000169DF1200F250006EF29EAA6A220E1A
:1027E000A96E20C3A8FFA69CA69EA6840F01550E25
:1027F000A76EAA0EA76EA682A6B2FED7A694005018
:10280000F21200011200F250006EF29EAA6A230E2C
:10281000A96E20C3A8FFA69CA69EA6840F01550EF4
:10282000A76EAA0EA76EA682A6B2FED7A6940050E7
:10283000F21200011200F250006EF29EAA6A500ECF
:10284000A96E14C3A8FFA69CA69EA6840F01550ED0
:10285000A76EAA0EA76EA682A6B2FED7A6940050B7
:10286000F21200011200E1D603014E6B4D6B4C6B6E
:102870004B6B0001C0DD0301476B0001D4DD800E0E
:102880000301346F0001F7DE03014A6B496B486BAB
:10289000476B000146DF03014A6B496B486B476B8E
:1028A00000014EDF0301236B226B216B206B0001C3
:1028B00056DF0301236B226B216B206B00015EDF6F
:1028C0000301236B226B216B206B000166DF030188
:1028D000236B226B216B206B00016EDF0301206BE9
:1028E000000179DF0301206B00018DDF030E03017E
:1028F000146F0001A0DF04012A6B000116DE040141
:10290000286B00014BDE04012A6B00012ADE120055
:10291000800ED8A202D00301BB1B0301C06BC16BA8
:10292000B7C3BFF3BB51BF1BB651D8B4DFD0BE6F26
:10293000006EBA51D8B4E3D0BE5FD8B483D03EE3C2
:10294000BBC3C4F3C48FBCC3C3F3BDC3C2F3C16B69
:10295000D890C433C333C233C133BE2FF8D7BFAF0F
:1029600003D0C081E0D0C091BE91C089030EEA6E51
:10297000B90EE96EEBD0C099BFBF0AD0BEA113D08B
:10298000C433C333C233C133002AD8B4C7D00BD049
:10299000C4BF0CD0D890C137C237C337C437000684
:1029A000D8B4BCD0F5D7C08D6DD0C09DB7C3BFF330
:1029B000B7AF02D0C48FABD0C49FA9D0BAC3BEF307
:1029C000BAC300F0B651BE5FB7C3C4F3C48FB8C377
:1029D000C3F3B9C3C2F3C16BD890C433C333C2339A
:1029E000C133BE2FF8D7BFAF03D0C0839CD0C093F4
:1029F000BE91C08B030EEA6EBD0EE96EA7D0C09BE0
:102A0000BFBF0AD0BEA113D0C433C333C233C13356
:102A1000002AD8B483D00BD0C4BF0CD0D890C13713
:102A2000C237C337C4370006D8B478D0F5D7C08FC3
:102A300029D0C09FBBC3BFF3BBAF02D0C48F67D048
:102A4000C49F65D0BBC3C4F3C48FBCC3C3F3BDC3B1
:102A5000C2F3BFAF04D0C49FC08565D0C095C16B21
:102A6000BE91030EEA6EB90EE96E70D0BFBF1CD0E6
:102A7000B7C3BFF3BEA106D0C433C333C233C1331F
:102A8000002A4CE0C1AF0BD0C22B09E1C32B07E1F8
:102A9000C42B05E1C433C333C233002A3FE0C0BDB9
:102AA00084D7C0BFC6D71CD0800EC41BC4AF04D00F
:102AB0003AD0BBC3BFF30AD0B7C3BFF3C45306E1D8
:102AC000C35304E1C25302E1006A21D0C4BF08D05D
:102AD000D890C137C237C337C437002EF7D71ED0BE
:102AE000BFAF02D0C48F13D0C49F11D0BAC300F0BF
:102AF000BBC3C4F3BCC3C3F3BDC3C2F308D0B6C3E6
:102B000000F0B7C3C4F3B8C3C3F3B9C3C2F3C4C3BB
:102B100001F0C3C302F0C2C303F034D0006A016AFB
:102B2000026A036A2FD0C16BC21FC31FC41FC11F1B
:102B3000C12B05E1C22B03E1C32B01E1C42BC0B1C2
:102B400012D7C0B354D7C0B589D7B3D7EF50C22777
:102B500005E3C32B03E1C42BD8B4BE81ED52EF5083
:102B6000C32703E3C42BD8B4BE81ED52EF50EFBEB0
:102B700001D0800AC427D8B0BE81C0B9FCD6C0BB82
:102B80003ED774D7000112000301B251D8B471D0FE
:102B9000006EB651D8B46DD0002604E3810E002635
:102BA00068E204D07F0E005E64E363E0B3C3BAF36F
:102BB000B751BA1BB38FB78FB551B903F4CFBCF37C
:102BC000B451B803F4CF03F0F3CFBBF3B903F35020
:102BD000BC27F450BB23000E0322B551B803F350B9
:102BE000BC27F450BB23000E026A03220222B35119
:102BF000B903F350BB27F4500322000E0222B35155
:102C0000B803F3500326F4500222000E016A012299
:102C1000B551B703F350BB27F4500322000E022234
:102C20000122B451B703F3500326F4500222000EE0
:102C30000122B351B703F3500226F4500122002AB7
:102C400001BE05D0BB370336023601360006000E42
:102C5000BBAF0AD0032A02220122015005E1025033
:102C600003E1035001E1002ABABF018EBAAF019E11
:102C700004D0006A016A026A036A000112000301BB
:102C80007B6B7A6B796B786BD882B96BB86BB76BEF
:102C90007F0EB66F77C3BDF376C3BCF375C3BBF3CA
:102CA00074C3BAF3000134DE73C3B5F372C3B4F373
:102CB00071C3B3F370C3B2F303C0B9F302C0B8F386
:102CC00001C0B7F300C0B6F35FDF03C07FF302C0FB
:102CD0007EF301C07DF300C07CF36FC3B5F36EC318
:102CE000B4F36DC3B3F36CC3B2F377C3B9F376C374
:102CF000B8F375C3B7F374C3B6F346DFD8927FC396
:102D0000B9F37EC3B8F37DC3B7F37CC3B6F303C096
:102D1000BDF302C0BCF301C0BBF300C0BAF3F8DDE1
:102D200003C07BF302C07AF301C079F300C078F3EB
:102D300078C300F079C301F07AC302F07BC303F0DB
:102D40001200B7C3BEF30301BB51BE1BBEAF05D01B
:102D5000D894D890B7BFD8802FD0B7C3BEF3BAC32A
:102D6000BFF3B651BF5F06E0BEAF26D0D850010A10
:102D7000D86E22D0BBC3BFF3B751BF5F06E0BEAF72
:102D80001BD0D850010AD86E17D0BCC3BFF3B851BE
:102D9000BF5F06E0BEAF10D0D850010AD86E0CD08D
:102DA000BDC3BFF3B951BF5F06E0BEAF05D0D85079
:102DB000010AD86E01D0D89000011200C30E0301A1
:102DC000156F010E166F0001FFEC06F001C015F340
:102DD0000301B36B15C3B2F300010EEC07F003C09F
:102DE0001AF302C019F301C018F300C017F303C0AF
:102DF0006FF302C06EF301C06DF300C06CF36EC0E0
:102E000073F36DC072F36CC071F36BC070F3CD0ED1
:102E10000301776FCC0E766F4C0E756F7B0E746F5F
:102E200000012DDF03C06EF002C06DF001C06CF038
:102E300000C06BF00301B96BB86B430EB76F860E21
:102E4000B66F6EC0BDF36DC0BCF36CC0BBF36BC09E
:102E5000BAF3000176DF04E3010E0301166F34D0EC
:102E60000301B96BB86B390EB76F860EB66F6EC0C3
:102E7000BDF36DC0BCF36CC0BBF36BC0BAF3000113
:102E800060DF04E3020E0301166F1ED00301B96B6D
:102E9000B86B200EB76F860EB66F6EC0BDF36DC0F7
:102EA000BCF36CC0BBF36BC0BAF300014ADF05E3AF
:102EB000030E0301166F08D00001040E0301166F04
:102EC000010E00016F6F030116C301F00001120033
:102ED0000301109110910101B22D03D00301108163
:102EE0000101000E030110B1010E016E0001DEEFC1
:102EF00038F092988988640E0301176F00013EEC48
:102F000005F0AB8EAB88AC8A36EF1BF003014C5159
:102F10004A25E96E000E4B21EA6E4DC3EFFF010E0C
:102F20004C254A25E96E000E4B21EA6E4EC3EFFF99
:102F30000001120003014C514A25E96E000E4B219D
:102F4000EA6E4DC3EFFF010E4C254A25E96E000ED7
:102F50004B21EA6E4EC3EFFF020E4C254A25E96E67
:102F6000000E4B21EA6E4FC3EFFF030E4C254A259E
:102F7000E96E000E4B21EA6E50C3EFFF000169EFCE
:102F800019F003014C514A25E96E000E4B21EA6EFF
:102F90004DC3EFFF0001120082C319F481C318F47E
:102FA00004011B6B020E1A6F000131EC12F0D3EF1B
:102FB00018F00301826B040E8125826F82C301F039
:102FC0000001D6EF18F0030186C3E9FF87C3EAFFCB
:102FD00081C3EFFF010E8625E96E000E8721EA6EA0
:102FE00082C3EFFF020E8625E96E000E8721EA6E8E
:102FF00085C3EFFF030E8625E96E000E8721EA6E7A
:10300000EF6A040E8625886F000E8721896FEA6EAD
:1030100088C3E9FF84C3E2FF83C3E1FF8551016EEA
:1030200004E0E6CFEEFF012EFCD70001E9EF18F037
:103030000301866B876B886B866B8351865D0CE220
:1030400086518125E96E000E8221EA6EEF508727B6
:1030500087518827862BF1D784C3E9FF85C3EAFF10
:1030600087C3EFFF010E8425E96E000E8521EA6E0D
:1030700088C3EFFF0001F6EF18F09EA8FED7AD6EF3
:103080001200F29CF29EF2BEFDD7030184510001B2
:10309000F4DFC00EF2121200B50E0301846F0001BE
:1030A000F0DF620E0301846F0001EBDFF7EF18F031
:1030B0000301876B866B856B846BF29CF29EF2BE7C
:1030C000FDD7876B866B856B846B87531CE18653BA
:1030D0001AE1855318E18351845D15E281518425FD
:1030E000E96E82518521EA6EEFCF88F388510001A5
:1030F000C4DF010E03018427D8B0852BD8B4862BFA
:10310000D8B4872BE2D7C00EF212000100EF19F0FD
:1031100081C3E9FF82C3EAFFEFCF84F30001B1DF8F
:10312000010E03018125E96E000E8221EA6EEFCFC8
:1031300084F30001A6DF07EF19F00301826BF29C14
:10314000F29EF2BEFDD70001F0EC03F001C082F365
:10315000C00EF212030182C301F00001120003014C
:10316000816B0001EADF01C081F303018151B508E1
:10317000F8E1000108EF19F003014F6B7C6B7D6BE8
:103180007E81030E0401196F500E186F1B6B2C0EFD
:103190001A6F000131EC12F0030E0301826F7F0EF3
:1031A000816F0001F9D64CC381F303D701C07CF3D2
:1031B0004AC381F34BC382F34EC384F34DC383F3FD
:1031C0004CC385F3030E0301876F500E866F000119
:1031D000FAD6030E0301826F500E816F7CC383F316
:1031E000030E856F7F0E846F000122D755D7030E23
:1031F0000301826F500E816F7CC383F3000158D7A7
:10320000030E0301826F7F0E816F000181D7A7D764
:1032100003014F6B4F51060807E300018EDF01C029
:103220007DF303014F2BF6D7000E7EB1010E016E28
:103230000001120003011691406B3F6B426B440E7C
:10324000416F466B456B446B436B030E476F100E2B
:10325000486F496B030E0401196F170E186F1B6B33
:10326000280E1A6F000131EC12F00301152D05D064
:10327000050E476F010E496F03D01551020800E19A
:10328000030E4B6F170E4A6F4C6B40C34EF33FC398
:103290004DF300013BDE030E03014B6F170E4A6F27
:1032A000020E4C6F42C34EF341C34DF300012EDEBC
:1032B000030E03014B6F170E4A6F040E4C6F46C38B
:1032C00050F345C34FF344C34EF343C34DF30001E2
:1032D00031D6030E03014B6F170E4A6F0A0E4C6F67
:1032E00047C34DF300014DDE030E03014B6F170E74
:1032F0004A6F0B0E4C6F48C34DF3000142DE030EC4
:1033000003014B6F170E4A6F0E0E4C6F49C34DF3FE
:10331000000137DE060E03014A6F230E4B6F280EA5
:103320004C6F030E4E6F170E4D6F000125DF03012A
:10333000169101B0168116B102D00001EBD7000141
:1033400039EF1BF003011891030E0401196F190ED8
:10335000186F1B6B080E1A6F000131EC12F0F00EA3
:103360000301196F16C31AF31B6B17C31CF31D6BF4
:103370001E6B1F6B206B060E4A6F010E4B6F080E03
:103380004C6F030E4E6F190E4D6F0001F5DE0301F9
:10339000189101B0188118A1EED7000112000301A5
:1033A0001551010A000103E0030A26E048D0030199
:1033B000166B176B0001C6DF010E0301166F176B4A
:1033C0000001C0DF020E0301166F176B0001BADFA8
:1033D000030E0301166F176B0001B4DF040E030127
:1033E000166F010E176F0001ADDF050E0301166F9A
:1033F000176B0001A7DF23D00301166B176B0001C9
:10340000A1DF010E0301166F176B00019BDF020E97
:103410000301166F176F000195DF030E0301166F8E
:10342000176B00018FDF040E0301166F176B00018D
:1034300089DF050E0301166F176B000183DF3CEF78
:103440001BF0030116913C6B750E3B6F3D6B030E39
:103450003E6F406BFA0E3F6F426B416F446B640EE0
:10346000436F010E466F2C0E456F476B030E040130
:10347000196F170E186F1B6B240E1A6F000131ECB9
:1034800012F00301152D12D0040E3D6F020E3E6F97
:10349000406B320E3F6F426B416F446B420E436F85
:1034A000466BC80E456F190E476F03D015510208C1
:1034B00000E1030E4B6F170E4A6F4C6B3CC34EF38B
:1034C0003BC34DF3000122DD030E03014B6F170ECA
:1034D0004A6F020E4C6F3DC34DF3000152DD030EE7
:1034E00003014B6F170E4A6F030E4C6F3EC34DF333
:1034F000000147DD030E03014B6F170E4A6F0E0EDE
:103500004C6F40C34EF33FC34DF30001FFDC030E8D
:1035100003014B6F170E4A6F100E4C6F42C34EF3F0
:1035200041C34DF30001F2DC030E03014B6F170E94
:103530004A6F120E4C6F44C34EF343C34DF3000168
:10354000E5DC030E03014B6F170E4A6F140E4C6F30
:1035500046C34EF345C34DF30001D8DC030E03010F
:103560004B6F170E4A6F160E4C6F47C34DF3000199
:1035700008DD060E03014A6F240E4B6F4C6F030EDD
:103580004E6F170E4D6F0001F7DD0301169101B06C
:10359000168116B102D00001ECD700013FEF1BF0FD
:1035A00003011591030E1D6FE80E1C6F1F6B010EBA
:1035B0001E6F216B206F030E0401196F160E186F1A
:1035C0001B6B060E1A6F000131EC12F0010E0301A5
:1035D0001D6FF40E1C6F030E4B6F160E4A6F4C6B73
:1035E0001DC34EF31CC34DF3000190DC030E030119
:1035F0004B6F160E4A6F020E4C6F1FC34EF31EC365
:103600004DF3000183DC030E03014B6F160E4A6F6E
:10361000040E4C6F21C34EF320C34DF3000176DC42
:10362000060E03014A6F080E4B6F060E4C6F030E19
:103630004E6F160E4D6F00019FDD0301159101B015
:10364000158115B102D00001EBD7000140EF1BF04E
:10365000010E0401196F4E0E186F1B6B640E1A6F6A
:10366000000131EC12F045EF1BF043D414C315F305
:10367000E1D514C315F393D614C315F3E2D690D74E
:103680004AEC12F007EC13F0E3D779957997030130
:10369000142D05D0010E0101B26F04D00301020EFA
:1036A0000101B26FAE509D8A00011200010E0301AC
:1036B000146F0001DADFE2EF38F00301406B416B79
:1036C000426B200E436F426B416B406B3E513F118A
:1036D00003E1000E016E39D04251422B3E25E96EC6
:1036E000000E3F21EA6EEFCF43F343512F0803E270
:1036F0004351390806E24351400825E24351460848
:1037000022E343512F080CE24351390809E34039C1
:10371000446FF00E4417300E435D4425406F09D0CE
:103720004039446FF00E4417410E435D0A0F4425A3
:10373000406F4251422B3E25E96E000E3F21EA6E5A
:10374000EFCF43F3D2D740C301F00001F2EF1BF0FB
:1037500003013F6B406B010E3F6F3E513F5D14E232
:103760003F513C25E96E000E3D21EA6EEF502A08DC
:10377000D8B40AD03F513C25E96E000E3D21EA6ED7
:10378000EF50401B3F2BE9D740C301F00001FDEF94
:103790001BF003013791386B396B3A6B3B6B386B1D
:1037A000385163080EE338513525E96E000E362195
:1037B000EA6EEF502A0803E138C339F302D0382B00
:1037C000EFD7395323E0010E39253525016E000E60
:1037D0003621036E01C03CF33D6F3F6F01C03EF3E5
:1037E00000016BD701C03AF336C33DF335C33CF358
:1037F000640E03013E6F0001ABD701C03BF3030130
:103800003B513A5D02E1378101D03791000E37B16B
:10381000010E016E000114EF1CF003013491366BB0
:10382000D90E356F0001B5D70301349101B0348151
:10383000000E34B1010E016E00011200030134913B
:103840000001DC51520809E1DD514D0806E1DE516D
:10385000430803E1030134810001000E030134B188
:10386000010E016E000187EF1CF00301346B356B14
:10387000346B3451630816E3036A3451D90FE96E8F
:10388000000E0320EA6EEF502C080AE1036A35515E
:103890003D0FE96E010E0320EA6E34C3EFFF352BB6
:1038A000342BE7D700011200200E03015F6F036A7B
:1038B0005D513D0FE96E010E0320EA6E5E51EF246B
:1038C000036AD90FE96E000E0320EA6EEFCF5FF3B3
:1038D0005FC301F00001120003013791200E386F21
:1038E000010E5D6F5E6F0001DFDF01C038F3030181
:1038F00037913851410801E13781000E37B1010E8F
:10390000016E0001120089DF01520DE097D70152CC
:1039100008E0ABDFE1DF015202E0798501D0799563
:1039200001D0799501D079951200000E79B5010E7C
:10393000016E120003015E915F6B5E915D512F0875
:1039400004E25D51390801E35E815EA103D0300ECF
:103950005D5D5F6F5FC301F00001BEEF1CF0200EE4
:1039600003015B6F5C6B59C35DF35AC35EF30001E7
:103970009BDF01C05BF35BC35DF3DCD701C05CF38D
:1039800003015CC301F00001120003013E6B3DC363
:1039900059F33CC35AF30001E2DF01500A0DF3CFA3
:1039A0003FF30301010E3C25406F3DC359F35A6FAD
:1039B0000001D5DF015003013F253E6F3EC301F0FA
:1039C0000001120003013B6B3AC33CF3080E3D6F4C
:1039D0000001DBDF01C03BF303013BC301F0000149
:1039E00012000301396B050E3A6F0001EBDF01C0D5
:1039F00039F3030139C301F00001C9EF20F00301DD
:103A0000396B030E3A6F0001DDDF01C039F30301AA
:103A100039C301F00001DBEF20F00301396B010E27
:103A20003A6F0001CFDF01C039F3030139C301F060
:103A30000001EDEF20F003013B6B3AC33CF33D6B1B
:103A40000001A3DF01C03BF303013BC301F0000110
:103A500012000301396B010E3A6F0001ECDF01C067
:103A600039F3030139C301F00001FFEF20F0030136
:103A7000396B030E3A6F0001DEDF01C039F3030139
:103A800039C301F0000111EF21F00301396B050E7C
:103A90003A6F0001D0DF01C039F3030139C301F0EF
:103AA000000123EF21F00301396B080E3A6F00018A
:103AB000C2DF01C039F3030139C301F0000135EF62
:103AC00021F00301866B876B010E886FDA6AD96A71
:103AD000030E8B6F7E0E8A6F030EEA6E820EE96E06
:103AE0008BC3E2FF8AC3E1FF88C389F3D890E55016
:103AF000EE02F3508623F4508723892FF7D786C32D
:103B0000DEFF87C386F3876BD8B0872B8A2BD8B4A8
:103B10008B2B882B88510508DFE100011200B60EBF
:103B2000006E036A026A016A030159515A115B115E
:103B30005C1102E1006A0DD0D89001BE09D059375E
:103B40005A375B375C37033602360136002EF4D71E
:103B5000019E000177EF1EF003014B6B4A6B496B2E
:103B6000486B4F6B4E6B4D6B4C6B506B516B526B8C
:103B7000536B546B586B576B566B556B036A4551BF
:103B80003D0FE96E010E0320EA6EEFCF50F347516F
:103B90004625536F516B4751515D13E251514625F4
:103BA000526F52515025036AD90FE96E000E03205F
:103BB000EA6EEF502E0803E152C353F302D0512BAB
:103BC000EAD7516B4751515DD8B087D05151462546
:103BD000526F5251535D050FF60F54E20A0F000168
:103BE0009CEF1EF0050E0301586FF50E576FE10EA6
:103BF000566F556B47D00301586B980E576F960E52
:103C0000566F800E556F3ED00301586B0F0E576FE5
:103C1000420E566F400E556F35D00301586B010EA2
:103C2000576F860E566FA00E556F2CD00301586B40
:103C3000576B566B556B26D00301586B576B270E8D
:103C4000566F100E556F1ED00301586B576B030E45
:103C5000566FE80E556F16D00301586B576B566BB5
:103C6000640E556F0FD00301586B576B566B0A0EDD
:103C7000556F08D00301586B576B566B010E556F8B
:103C800001D0030145C359F352C35AF3000167DE63
:103C900001C054F303015C6B5B6B5A6B54C359F363
:103CA0005CC381F35BC380F35AC37FF354C37EF3D9
:103CB00058C385F357C384F356C383F355C382F3C4
:103CC0000001FFDE005003014C2701504D2302503C
:103CD0004E2303504F23512B75D74FC35CF34EC374
:103CE0005BF34DC35AF34CC359F3000118D703C01B
:103CF000B5F302C0B4F301C0B3F300C0B2F3AC0E2D
:103D00000301B96FC50EB86F270EB76F6E0EB66F91
:103D10000001C4EC15F003C04BF302C04AF301C02C
:103D200049F300C048F348C300F049C301F04AC357
:103D300002F04BC303F01200E824F76AF736530F82
:103D4000F66E3D0EF7220A00F550FA6E0800F550A7
:103D5000F96E743C663C583C483C383C2C3C1A3C60
:103D6000083CF63BE43B0301416B406B3F6B3E6B11
:103D7000426B010E3D25036A3D0FE96E010E0320E3
:103D8000EA6EEFCF43F3036A3D513D0FE96E010E3A
:103D90000320EA6EEF50435DFF0F426F3DC345F3D2
:103DA000010E466F42C347F30001D6DE03C041F364
:103DB00002C040F301C03FF300C03EF33EC300F039
:103DC0003FC301F040C302F041C303F012000301FE
:103DD0003C6B3B6B3A6B396B060E3D6F0001C3DFEA
:103DE00003C03CF302C03BF301C03AF300C039F317
:103DF00039C300F03AC301F03BC302F03CC303F007
:103E000047EF21F003013C6B3B6B3A6B396B070EBC
:103E10003D6F0001A8DF03C03CF302C03BF301C0CB
:103E20003AF300C039F339C300F03AC301F03BC3A1
:103E300002F03CC303F05FEF21F00301B651D8B4A8
:103E4000A5D0C26FBA51D8B4A1D0C25F05E37F0E2E
:103E5000C227D8B09BD006D0810EC25FD8A096D022
:103E6000D8B494D0C2C300F0016A026A036AC16B7D
:103E7000B7C3C0F3C08FB8C3BFF3B9C3BEF3190E45
:103E8000C26FBD51BE5F0DE2010EBF5F0AE2C05FAF
:103E900008E2C15F06E2C12BC02BBF2BBD51BE277C
:103EA00028D0BC51BF5F12E2010EC05F0FE2C15FBC
:103EB0000DE2C12BC02BBC51BF27BD51BE2719E35A
:103EC000BF2B17E1C02B15E1C12B13D0BB518009CB
:103ED000C05F0EE2010EC15F0BE2C12BBB51800936
:103EE000C027BC51BF27E9E3C02BE7E1C12BE5D7D1
:103EF0000380C22F01D00BD0D890BE37BF37C03758
:103F0000C137D890033602360136C337BAD7C3A1BA
:103F100006D0D890013202320332C33302D00006F9
:103F200035E0C3BF1ED0D890BE37BF37C037C137CA
:103F3000BD51BE5F07E2010EBF5F04E2C05F02E257
:103F4000C15F1AE3BC51BF5F05E2010EC05F02E230
:103F5000C15F12E3BB518009C05F03E2010EC15F84
:103F60000BE3032A09E1022A07E1012A05E1002AFD
:103F70000DE0013202320332B7C3C2F3BB51C21BA0
:103F8000C2AF02D0018E06D0019E04D0006A016A41
:103F9000026A036A0001120003013C6B3B6B3A6B3F
:103FA000396B406B3F6B3E6B3D6B446B436B426BBD
:103FB000416B020E456F010E466F020E476F000106
:103FC000CBDD03C040F302C03FF301C03EF300C0AD
:103FD0003DF3020E0301456F030E466F080E476F57
:103FE0000001BADD03C044F302C043F301C042F351
:103FF00000C041F344C3B9F343C3B8F342C3B7F3BA
:1040000041C3B6F30301BD6BBC6B700EBB6F840E76
:10401000BA6F000112DFD89240C3B9F33FC3B8F3BF
:104020003EC3B7F33DC3B6F303C0BDF302C0BCF358
:1040300001C0BBF300C0BAF388EC14F003C03CF33A
:1040400002C03BF301C03AF300C039F3030E030191
:104050005D6F010E5E6F000127DC01504E0801E12B
:1040600005D003013A51800A3A6F000139C300F0CC
:104070003AC301F03BC302F03CC303F077EF21F0F9
:1040800003013C6B3B6B3A6B396B406B3F6B3E6B98
:104090003D6B446B436B426B416B040E456F010EED
:1040A000466F030E476F000157DD03C040F302C0A7
:1040B0003FF301C03EF300C03DF3040E0301456F22
:1040C000466F080E476F000147DD03C044F302C08E
:1040D00043F301C042F300C041F344C3B9F343C307
:1040E000B8F342C3B7F341C3B6F30301BD6BBC6B76
:1040F000700EBB6F840EBA6F00019FDED89240C372
:10410000B9F33FC3B8F33EC3B7F33DC3B6F303C03F
:10411000BDF302C0BCF301C0BBF300C0BAF388EC2E
:1041200014F003C03CF302C03BF301C03AF300C0FB
:1041300039F3050E03015D6F010E5E6F000154EC53
:104140001CF00150450801E105D003013A51800AF5
:104150003A6F000139C300F03AC301F03BC302F0EB
:104160003CC303F08FEF21F00301369100016CECAA
:104170001CF00301369101B0368136A1DDD034C385
:1041800001F035C303F034C337F335C338F300010E
:1041900028D438C3EAFF37C3E9FF01C0EFFF010E9F
:1041A00003013425016E000E3521036E01C037F383
:1041B000386F000124D438C3EAFF37C3E9FF01C0D8
:1041C000EFFF020E03013425016E000E3521036E50
:1041D00001C037F3386F000120D438C3EAFF37C37A
:1041E000E9FF01C0EFFF030E03013425016E000E4D
:1041F0003521036E01C037F3386F00012AD438C36C
:10420000EAFF37C3E9FF01C0EFFF040E03013425C5
:10421000016E000E3521036E01C037F3386F0001C7
:1042200026D438C3EAFF37C3E9FF01C0EFFF050E0C
:1042300003013425016E000E3521036E01C037F3F2
:10424000386F000122D438C3EAFF37C3E9FF01C049
:10425000EFFF060E03013425016E000E3521036EBB
:1042600001C037F3386F00011ED438C3EAFF37C3EB
:10427000E9FF01C0EFFF0F0E03013425016E000EB0
:104280003521036E01C037F3386F0001A0D538C364
:10429000EAFF37C3E9FF00C0EFFF01C0ECFF02C037
:1042A000ECFF03C0ECFF130E03013425016E000E7A
:1042B0003521036E01C037F3386F0001A3D538C331
:1042C000EAFF37C3E9FF00C0EFFF01C0ECFF02C007
:1042D000ECFF03C0ECFF070E03013425016E000E56
:1042E0003521036E01C037F3386F000155D638C34E
:1042F000EAFF37C3E9FF00C0EFFF01C0ECFF02C0D7
:10430000ECFF03C0ECFF0B0E03013425016E000E21
:104310003521036E01C037F3386F0001B1D638C3C1
:10432000EAFF37C3E9FF00C0EFFF01C0ECFF02C0A6
:10433000ECFF03C0ECFF0301000119EF38F00301AB
:1043400038913891060E3625E96E000E3721EA6E57
:10435000EF5201E13881000E38B1010E016E00010B
:1043600078EF26F00301416B816B806B7F6B40C35C
:104370007EF3856B846B836B200E826F000161EC92
:104380001DF000C041F3DE0E03014125426F010E16
:10439000436FD8B0432B43C3EAFF42C3E9FF3FC397
:1043A000E2FF3EC3E1FF200E016EE6CFEEFF012EDD
:1043B000FCD7000112EF26F004012F6B2E6B336B3C
:1043C000326B316B306B2F6B2E6B2F5329E12E51DB
:1043D000030826E3040E356F300E346F2E5134255A
:1043E000016E2F513521036E0150E96E03C0EAFFC3
:1043F0002C512E25366F2D512F21376FF2CF38F4E7
:10440000F29E37C4AAFF36C4A9FFA69CA69EA6802A
:10441000A85038BFF28EEF6E2E2BD8B42F2BD5D7E5
:1044200030C400F031C401F032C402F033C403F0F0
:10443000000112000301896B886B876B866B040196
:104440002D6B2C6B0001B8DF03C089F302C088F329
:1044500001C087F300C086F386C300F087C301F074
:1044600088C302F089C303F03DEF22F00301856B9E
:10447000846B836B826B0001DDD703C085F302C0C0
:1044800084F301C083F300C082F382C300F083C3CE
:1044900001F084C302F085C303F0120003014F6BE7
:1044A0004E6B4D6B4C6B000186EC11F0F29CF29E52
:1044B000F2BEFDD79FEC05F0C950020EC96EC730A1
:1044C000FEE344C350F3C95044C3C9FFC730FEE301
:1044D00043C350F3C95043C3C9FFC730FEE342C3CF
:1044E00050F3C95042C3C9FFC730FEE303014F6B0D
:1044F0004E6B4D6B4C6B4F514B5D22E30BE14E51BC
:104500004A5D1EE307E14D51495D1AE303E148515D
:104510004C5D16E246514C25E96E47514D21EA6E3D
:10452000EFCF50F3C95050C3C9FFC730FEE3010EAF
:104530004C27D8B04D2BD8B44E2BD8B44F2BDBD74B
:104540000001A2EC05F0C00EF212120041C345F3C7
:1045500040C344F33FC343F33EC342F3010E0301A0
:10456000476FDE0E466F4B6B4A6B010E496F486B0F
:10457000000194DF33EF26F0000E79BB010E016ECF
:104580009FEF23F004012E6BF2CF2FF4F29E030E67
:10459000AA6E020EA96EA69CA69EA680A8502FBF4A
:1045A000F28E2E6F2EC401F00001DBEF22F0040129
:1045B0002D6B0001E7D701C02DF404012DC401F0DB
:1045C0000001120004012C6B0001F1DF01C02CF48A
:1045D0002BC430F42AC42FF429C42EF428C42DF49B
:1045E0002CC431F47CEC12F097EF23F004012C5131
:1045F000016A2B5D03E22BC400F00CD0006A080EA8
:104600002D6F2B3700362C51005CD8B0006E013670
:104610002D2FF7D7000112000401286B0001C7DF1E
:1046200001C028F4010E040128252A6F2B6F320ED9
:104630002C6F0001DBDF00C028F428C429F4CAEC89
:1046400012F098EF23F004012A6BF2CF2BF4F29EC4
:10465000030EAA6EA96AA69CA69EA680A8502BBF90
:10466000F28E2A6F2AC401F000013BEF23F004010F
:10467000296B0001E8D701C029F4040129C401F025
:10468000000112000401286B0001F1DF01C028F4D1
:1046900004012851320807E0282B28C429F400011E
:1046A000ADEC12F00401000199EF23F00401296B35
:1046B000F2CF2AF4F29E030EAA6E010EA96EA69CFA
:1046C000A69EA680A8502ABFF28E296F29C401F0A9
:1046D000000170EF23F00401289128910001E6D732
:1046E000012C03D0040128810001000E040128B12F
:1046F000010E016E00011200010E0401286F00017D
:10470000CEEC12F08CEF23F0E6DF015205E1AFDFD3
:104710000150320801E1F0D79AEF23F027C42BF4BF
:1047200026C42AF425C429F424C428F44BD774D70A
:10473000A9D7EAD71200799BABEF23F01DD701521E
:104740000AE041C327F440C326F43FC325F43EC327
:1047500024F4E4DFF0D73CEF26F004012B6B2A6B46
:10476000296B286B245120252C6F255121212D6F79
:10477000265122212E6F275123212CC428F42DC429
:1047800029F42E511F0B2A6F2B6B28C400F029C46B
:1047900001F02AC402F02BC403F00001120003014F
:1047A0004291466B456B446B436B41C323F440C35A
:1047B00022F43FC321F43EC320F40401276B266B8F
:1047C000010E256F246B0001C8DF03C046F302C051
:1047D00045F301C044F300C043F30301429143C3D6
:1047E00047F344C348F3496B4A6B475307E14853C7
:1047F00005E1495303E14A5301E14281000E42B110
:10480000010E016E000145EF26F009EC13F048EFB0
:1048100026F00301456B446B436B426B41C323F4A9
:1048200040C322F43FC321F43EC320F40401276BAC
:10483000266B010E256F246B00018FDF03C045F34B
:1048400002C044F301C043F300C042F345C349F33F
:1048500044C348F343C347F342C346F397EC11F014
:1048600051EF26F00401206B000135DF015204E115
:104870000401206B05D000019ADE01C020F4040180
:1048800020C401F0000112000401276B266B2B6B82
:104890002A6B296B286B25C434F400016AEC12F0F2
:1048A00002C027F401C026F427C42DF426C42CF43A
:1048B00083DD03C02BF402C02AF401C029F400C038
:1048C00028F428C400F029C401F02AC402F02BC443
:1048D00003F074EF24F00401246B236B226B216B33
:1048E00020C425F40001D0D703C024F402C023F46F
:1048F00001C022F400C021F421C400F022C401F060
:1049000023C402F024C403F0120004012F6B2DC451
:104910002FF42FC401F0000112000401286B296B51
:104920002A9123C42EF422C42DF421C42CF420C4D3
:104930002BF40001EADF01C028F427C42EF426C4BA
:104940002DF425C42CF424C42BF4DFDF01C029F49A
:1049500004012A912951285D01E12A81000E2AB122
:10496000010E016E000112000401156B146B136B34
:10497000126B196B186B176B166B1A6B1B6B1C6B1E
:104980001D6B1E6B1F6B00016DDF01C01CF46FDE21
:1049900001C01DF41CC420F49EDF03C015F402C046
:1049A00014F401C013F400C012F449C323F448C343
:1049B00022F447C321F446C320F40401276B010EFF
:1049C000266F256B246B0001C8DE03C019F402C0FA
:1049D00018F401C017F400C016F449C323F448C307
:1049E00022F447C321F446C320F415C427F414C4A9
:1049F00026F413C425F412C424F48FDF015214E00A
:104A000004011E51040DF350036A4A0FE96E030EB0
:104A10000320EA6E16C4EFFF17C4ECFF18C4ECFFC6
:104A200019C4ECFF1E2B000104011A6B1D511A5D05
:104A30004EE21A511C25216F2B6F320E2C6F000194
:104A4000D5DD00C01BF41BC420F445DF03C015F402
:104A500002C014F401C013F400C012F449C323F4DB
:104A600048C322F447C321F446C320F415C427F4F5
:104A700014C426F413C425F412C424F44EDF0152E6
:104A800023E104011651125D0CE11751135D09E198
:104A90001851145D06E11951155DD8A402D000012A
:104AA00013D01E51040DF350036A4A0FE96E030E32
:104AB0000320EA6E12C4EFFF13C4ECFF14C4ECFF32
:104AC00015C4ECFF1E2B000104011A2BAFD7000107
:104AD000EDEC12F01EC41FF404011E6B1F511E5D8D
:104AE00016E21E51040DF350036A4A0FE96E030EDD
:104AF0000320EA6EEFCF24F4ECCF25F4ECCF26F4BC
:104B0000ECCF27F400010ADE04011E2BE7D70001D9
:104B1000B0EF25F00301456B446B436B426B41C31F
:104B200023F440C322F43FC321F43EC320F4040124
:104B3000276B266B010E256F246B00010EDE03C070
:104B400045F302C044F301C043F300C042F345C340
:104B500049F344C348F343C347F342C346F304D77E
:104B60005AEF26F0010E0301476F000113EC12F01B
:104B7000F2EF25F003014291466B456B446B436BAA
:104B8000000174DC03C046F302C045F301C044F3E6
:104B900000C043F346C323F445C322F444C321F4C5
:104BA00043C320F441C327F440C326F43FC325F494
:104BB0003EC324F4D2DD03C046F302C045F301C076
:104BC00044F300C043F303014291435307E14453CC
:104BD00005E1455303E1465301E1428142A103D07F
:104BE0000001C0D7030146C34AF345C349F344C398
:104BF00048F343C347F3000109EC12F064EF26F0D9
:104C000003013891396B3D6B3C6B3B6B3A6BDDC1FB
:104C100039F337C33FF336C33EF339C340F30001E2
:104C2000B2EF21F00101DD2B030138910101DD51CB
:104C3000080803E1030138810101030138A145D0CF
:104C4000000114DC03C03DF302C03CF301C03BF3A0
:104C500000C03AF33DC341F33CC340F33BC33FF3D1
:104C60003AC33EF373D43DC341F33CC340F33BC36B
:104C70003FF33AC33EF362D53DC341F33CC340F337
:104C80003BC33FF33AC33EF38AD5015213E0BDD58F
:104C90003DC341F33CC340F33BC33FF33AC33EF350
:104CA000B8D53DC341F33CC340F33BC33FF33AC3E4
:104CB0003EF330D70101DD6B0301416B406B010E08
:104CC0003F6F3E6B000156D7030100011200020145
:104CD000DE2BDE51040803E10001798D02010001A1
:104CE00079AD11D035C337F334C336F39FEF21F0DC
:104CF000015209E035C337F334C336F381DF0201D3
:104D0000DE6B0001799D21EF38F003014B914F6B71
:104D10004E6B4D6B4C6B4AC3B9F349C3B8F348C3F0
:104D2000B7F347C3B6F3BD6BBC6B200EBB6F820EEF
:104D3000BA6F0001A1EC16F004E303014B8132D0FD
:104D4000000103014F6B4E6B200E4D6F830E4C6FB5
:104D5000D89246C3B9F345C3B8F344C3B7F343C3CA
:104D6000B6F34FC3BDF34EC3BCF34DC3BBF34CC34B
:104D7000BAF3000188EC14F04AC3B9F349C3B8F39D
:104D800048C3B7F347C3B6F303C0BDF302C0BCF3D7
:104D900001C0BBF300C0BAF3A1EC16F003014B91C4
:104DA000D8B04B81000E4BB1010E016E00017BEFBC
:104DB00028F003014C6BD8904B354C6F4CC301F07D
:104DC000000112000301516B506B4F6B4E6B556B22
:104DD000546B536B526B566B576B130E576F566B6E
:104DE0004D51565D37E25751040DF350036A1B0FC6
:104DF000E96E000E0320EA6EEFCFBAF3ECCF01F0BC
:104E0000ECCF02F0ECCF03F0EACF59F3E9CF58F33F
:104E1000D89251C3B9F350C3B8F34FC3B7F34EC3DD
:104E2000B6F303C0BDF302C0BCF301C0BBF3000185
:104E300088EC14F059C3EAFF58C3E9FF03C051F3EB
:104E400002C050F301C04FF300C04EF303015707F7
:104E5000562BC6D7B36B4DC3B2F300010EEC07F06F
:104E600051C3B9F350C3B8F34FC3B7F34EC3B6F34E
:104E700003C0BDF302C0BCF301C0BBF300C0BAF372
:104E80001DEC1FF003C055F302C054F301C053F3EF
:104E900000C052F352C300F053C301F054C302F0F8
:104EA00055C303F012000301496B4A6BEA6A1B0EFB
:104EB000E96EE26A1F0EE16E4C0E016EE6CFEEFF68
:104EC000012EFCD746C36AF045C369F044C368F0BD
:104ED00043C367F0010E4B6F00016BDF01C049F364
:104EE000040E03014725016E000E4821036E01C028
:104EF0004BF34C6F49C34DF3000164DF4CC3EAFF31
:104F00004BC3E9FF00C0EFFF01C0ECFF02C0ECFFA4
:104F100003C0ECFF0A0E03014B6F00014ADF01C022
:104F20004AF347C301F048C303F047C34BF348C3F8
:104F30004CF34AC34DF3000145DF4CC3EAFF4BC3BA
:104F4000E9FF00C0EFFF01C0ECFF02C0ECFF03C0AF
:104F5000ECFF96EF28F00301676B666B6B6B6A6B77
:104F6000696B686B676B666B675329E16651030871
:104F700026E3030E6D6F680E6C6F66516C25016E33
:104F800067516D21036E0150E96E03C0EAFF645161
:104F900066256E6F655167216F6FF2CF70F3F29ED9
:104FA0006FC3AAFF6EC3A9FFA69CA69EA680A850A9
:104FB00070BFF28EEF6E662BD8B4672BD5D768C35F
:104FC00000F069C301F06AC302F06BC303F0000193
:104FD000120003014A6B496B486B476B656B0A0E05
:104FE000646F0001B8DF03C04AF302C049F301C097
:104FF00048F300C047F347C300F048C301F049C37A
:1050000002F04AC303F00CEF28F00301466B456B36
:10501000446B436B0001DDD703C046F302C045F388
:1050200001C044F300C043F343C300F044C301F0A4
:1050300045C302F046C303F0120046C34AF345C31A
:1050400049F344C348F343C347F391EC13F0120010
:1050500003014A6B496B486B476B656B0E0E646FBF
:10506000000179DF03C04AF302C049F301C048F3ED
:1050700000C047F347C300F048C301F049C302F042
:105080004AC303F04BEF28F00301466B456B446BBA
:10509000436B0001DDD703C046F302C045F301C0F6
:1050A00044F300C043F343C300F044C301F045C3DD
:1050B00002F046C303F0120046C34AF345C349F366
:1050C00044C348F343C347F3A0EC13F012000301B9
:1050D00042919EC046F39DC045F39CC044F39BC0E3
:1050E00043F341C34AF340C349F33FC348F33EC3CC
:1050F00047F300010AD60301429101B0428142A167
:1051000008D041C39EF040C39DF03FC39CF03EC316
:105110009BF09EC046F39DC045F39CC044F39BC0EA
:1051200043F3486B8E0E476F0001BDD66EDF03C0A0
:1051300046F302C045F301C044F300C043F303C08B
:10514000B9F302C0B8F301C0B7F300C0B6F395C01D
:10515000BDF394C0BCF393C0BBF392C0BAF3A1EC0F
:1051600016F009E395C046F394C045F393C044F3A9
:1051700092C043F362DF88DF03C046F302C045F309
:1051800001C044F300C043F303C0B9F302C0B8F355
:1051900001C0B7F300C0B6F391C0BDF390C0BCF33B
:1051A0008FC0BBF38EC0BAF3A1EC16F009E391C037
:1051B00046F390C045F38FC044F38EC043F37CDFC9
:1051C0009BC000F09CC001F09DC002F09EC003F0A7
:1051D00045EF37F00301876B866B856B846B83C368
:1051E000B5F382C3B4F381C3B3F380C3B2F3350E16
:1051F000B96FFA0EB86F0E0EB76F790EB66F000169
:10520000C4EC15F003C087F302C086F301C085F338
:1052100000C084F384C300F085C301F086C302F0AC
:1052200087C303F012008E0E006E0301AE51005EC4
:10523000AFC302F0B0C301F0028E005209E0D89073
:10524000025202E1015204E002320132002EF7D78D
:10525000AFAF05D0011E021E012AD8B4022A0001F8
:1052600012000301976B966B956B7F0E946F7E0E09
:105270009E6F800E9F6FA06BA16B7A0EA26F2A0E9D
:10528000A36FAA0EA46FA30EA56F750EA66FB60E20
:10529000A76F090EA86F9C0EA96F6F0EAA6F4F0E15
:1052A000AB6FB40EAC6F0B0EAD6F8BC3B9F38AC38B
:1052B000B8F389C3B7F388C3B6F3BD6BBC6BBB6BE4
:1052C000BA6B0001A1EC16F005E303018951800AD5
:1052D000896F00018BC3B9F38AC3B8F389C3B7F3ED
:1052E00088C3B6F3DB0E0301BD6F0F0EBC6F490E12
:1052F000BB6F7F0EBA6F00011DEC1FF003C0B1F34E
:1053000002C0B0F301C0AFF300C0AEF38CDF01C048
:1053100098F38BC3B9F38AC3B8F389C3B7F388C3CF
:10532000B6F3DB0E0301BD6F0F0EBC6F490EBB6FF2
:105330007F0EBA6F00011DEC1FF003C0B1F302C075
:10534000B0F301C0AFF300C0AEF30301B36B98C379
:10535000B2F300010EEC07F0D882B1C3B9F3B0C3C9
:10536000B8F3AFC3B7F3AEC3B6F303C0BDF302C027
:10537000BCF301C0BBF300C0BAF388EC14F003C067
:105380009DF302C09CF301C09BF300C09AF3030E8F
:1053900003019817985303E0985102081DE19DC33B
:1053A000B5F39CC3B4F39BC3B3F39AC3B2F3DB0E60
:1053B000B96F0F0EB86F490EB76F7F0EB66F000151
:1053C000C4EC15F003C093F302C092F301C091F353
:1053D00000C090F36FD00301982D37D0D882B96BFD
:1053E000B86BB76B7F0EB66F9DC3BDF39CC3BCF3A8
:1053F0009BC3BBF39AC3BAF3000188EC14F003C05B
:10540000B1F302C0B0F301C0AFF300C0AEF303C00C
:10541000B5F302C0B4F301C0B3F300C0B2F3DB0EC6
:105420000301B96F0F0EB86F490EB76F7F0EB66FDD
:105430000001C4EC15F003C093F302C092F301C065
:1054400091F300C090F336D00301D8829DC3B9F325
:105450009CC3B8F39BC3B7F39AC3B6F3BD6BBC6BE5
:10546000BB6B7F0EBA6F000188EC14F003C0B1F380
:1054700002C0B0F301C0AFF300C0AEF303C0B5F398
:1054800002C0B4F301C0B3F300C0B2F3DB0E0301FA
:10549000B96F0F0EB86F490EB76F7F0EB66F000170
:1054A000C4EC15F003C093F302C092F301C091F372
:1054B00000C090F303018F6B8E6B8D6B7F0E8C6F32
:1054C00093C3B5F392C3B4F391C3B3F390C3B2F3F0
:1054D00093C3B9F392C3B8F391C3B7F390C3B6F3D0
:1054E0000001C4EC15F003C093F302C092F301C0B5
:1054F00091F300C090F30301996B995103085EE3A7
:1055000097C3B5F396C3B4F395C3B3F394C3B2F39F
:1055100093C3B9F392C3B8F391C3B7F390C3B6F38F
:105520000001C4EC15F003C097F302C096F301C06C
:1055300095F300C094F303019951040DF350036AED
:105540009E0FE96E030E0320EA6EEFCFB2F3ECCFAD
:10555000B3F3ECCFB4F3ECCFB5F397C3B9F396C381
:10556000B8F395C3B7F394C3B6F30001C4EC15F0D8
:10557000EACFAFF3E9CFAEF3D8928FC3B9F38EC3BE
:10558000B8F38DC3B7F38CC3B6F303C0BDF302C049
:10559000BCF301C0BBF300C0BAF388EC14F0AFC396
:1055A000EAFFAEC3E9FF03C08FF302C08EF301C070
:1055B0008DF300C08CF30301992B9FD798510208FB
:1055C00002E0982D03D08D51800A8D6F8CC300F0BE
:1055D0008DC301F08EC302F08FC303F000011200EF
:1055E00003017B6B7A6B796B786B7F6B7E6B7D6B6A
:1055F0007C6B77C383F376C382F375C381F374C383
:1056000080F30001E7DD03C07BF302C07AF301C041
:1056100079F300C078F37BC38BF37AC38AF379C341
:1056200089F378C388F31DDE03C07FF302C07EF3E5
:1056300001C07DF300C07CF37CC300F07DC301F0AA
:105640007EC302F07FC303F01200D88283C3B9F394
:1056500082C3B8F381C3B7F380C3B6F3DB0E030193
:10566000BD6F0F0EBC6F490EBB6F7F0EBA6F00018E
:1056700088EC14F003C087F302C086F301C085F301
:1056800000C084F303C08BF302C08AF301C089F326
:1056900000C088F3E6DD120003017B6B7A6B796B47
:1056A000786B7F6B7E6B7D6B7C6B77C383F376C38C
:1056B00082F375C381F374C380F300018BDD03C0F3
:1056C0007BF302C07AF301C079F300C078F37BC3A7
:1056D00083F37AC382F379C381F378C380F3B5DFB0
:1056E00003C07FF302C07EF301C07DF300C07CF3F2
:1056F0007CC300F07DC301F07EC302F07FC303F0E2
:10570000120095C3B5F394C3B4F393C3B3F392C338
:10571000B2F395C3B9F394C3B8F393C3B7F392C389
:10572000B6F3C4EC15F01200ABC3B9F3AAC3B8F3D7
:10573000A9C3B7F3A8C3B6F30301BD6BBC6BBB6BC6
:10574000BA6B0001A1EC16F001E205E1006A016A02
:10575000026A036A7BD0ABC3AFF3AAC3AEF3A9C39B
:10576000ADF3A8C3ACF3030E0301B56FAC0EB46F79
:10577000B4C3E9FFB5C3EAFFEF50B96BB86F7F0E52
:10578000B827000EB923D890B931B831B5C3EAFFB4
:10579000B4C3E9FFEF6EAFC3B3F3AEC3B2F3ADC3AF
:1057A000B1F3ACC3B0F3ABC3B9F3AAC3B8F3A9C3A5
:1057B000B7F3A8C3B6F3AFC3BDF3AEC3BCF3ADC379
:1057C000BBF3ACC3BAF300011DEC1FF0D892AFC31A
:1057D000B9F3AEC3B8F3ADC3B7F3ACC3B6F303C00C
:1057E000BDF302C0BCF301C0BBF300C0BAF388EC48
:1057F00014F003C0AFF302C0AEF301C0ADF300C0BC
:10580000ACF30301B4C3E9FFB5C3EAFFEF06B3C3CA
:10581000B9F3B2C3B8F3B1C3B7F3B0C3B6F3AFC310
:10582000BDF3AEC3BCF3ADC3BBF3ACC3BAF300016D
:10583000A1EC16F0D8B402D00301ADD7B0C300F08C
:10584000B1C301F0B2C302F0B3C303F0120003010D
:105850008D6B8C6B8B6B8A6B85C395F384C394F3D0
:1058600083C393F382C392F300014BDF03C091F330
:1058700002C090F301C08FF300C08EF389C395F38B
:1058800088C394F387C393F386C392F33ADFEACFD6
:1058900093F3E9CF92F3D89291C3B9F390C3B8F3DD
:1058A0008FC3B7F38EC3B6F303C0BDF302C0BCF31E
:1058B00001C0BBF300C0BAF388EC14F093C3EAFF55
:1058C00092C3E9FF03C091F302C090F301C08FF3CC
:1058D00000C08EF303C0ABF302C0AAF301C0A9F36A
:1058E00000C0A8F321DF03C08DF302C08CF301C018
:1058F0008BF300C08AF38AC300F08BC301F08CC322
:1059000002F08DC303F012000301A36B91C396F361
:1059100090C395F38FC394F38EC393F391C3B9F3FC
:1059200090C3B8F38FC3B7F38EC3B6F3BD6BBC6B34
:10593000BB6BBA6B0001A1EC16F007E3010E03018B
:10594000A36F9451800A946F00010301B96BB86B87
:10595000B76B7E0EB66F96C3BDF395C3BCF394C30D
:10596000BBF393C3BAF30001A1EC16F048E3D8826D
:105970000301B96BB86BB76B7F0EB66F96C3BDF3FF
:1059800095C3BCF394C3BBF393C3BAF3000188EC93
:1059900014F003C0A7F302C0A6F301C0A5F300C032
:1059A000A4F303C0B9F302C0B8F301C0B7F300C059
:1059B000B6F30301BD6BBC6BBB6B800EBA6F00010D
:1059C0001DEC1FF003C0A7F302C0A6F301C0A5F3AE
:1059D00000C0A4F303C0ABF302C0AAF301C0A9F353
:1059E00000C0A8F3A1DE03C096F302C095F301C086
:1059F00094F300C093F3020E03019227000196C3B3
:105A0000B5F395C3B4F394C3B3F393C3B2F396C39E
:105A1000B9F395C3B8F394C3B7F393C3B6F3C4EC27
:105A200015F003C0A2F302C0A1F301C0A0F300C0AF
:105A30009FF3370E0301B56FBF0EB46F7D0EB36FCA
:105A4000B26FA2C3B9F3A1C3B8F3A0C3B7F39FC3A6
:105A5000B6F30001C4EC15F003C0A7F302C0A6F32F
:105A600001C0A5F300C0A4F3D89203C0B9F302C0EB
:105A7000B8F301C0B7F300C0B6F33D0E0301BD6F2C
:105A8000AA0EBC6F930EBB6F810EBA6F000188EC3B
:105A900014F003C09AF302C099F301C098F300C058
:105AA00097F39AC3B5F399C3B4F398C3B3F397C309
:105AB000B2F3A2C3B9F3A1C3B8F3A0C3B7F39FC3B2
:105AC000B6F3C4EC15F003C0A7F302C0A6F301C0FF
:105AD000A5F300C0A4F3D89203C0B9F302C0B8F391
:105AE00001C0B7F300C0B6F3EE0E0301BD6F500E58
:105AF000BC6F330EBB6F810EBA6F000188EC14F0DF
:105B000003C09AF302C099F301C098F300C097F361
:105B10000301B56BB46BB36B7F0EB26FA2C3B9F365
:105B2000A1C3B8F3A0C3B7F39FC3B6F30001C4EC9D
:105B300015F003C0A7F302C0A6F301C0A5F300C08F
:105B4000A4F3D89203C0B9F302C0B8F301C0B7F30D
:105B500000C0B6F30A0E0301BD6F8D0EBC6FB10E0F
:105B6000BB6F810EBA6F000188EC14F003C09EF386
:105B700002C09DF301C09CF300C09BF39EC3B5F32C
:105B80009DC3B4F39CC3B3F39BC3B2F3A2C3B9F3F5
:105B9000A1C3B8F3A0C3B7F39FC3B6F3C4EC15F029
:105BA00003C0A7F302C0A6F301C0A5F300C0A4F38D
:105BB000D89203C0B9F302C0B8F301C0B7F300C074
:105BC000B6F3EE0E0301BD6F500EBC6F330EBB6F0C
:105BD000810EBA6F000188EC14F003C09EF302C07E
:105BE0009DF301C09CF300C09BF396C3B5F395C32E
:105BF000B4F394C3B3F393C3B2F39AC3B9F399C3A1
:105C0000B8F398C3B7F397C3B6F3C4EC15F003C069
:105C1000A7F302C0A6F301C0A5F300C0A4F303C01C
:105C2000B9F302C0B8F301C0B7F300C0B6F39EC326
:105C3000BDF39DC3BCF39CC3BBF39BC3BAF31DEC84
:105C40001FF003C09AF302C099F301C098F300C09B
:105C500097F3030192A32ED0B56BB46BB36B800E98
:105C6000B26F9AC3B9F399C3B8F398C3B7F397C3A4
:105C7000B6F30001C4EC15F0D882DB0E0301B96F56
:105C80000F0EB86F490EB76F7F0EB66F03C0BDF32E
:105C900002C0BCF301C0BBF300C0BAF3000188EC42
:105CA00014F003C09AF302C099F301C098F300C046
:105CB00097F30301A35303E09851800A986F92A1D0
:105CC0001DD0D882DB0EB96F0F0EB86F490EB76FBB
:105CD0007F0EB66F9AC3BDF399C3BCF398C3BBF3F1
:105CE00097C3BAF3000188EC14F003C09AF302C022
:105CF00099F301C098F300C097F3030197C300F034
:105D000098C301F099C302F09AC303F00001120096
:105D100089C391F388C390F387C38FF386C38EF34F
:105D20000301926B0001F0DD03C08DF302C08CF320
:105D300001C08BF300C08AF38AC300F08BC301F06B
:105D40008CC302F08DC303F012EF2FF00301896BB7
:105D5000886B876B866B85C3B5F384C3B4F383C349
:105D6000B3F382C3B2F3E00EB96F2E0EB86F650EB7
:105D7000B76F840EB66F0001C4EC15F003C089F351
:105D800002C088F301C087F300C086F386C300F029
:105D900087C301F088C302F089C303F089EF2FF0B5
:105DA0000301796B786B776B766B7D6B7C6B7B6BB0
:105DB0007A6B816B806B7F6B7E6B75C385F374C36D
:105DC00084F373C383F372C382F371C389F370C323
:105DD00088F36FC387F36EC386F3000138DD75C3A4
:105DE000B9F374C3B8F373C3B7F372C3B6F303C0A4
:105DF000BDF302C0BCF301C0BBF300C0BAF31DEC9D
:105E00001FF003C085F302C084F301C083F300C018
:105E100082F303C089F302C088F301C087F300C096
:105E200086F376D703C079F302C078F301C077F325
:105E300000C076F371C3B9F370C3B8F36FC3B7F39F
:105E40006EC3B6F30301BD6BBC6BBB6BBA6B0001D9
:105E5000A1EC16F01EE3D882DB0E0301B96F0F0E22
:105E6000B86F490EB76F800EB66F79C3BDF378C3B4
:105E7000BCF377C3BBF376C3BAF3000188EC14F02C
:105E800003C07DF302C07CF301C07BF300C07AF352
:105E900037D075C3B9F374C3B8F373C3B7F372C320
:105EA000B6F30301BD6BBC6BBB6BBA6B0001A1EC1D
:105EB00016F01EE3D892DB0E0301B96F0F0EB86F18
:105EC000490EB76F810EB66F79C3BDF378C3BCF3CB
:105ED00077C3BBF376C3BAF3000188EC14F003C0B8
:105EE0007DF302C07CF301C07BF300C07AF308D0DD
:105EF00079C37DF378C37CF377C37BF376C37AF3FE
:105F00007DC385F37CC384F37BC383F37AC382F3BD
:105F10001DD703C081F302C080F301C07FF300C02E
:105F20007EF37EC300F07FC301F080C302F081C323
:105F300003F0120003015F6B5E6B5D6B5C6B636B68
:105F4000626B616B606B676B666B656B646B6B6BD5
:105F50006A6B696B686B55C377F354C376F353C3AD
:105F600075F352C374F30001F0EC2AF051C3B5F39A
:105F700050C3B4F34FC3B3F34EC3B2F303C0B9F38A
:105F800002C0B8F301C0B7F300C0B6F3C4EC15F01B
:105F900003C05FF302C05EF301C05DF300C05CF3B9
:105FA00055C377F354C376F353C375F352C374F3F5
:105FB0004CEC2BF051C3B5F350C3B4F34FC3B3F360
:105FC0004EC3B2F303C0B9F302C0B8F301C0B7F3D4
:105FD00000C0B6F3C4EC15F003C063F302C062F373
:105FE00001C061F300C060F3030156C3E9FF57C36A
:105FF000EAFFEFCF6CF3ECCF6DF3ECCF6EF3ECCFA9
:106000006FF3040E5625E96E000E5721EA6EEFCFAE
:1060100074F3ECCF75F3ECCF76F3ECCF77F30001AC
:10602000F0EC2AF06FC3B5F36EC3B4F36DC3B3F3F2
:106030006CC3B2F303C0B9F302C0B8F301C0B7F345
:1060400000C0B6F3C4EC15F003C067F302C066F3FA
:1060500001C065F300C064F3030156C3E9FF57C3F1
:10606000EAFFEFCF6CF3ECCF6DF3ECCF6EF3ECCF38
:106070006FF3040E5625E96E000E5721EA6EEFCF3E
:1060800074F3ECCF75F3ECCF76F3ECCF77F300013C
:106090004CEC2BF06FC3B5F36EC3B4F36DC3B3F325
:1060A0006CC3B2F303C0B9F302C0B8F301C0B7F3D5
:1060B00000C0B6F3C4EC15F003C06BF302C06AF382
:1060C00001C069F300C068F35FC36FF35EC36EF392
:1060D0005DC36DF35CC36CF367C373F366C372F3A4
