:0406000086EF69F028
:08060800046ED8CF05F0E0CF2D
:1006100006F00001E9CF0CF0EACF07F0E1CF08F0D7
:10062000E2CF09F0D9CF0AF0DACF0BF0F3CF12F016
:10063000F4CF13F0FACF14F0F5CF15F0F6CF16F093
:10064000F7CF17F000C00EF001C00FF002C010F09D
:1006500003C011F09DA230EF03F09EB295EF03F0BE
:10066000F2A836EF03F0F2B2FEEF04F0F0A63CEF92
:1006700003F0F0B002EF05F09DAA42EF03F09EBA3E
:1006800084EF04F00EC000F00FC001F010C002F0C3
:1006900011C003F00CC0E9FF07C0EAFF078E08C0D5
:1006A000E1FF09C0E2FF0AC0D9FF0BC0DAFF12C0A8
:1006B000F3FF13C0F4FF14C0FAFF15C0F5FF16C016
:1006C000F6FF17C0F7FF045006C0E0FF05C0D8FFD3
:1006D0001000016A026A006A036A0401325102E1F1
:1006E000315118E0100E336FD8902F373037003665
:1006F00003363251035C02E13151005C07E33151B2
:10070000005ED8A003063251035ED880013602365F
:10071000332FEAD70001A2EF03F0010EDE6FADEF39
:1007200003F0010EDD6FB5EF03F0702AD8B4712A23
:1007300071C030F470C02FF40401326B0A0E316FB7
:100740000001C7D700C02FF4040103C030F42F53B9
:1007500005E1305303E10001E0D704017050640863
:1007600007E1715205E10001DCD7716A706A04018A
:100770009E92000142EF03F00A0D426F6F6B6D61B4
:10078000726B203D20254C750A0D00005772617078
:1007900020466C6167203D2025750A0D00005573C9
:1007A000657220496E666F726D6174696F6E205359
:1007B000697A65203D20254C750A0D005265636FEE
:1007C000726420506572696F64203D2025750A0DA2
:1007D00000004465636C696E6174696F6E203D2032
:1007E00025750A0D0000537065656420556E6974A7
:1007F000203D2025750A0D00537065656420446115
:100800006D70696E67203D2025750A0D00004865F2
:100810006164696E672044616D70696E67203D2078
:1008200025750A0D00004669726D77617265205565
:10083000706461746520466C6167203D2025750AEF
:100840000D004E756D626572206F66204C6F677388
:10085000203D2025750A0D004C6F6720577261708E
:1008600020466C6167203D2025750A0D00004C6F05
:100870006720496E646578203D2025750A0D0000CB
:100880009EAAFED7ABCF1AF0AECF01F01AA202D0CB
:10089000AB98AB881200016603D0026602D007D085
:1008A000022A00C0EEFF012EFCD7022EFAD712005A
:1008B000EA6ADF0EE96E006A026A640E016EEBDF1F
:1008C000A7EF04F0200E0401336F036A3251540F76
:1008D000E96E010E0320EA6EEFCF33F433C401F06A
:1008E0000001BAEF04F00401316B010E3025316FC5
:1008F0003151640801E1316B31C401F00001120093
:10090000010EB06FD5EF04F004012F6B036A0101F3
:10091000BA51540FE96E010E0320EA6EEACF33F4A8
:10092000E9CF32F40001ACDF33C4EAFF32C4E9FF9F
:1009300001C0EFFF036A0101BA51540FE96E010EC5
:100940000320EA6EEF500A0831E10001B1D704013B
:100950002F6B2F51630827E3036A2F51DF0F016EBE
:10096000000E032201C030F403C031F4BBC132F4E5
:100970000001A8D731C4EAFF30C4E9FF01C0EFFF8E
:10098000BBC130F4B0DF01C0BBF1036A04012F51D9
:10099000DF0FE96E000E0320EA6EEF500A0801E156
:1009A00002D02F2BD6D70001ABD70101BAC130F44A
:1009B000000199DF01C0BAF19E9A42EF03F0696E1F
:1009C000646578203D2025752C2020202025752069
:1009D0000A0D00002A2A2A2A2A2A2A2A2A2A2045F7
:1009E00052524F52202575202A2A2A2A2A2A2A2A98
:1009F0002A2A0A0D0000010EC26F1200FCDFF292DB
:100A000042EF03F0F8DFF09042EF03F06C6F6749BC
:100A10006E646578203D2025640D0A006E756D5466
:100A20007261636B706F696E7473203D20254C7525
:100A30000D0A0000737461727420646174657469D6
:100A40006D65203D202564202F202564202F202542
:100A5000642C20202564203A202564203A20256437
:100A6000202E2025640D0A00656E6420202064611C
:100A7000746574696D65203D202564202F202564F0
:100A8000202F2025642C20202564203A2025642056
:100A90003A202564202E2025640D0A006C617469BB
:100AA00074756465203D2025662064656772656500
:100AB00073200D0A00006C6F6E67697475646520A1
:100AC0003D2025662064656772656573200D0A0008
:100AD00068656164696E67203D20256620646567EE
:100AE00072656573200D0A007370656564203D2092
:100AF0002566206B6E6F7473200D0A006461746547
:100B000074696D65203D202564202F202564202FE9
:100B10002025642C20202564203A202564203A20BA
:100B20002564202E2025640D0A0095988C98F4EFFA
:100B300005F0B886080EAF6E020EB06EA60EAC6E53
:100B4000900EAB6E1200F5DF9EAA02D099DEFCD7A4
:100B5000D1EF05F0B8862A0EAF6E000EB06EA60E6D
:100B6000AC6E900EAB6E12009EAAFED7ABCF1AF001
:100B7000AECF01F01AA202D0AB98AB881200EADF28
:100B80009EAA02D0F1DFFCD7D1EF05F00101CE51D2
:100B9000000A000103E0010A03E003D0D4D701D02A
:100BA000EED7120003010251000A000103E0010A1E
:100BB00006E00CD0959A8C9A0101CE6B0BD0959AD9
:100BC0008C8A010E0101CE6F05D00001959A8C9A96
:100BD0000101CE6B00011200D9DF0301026B00019D
:100BE000E1DFA7DF1200A1D7F7DF78EF0AF0C150ED
:100BF000C00B0E09C16EC050C00B0709C06EC09E6D
:100C0000C280000E016EC250C30B0110C26E0AEF0B
:100C100009F09292899212009292898214EF06F062
:100C20000301046B0001F8D7C282C2B2FED7C4CF61
:100C300004F3EFDF030104C301F0000112008E0E84
:100C4000006EA9C301F0A8C302F0036A015209E1D2
:100C500002C001F0026A080E005E015202E1006A61
:100C600008D0D89001BE04D0023601360006F9D76C
:100C7000019E1200800ED8A202D00301B11B030115
:100C8000B66BB76BADC3B5F3B151B51BAC51D8B4AE
:100C9000DFD0B46F006EB051D8B4E3D0B45FD8B435
:100CA00083D03EE3B1C3BAF3BA8FB2C3B9F3B3C3CF
:100CB000B8F3B76BD890BA33B933B833B733B42F6E
:100CC000F8D7B5AF03D0B681E0D0B691B491B6896C
:100CD000030EEA6EAF0EE96EEBD0B699B5BF0AD03F
:100CE000B4A113D0BA33B933B833B733002AD8B468
:100CF000C7D00BD0BABF0CD0D890B737B837B937F8
:100D0000BA370006D8B4BCD0F5D7B68D6DD0B69D35
:100D1000ADC3B5F3ADAF02D0BA8FABD0BA9FA9D0F7
:100D2000B0C3B4F3B0C300F0AC51B45FADC3BAF319
:100D3000BA8FAEC3B9F3AFC3B8F3B76BD890BA33B9
:100D4000B933B833B733B42FF8D7B5AF03D0B683C0
:100D50009CD0B693B491B68B030EEA6EB30EE96ED7
:100D6000A7D0B69BB5BF0AD0B4A113D0BA33B9335C
:100D7000B833B733002AD8B483D00BD0BABF0CD065
:100D8000D890B737B837B937BA370006D8B478D063
:100D9000F5D7B68F29D0B69FB1C3B5F3B1AF02D0A6
:100DA000BA8F67D0BA9F65D0B1C3BAF3BA8FB2C356
:100DB000B9F3B3C3B8F3B5AF04D0BA9FB68565D065
:100DC000B695B76BB491030EEA6EAF0EE96E70D0B4
:100DD000B5BF1CD0ADC3B5F3B4A106D0BA33B93397
:100DE000B833B733002A4CE0B7AF0BD0B82B09E1CA
:100DF000B92B07E1BA2B05E1BA33B933B833002A6E
:100E00003FE0B6BD84D7B6BFC6D71CD0800EBA1B94
:100E1000BAAF04D03AD0B1C3B5F30AD0ADC3B5F37D
:100E2000BA5306E1B95304E1B85302E1006A21D094
:100E3000BABF08D0D890B737B837B937BA37002E0D
:100E4000F7D71ED0B5AF02D0BA8F13D0BA9F11D04A
:100E5000B0C300F0B1C3BAF3B2C3B9F3B3C3B8F3CC
:100E600008D0ACC300F0ADC3BAF3AEC3B9F3AFC39F
:100E7000B8F3BAC301F0B9C302F0B8C303F034D079
:100E8000006A016A026A036A2FD0B76BB81FB91FE4
:100E9000BA1FB71FB72B05E1B82B03E1B92B01E14E
:100EA000BA2BB6B112D7B6B354D7B6B589D7B3D724
:100EB000EF50B82705E3B92B03E1BA2BD8B4B481BE
:100EC000ED52EF50B92703E3BA2BD8B4B481ED52F9
:100ED000EF50EFBE01D0800ABA27D8B0B481B6B9BE
:100EE000FCD6B6BB3ED774D7000112000301A8514F
:100EF000D8B471D0006EAC51D8B46DD0002604E3E4
:100F0000810E002668E204D07F0E005E64E363E099
:100F1000A9C3B0F3AD51B01BA98FAD8FAB51AF03D7
:100F2000F4CFB2F3AA51AE03F4CF03F0F3CFB1F391
:100F3000AF03F350B227F450B123000E0322AB519C
:100F4000AE03F350B227F450B123000E026A03221D
:100F50000222A951AF03F350B127F4500322000E2F
:100F60000222A951AE03F3500326F4500222000ED0
:100F7000016A0122AB51AD03F350B127F4500322B3
:100F8000000E02220122AA51AD03F3500326F450B1
:100F90000222000E0122A951AD03F3500226F450A3
:100FA0000122002A01BE05D0B137033602360136D0
:100FB0000006000EB1AF0AD0032A0222012201501E
:100FC00005E1025003E1035001E1002AB0BF018EA8
:100FD000B0AF019E04D0006A016A026A036A000190
:100FE00012000301716B706B6F6B6E6BD882AF6B0D
:100FF000AE6BAD6B7F0EAC6F6DC3B3F36CC3B2F36E
:101000006BC3B1F36AC3B0F3000134DE69C3ABF361
:1010100068C3AAF367C3A9F366C3A8F303C0AFF319
:1010200002C0AEF301C0ADF300C0ACF35FDF03C09C
:1010300075F302C074F301C073F300C072F365C3AB
:10104000ABF364C3AAF363C3A9F362C3A8F36DC38C
:10105000AFF36CC3AEF36BC3ADF36AC3ACF346DF5F
:10106000D89275C3AFF374C3AEF373C3ADF372C359
:10107000ACF303C0B3F302C0B2F301C0B1F300C0DC
:10108000B0F3F8DD03C071F302C070F301C06FF379
:1010900000C06EF36EC300F06FC301F070C302F0C6
:1010A00071C303F01200ADC3B4F30301B151B41B1B
:1010B000B4AF05D0D894D890ADBFD8802FD0ADC3F1
:1010C000B4F3B0C3B5F3AC51B55F06E0B4AF26D00E
:1010D000D850010AD86E22D0B1C3B5F3AD51B55F77
:1010E00006E0B4AF1BD0D850010AD86E17D0B2C3F7
:1010F000B5F3AE51B55F06E0B4AF10D0D850010AD9
:10110000D86E0CD0B3C3B5F3AF51B55F06E0B4AF42
:1011100005D0D850010AD86E01D0D8900001120035
:101120000301036B00017CDD01C003F30301A96B24
:1011300003C3A8F3000183DD03C007F302C006F375
:1011400001C005F300C004F303C065F302C064F3FB
:1011500001C063F300C062F36FC069F36EC068F34F
:101160006DC067F36CC066F3CD0E03016D6FCC0EDE
:101170006C6F4C0E6B6F7B0E6A6F000132DF03C029
:101180006FF002C06EF001C06DF000C06CF00301A2
:10119000AF6BAE6B130EAD6F860EAC6F6FC0B3F35B
:1011A0006EC0B2F36DC0B1F36CC0B0F300017BDF71
:1011B00003E3010E6B6E2CD00301AF6BAE6B0B0E15
:1011C000AD6F860EAC6F6FC0B3F36EC0B2F36DC07F
:1011D000B1F36CC0B0F3000166DF03E3020E6B6E87
:1011E00017D00301AF6BAE6B700EAD6F850EAC6F99
:1011F0006FC0B3F36EC0B2F36DC0B1F36CC0B0F3A7
:10120000000151DF03E3030E6B6E02D0040E6B6E20
:101210001200EDD4FEDC04DD0301A96B01C0A8F3CC
:1012200000010DDD03C06FF002C06EF001C06DF073
:1012300000C06CF075DF79EF0AF0C69A949A948832
:101240009496220EC66E400EC76E94948B84949A28
:101250008B8A94968B867AEF0AF094908B9032EF7B
:1012600009F0FBD79D9A0101B96B00011200F29CB5
:10127000F29EF2BEFDD79286050E006E002EFED7BE
:101280009284060E006E002EFED789969296050E69
:10129000006E002EFED789949294C00EF2121200B6
:1012A000080E016E050E006E002EFED789949294F2
:1012B000060E006E002EFED7030132378996D8B095
:1012C0009286D8A09296928480A4FED7012E01D057
:1012D00002D00001E7D7050E006E002EFED78994DC
:1012E000929400009286060E006E002EFED7060E27
:1012F000006E002EFED7928480A4FED7016A060EEF
:10130000006E002EFED780B6018089949294899653
:10131000929600011200010E0301316FF29CF29EC1
:10132000F2BEFDD730C332F30001BADF01C031F3A2
:10133000C00EF212030131C301F000011200010ED0
:1013400003012C6F700E306F0001E5DF01C02CF33C
:1013500003012CC301F000011200600E0301016FB4
:10136000010E026F005301E0018F01C330F3000151
:10137000D2DF01C002F3030102C301F0000130EF2C
:101380000AF0780E03012D6F010E2E6F2B5301E032
:101390002D8F2C5301E02D832DC330F30001BBDFD3
:1013A00001C02EF303012EC301F000011200700EE4
:1013B00003010D6F010E0E6F0A5301E00D8F0B53E9
:1013C00001E00D850CA101D00D810CA301D00D838E
:1013D0000DC330F300019FDF01C00EF303010EC304
:1013E00001F000011200460E0301046F010E056FAB
:1013F000025301E0048F035301E0048704C330F378
:10140000000189DF01C005F3030105C301F00001FC
:101410001200F29CF29EF2BEFDD7929600009284DA
:1014200080A4FED7050E006E002EFED700D000006F
:101430009286050E006E002EFED7C00EF21212002C
:10144000010E0201FF6F000112DF79DF01C0FFF220
:101450000201FF5308E1010E0301006F00017DD777
:1014600001C0FFF20201FF5309E1010E03012B6FDE
:101470002C6B000186DF01C0FFF20201FF530AE17D
:10148000010E03010A6F0B6B0C6B000190DF01C0B2
:10149000FFF20201FF5309E10301026B010E036F2A
:1014A0000001A1DF01C0FFF202010001B2DF020171
:1014B000FFC201F0000162EF0AF0010E0201FE6FAF
:1014C0000001BED701C0FEF20201FE53F9E10001A6
:1014D0007CEF0AF0D56ACD6A780E0609CA6EFF0E57
:1014E000CB6EF29A9D909D82C00EF212F3EF05F042
:1014F00090D6A3D6B6DEE1D712000201FA6BF2CF86
:10150000FBF2F29EAA6A500EA96EA69CA69EA68029
:10151000A850FBBFF28EFA6FFAC201F000014AEF49
:1015200068F0000E7EB6010E016E1200030127A1C5
:1015300002D07E8801D07E9827A302D07E8A01D077
:101540007E9A00011200EDDF015206E0030E030156
:10155000276F0001EBDF05D0010E0301276F0001AB
:10156000E5DF12000301485315E046514425016EA2
:10157000000E4521036E01C0E9FFEA6E010E006E08
:101580004751016E04E0D8900036012EFCD7005080
:10159000EF1215D046514425016E000E4521036E11
:1015A00001C0E9FFEA6E010E006E4751016E04E0D2
:1015B000D8900036012EFCD70050FF0AEF1600012C
:1015C00012000301426B436B4031426F423342339E
:1015D0001F0E42174051070BFF0A080F436F7EA8EA
:1015E0000DD0010E456FBE0E446F42C346F343C398
:1015F00047F341C348F30001B5DF03017EAA0DD0D4
:10160000010E456FC60E446F42C346F343C347F312
:1016100041C348F30001A6DF0301000112000301EA
:101620003B6B3C6B010E365D3C6F3B6B36513B5D5B
:1016300027E23B513425E96E000E3521EA6EEFCFEB
:101640003DF33AC303F039C302F038C301F037C3A6
:1016500000F03C513E6F07E0D89003320232013275
:1016600000323E2FF9D7000E00B0010E3F6F3DC390
:1016700040F3416F0001A5DF03013C073B2BD6D7A8
:101680000001120003012C6B2D6B2E6B2F6B306B46
:10169000316B326B336B2A51010A000105E0030AFA
:1016A00014E0010A23E032D00C0E03012C6F0E0E61
:1016B0002D6F100E2E6F0F0E2F6F0B0E306F0A0E48
:1016C000316F0D0E326F000121D0140E03012C6F0B
:1016D000160E2D6F180E2E6F170E2F6F130E306F04
:1016E000120E316F150E326F000110D01C0E030167
:1016F0002C6F1E0E2D6F200E2E6F1F0E2F6F1B0EC8
:10170000306F1A0E316F1D0E326F000103012B5125
:10171000300A000131E0010A33E0030A35E0010A32
:1017200037E0070A39E0010A3BE0030A3DE0010A1D
:101730003FE00F0A41E0010A43E05B0A45E0060A88
:1017400047E0030A49E0150A4BE0330A4DE0020A7C
:101750004FE0060A51E0030A53E00E0A55E0040A7E
:1017600057E0030A59E01F0A5BE0030A5DE0060A3E
:101770005FE0780A61E064D07E0E0301336F62D0CF
:10178000300E0301336F5ED06D0E0301336F5AD0FC
:10179000790E0301336F56D0330E0301336F52D0ED
:1017A0005B0E0301336F4ED05F0E0301336F4AD0DF
:1017B000700E0301336F46D07F0E0301336F42D0AA
:1017C0007B0E0301336F3ED01F0E0301336F3AD0FF
:1017D0003D0E0301336F36D07B0E0301336F32D0E1
:1017E000050E0301336F2ED0770E0301336F2AD01D
:1017F0004E0E0301336F26D04F0E0301336F22D0FC
:10180000470E0301336F1ED0370E0301336F1AD01A
:101810000E0E0301336F16D07E0E0301336F12D00C
:10182000670E0301336F0ED05B0E0301336F0AD0D6
:101830003E0E0301336F06D0010E0301336F02D059
:101840000301336B030E356F2C0E346F070E366FAA
:101850003A6B396B386B33C337F30001E0DE1200AB
:10186000010E03012A6F27C32BF300010BDF020EC9
:1018700003012A6F28C32BF3000104DF030E0301C9
:101880002A6F29C32BF30001FDDE1200F0DC57DDC7
:1018900003012B6B2AC32CF3000173DDBADDA2EF29
:1018A0000CF003012E6B010E2F6F2D513F0B2E6F8D
:1018B0002C5301E02E8F2EC330F300012CDD01C02C
:1018C0002FF303012FC301F0000193EF0CF0010E81
:1018D00003012F6F306BF29CF29EF2BEFDD7306B8E
:1018E0002E51305D12E230512C25E96E000E2D2173
:1018F000EA6EEFCF32F30001D3DC01C02FF3030116
:101900002F53D8A402D0302BEBD7C00EF2122FC326
:1019100001F000019CEF0CF0AADC11DD03012C6B3F
:101920002D6B0001BED72BC32DF32AC32CF3080E59
:1019300003012E6F0001CBD76CDDA7EF0CF029C39C
:101940002AF3A4D728C32BF327C32AF3E5D7120021
:101950007EA808D0010E0301286FBE0E276F296BE9
:101960000001EDDF7EAA09D0010E0301286FC60E2B
:10197000276F010E296F0001E2DF1200E4DD24C3AE
:1019800027F325C328F326C329F36ADFE1DF12001A
:10199000110E0301406F416B000113DE190E0301AC
:1019A000406F416B00010DDED7EF0CF0F1D7030162
:1019B0002551000A000105E0010A0BE0030A11E0CD
:1019C00010D0110E0301406F010E416F0001F9DDCF
:1019D00008D0190E0301406F010E416F0001F1DDC7
:1019E00000D0F7EF0CF0AFDD24C325F3DFD7B0DF75
:1019F000120007C324F308C325F309C326F3BEDF8F
:101A0000020E0301246F0001EEDF1200220E03011B
:101A1000406F416B0001D5DD2C0E0301406F416B1F
:101A20000001CFDD210E0301406F416B0001C9DDD4
:101A30001BEF0DF0EBD7010E0301055DFC0F29E252
:101A4000040F00014CEF0DF0220E0301406F010E58
:101A5000416F0001B6DD03011CD02C0E0301406F65
:101A6000010E416F0001ADDD030113D0210E030112
:101A7000406F010E416F0001A4DD220E0301406F93
:101A8000010E416F00019DDD030103D0030101D070
:101A90000301000161EF0DF0E824F76AF736B30F98
:101AA000F66E1A0EF7220A00F550FA6E0800F5508D
:101AB000F96E481A5A1A6C1A8C1A45DD04C305F3DC
:101AC000B9D746DF120003010751FC0F5BE2040F98
:101AD0000001C4EF0DF0230E0301406F416B0001C4
:101AE00070DD250E0301406F416B00016ADD240E9D
:101AF0000301406F010E416F000163DD030142D01D
:101B0000230E0301406F416B00015BDD250E0301D5
:101B1000406F010E416F000154DD240E0301406F40
:101B2000010E416F00014DDD03012CD0230E030196
:101B3000406F010E416F000144DD250E0301406F2F
:101B4000010E416F00013DDD240E0301406F010EC7
:101B5000416F000136DD030115D0230E0301406FF4
:101B6000416B00012EDD250E0301406F416B00012A
:101B700028DD240E0301406F416B000122DD0301CB
:101B800001D0030100011200E824F76AF736A30F21
:101B9000F66E1B0EF7220A00F550FA6E0800F5509B
:101BA000F96ED61A001B2C1B5A1BCDDC06C307F39B
:101BB0008ADFCEDE12000301106B116B126B136B08
:101BC000146B156B166B176B186B196B1A6B1B6B01
:101BD0001C6B1D6B1E6B1F6B206B216B226B266BAE
:101BE000256B246B236B080E106F060E116F070E0A
:101BF000126F050E136F040E146F020E156F030E95
:101C0000166F010E176F186B310E196F2E0E1A6FAB
:101C10002F0E1B6F2D0E1C6F2B0E1D6F2A0E1E6FAD
:101C2000280E1F6F290E206F270E216F260E226FA0
:101C30000F51C20FD8B0D3D13E0F000102EF10F008
:101C40000301266B256B020E246F236BC8D10301A1
:101C5000266B256B030E246F236BC1D10301266B0A
:101C6000256B030E246F800E236FB9D10301266B01
:101C7000256B030E246FC00E236FB1D10301266BB9
:101C8000256B030E246FE00E236FA9D10301266B91
:101C9000256B030E246FF00E236FA1D10301266B79
:101CA000256B030E246FF80E236F99D10301266B69
:101CB000256B030E246FFC0E236F91D10301266B5D
:101CC000256B030E246FFE0E236F89D10301266B53
:101CD000256B030E246F236982D10301266B256BCC
:101CE000060E246F236B7BD10301266B256B0E0E32
:101CF000246F236B74D10301266B256B1E0E246F9A
:101D0000236B6DD10301266B256B3E0E246F236B75
:101D100066D10301266B256B7E0E246F236B5FD18A
:101D20000301266B256BFE0E246F236B58D1030134
:101D3000266B010E256FFE0E246F236B50D103011D
:101D4000266B030E256FFE0E246F236B48D1030113
:101D5000266B070E256FFE0E246F236B40D1030107
:101D6000266B256B246B236B3AD10301266B040E83
:101D7000256F246B236B33D10301266B060E256F71
:101D8000246B236B2CD10301266B070E256F246B6C
:101D9000236B25D10301266B070E256F800E246F60
:101DA000236B1DD10301266B070E256FC00E246F18
:101DB000236B15D10301266B070E256FE00E246FF0
:101DC000236B0DD10301266B070E256FF00E246FD8
:101DD000236B05D10301266B070E256FF80E246FC8
:101DE000236BFDD00301266B070E256FFC0E246FBD
:101DF000236BF5D00301266B070E256FFE0E246FB3
:101E0000236BEDD00301266B070E256F2469236B2E
:101E1000E6D00301266B070E256F2469800E236F21
:101E2000DED00301266B070E256F2469C00E236FD9
:101E3000D6D00301266B070E256F2469E00E236FB1
:101E4000CED00301266B070E256F2469F00E236F99
:101E5000C6D00301266B070E256F2469F80E236F89
:101E6000BED00301266B070E256F2469FC0E236F7D
:101E7000B6D00301266B070E256F2469FE0E236F73
:101E8000AED00301266B070E256F24692369A7D006
:101E90000301266B060E256F246B236BA0D0030174
:101EA000266B070E256F246B236B99D00301266BDD
:101EB000030E256F800E246F236B91D00301266BD8
:101EC000010E256FC00E246F236B89D00301266B92
:101ED000256BE00E246F236B82D00301266B256BEC
:101EE000700E246F236B7BD00301266B256B380E9D
:101EF000246F236B74D00301266B256B1C0E246F9B
:101F0000236B6DD00301266B256B0E0E246F236BA4
:101F100066D00301266B256B070E246F236B5FD001
:101F20000301266B256B030E246F800E236F57D0A1
:101F30000301266B256B010E246FC00E236F4FD05B
:101F40000301266B256B246BE00E236F48D0030141
:101F5000266B256B246B700E236F41D00301266B1B
:101F6000256B246B380E236F3AD00301266B256B4B
:101F7000246B1C0E236F33D00301266B256B246B5F
:101F80000E0E236F2CD00301266B256B246B070EDE
:101F9000236F25D00301266B256B246B030E236F63
:101FA0001ED00301266B070E256F2469236917D005
:101FB0000301266B256B246B236B11D00301266B69
:101FC000050E256F550E246F236F09D00301266B74
:101FD000020E256FAA0E246F236F01D00301030E9A
:101FE000356F100E346F130E366F26C33AF325C3C8
:101FF00039F324C338F323C337F300010FEC0BF09C
:1020000052EF10F0E824F76AF7361F0FF66E200E35
:10201000F7220A00F550FA6E0800F550F96E401CE0
:102020004E1C5C1C6C1C7C1C8C1C9C1CAC1CBC1CAE
:10203000CC1CDA1CE81CF61C041D121D201D2E1DD4
:102040003E1D4E1D5E1D6A1D781D861D941DA41D1E
:10205000B41DC41DD41DE41DF41D041E121E221E39
:10206000321E421E521E621E721E821E901E9E1E36
:10207000AC1EBC1ECC1EDA1EE81EF61E041F121F6C
:10208000201F301F401F4E1F5C1F6A1F781F861FB6
:10209000941FA21FB01FBC1FCC1FA3EC0AF00EC3DD
:1020A0000FF389D555DC1200200E0301076F086F6E
:1020B000096F00019EDC040E0301046F0001FDDCCA
:1020C000030E0301066F000170DD3B0E03010E6F6E
:1020D0000001E3DF120094948B94120094948B849B
:1020E000120003014091416BF29CF29EF2BEFDD7BB
:1020F0000001F1DFC950050EC96EC730FEE3C950BB
:10210000C96AC730FEE3C9CF41F303014091415191
:102110003E153E5D01E14081000E40B1010E3F5D84
:10212000D8B402D00001EBD70001D8DFC00EF21204
:102130001200020E03013E6F010E3F6F0001D1DF5E
:10214000B0EF10F0F29CF29EF2BEFDD7C4DFC95092
:10215000060EC96EC730FEE3C1DFC00EF212E9D72A
:102160001200F0DFF29CF29EF2BEFDD7B4DFC95040
:10217000D80EC96EC730FEE336C338F3C95036C334
:10218000C9FFC730FEE335C338F3C95035C3C9FFB3
:10219000C730FEE334C338F3C95034C3C9FFC73076
:1021A000FEE39CDFC00EF21212000401296B286BC3
:1021B000296B286B295335E12851030832E322515A
:1021C00028252A6F235129212B6F040E2D6F240EF1
:1021D0002C6F28512C25016E29512D21036E0150A1
:1021E000E96E03C0EAFFEFCF2CF4F250006EF29ECE
:1021F0002BC4AAFF2AC4A9FF2CC4A8FFA69CA69E94
:10220000A6840F01550EA76EAA0EA76EA682A6B2CF
:10221000FED7A6940050F2120401282BD8B4292B23
:10222000C9D7000112000401236B226B3CC327F4C1
:102230003BC326F43AC325F439C324F40001B5DFC7
:10224000120038C33CF337C33BF336C33AF335C30C
:1022500039F3E9DF1200F250006EF29EAA6A040E12
:10226000A96E35C3A8FFA69CA69EA6840F01550E95
:10227000A76EAA0EA76EA682A6B2FED7A69400509D
:10228000F212000112000301356B0001E4DF7FEF61
:1022900011F004010B6B0A6B0B6B0A6B0B51095DA0
:1022A0000FE303E108510A5D0BE206510A25E96ECE
:1022B00007510B21EA6EEF6A0A2BD8B40B2BEED72D
:1022C00000011200010E0401076FDD0E066F010E02
:1022D000096F086B0001DDDF0101DC6B00011200FA
:1022E0000301376B366B356B346B00013ADF03014A
:1022F000386B376B366B356B0001A3DFC4D7E2DF79
:102300002BEF12F00401246B236B2251040DF350C8
:10231000030F236F030E246FD8B0242B23C401F0C6
:1023200024C402F0000112000401216B206B1FC4C1
:1023300022F40001E7DF02C021F401C020F421C42F
:1023400023F420C422F41EC427F41DC426F41CC4A4
:1023500025F41BC424F429DF1200F250006EF29E13
:10236000030EAA6EA96A18C4A8FFA69CA69EA684FE
:102370000F01550EA76EAA0EA76EA682A6B2FED7B3
:10238000A6940050F2120001120017C418F4E5DF01
:102390001200F250006EF29E030EAA6E020EA96E9B
:1023A00018C4A8FFA69CA69EA6840F01550EA76E72
:1023B000AA0EA76EA682A6B2FED7A6940050F2126D
:1023C0000001120017C418F4E4DF1200F250006E8E
:1023D000F29E030EAA6E010EA96E16C4A8FFA69C5B
:1023E000A69EA6840F01550EA76EAA0EA76EA68202
:1023F000A6B2FED7A6940050F2120001120004010A
:10240000166B0001E3DF1EEF12F004010E6B0E6B82
:102410000E5131080BE31E6B1D6B1C6B1B6B0EC446
:102420001FF4000181DF04010E2BF2D7176B0001AE
:10243000ACDF0401176B0001C5DFE1D71200010119
:10244000DB8100011200010E03013E6F3F6B0001B2
:1024500048DE120045D7D9DFF2DFF5DF12000401B4
:10246000236B050E226F0DC327F40CC326F40BC398
:1024700025F40AC324F4000198DE120009C30DF309
:1024800008C30CF307C30BF306C30AF3E8DF12001B
:102490000301376B1F0E366F356B346B000161DE45
:1024A0000301096B086B076B066B0001E7DFCBDFED
:1024B00012000301036B026B036B026B03510308F1
:1024C0001BE3F250006EF29E03C3AAFF02C3A9FFF2
:1024D000A86AA69CA69EA6840F01550EA76EAA0EFA
:1024E000A76EA682A6B2FED7A6940050F2120301F0
:1024F000022BD8B4032BE2D7000188EF13F0F2507F
:10250000006EF29EAA6A0A0EA96E02C3A8FFA69CDC
:10251000A69EA6840F01550EA76EAA0EA76EA682D0
:10252000A6B2FED7A6940050F21200014CEF13F0B1
:10253000F250006EF29EAA6A0B0EA96E02C3A8FFAB
:10254000A69CA69EA6840F01550EA76EAA0EA76E86
:10255000A682A6B2FED7A6940050F212000151EF57
:1025600013F0F250006EF29EAA6A0C0EA96E02C31E
:10257000A8FFA69CA69EA6840F01550EA76EAA0EC4
:10258000A76EA682A6B2FED7A6940050F212000152
:1025900055EF13F0F250006EF29EAA6A0D0EA96E6E
:1025A00002C3A8FFA69CA69EA6840F01550EA76E87
:1025B000AA0EA76EA682A6B2FED7A6940050F2126B
:1025C00000015AEF13F0F250006EF29EAA6A0E0E4E
:1025D000A96E02C3A8FFA69CA69EA6840F01550E55
:1025E000A76EAA0EA76EA682A6B2FED7A69400502A
:1025F000F21200015FEF13F0F250006EF29EAA6A31
:102600000F0EA96E02C3A8FFA69CA69EA6840F016A
:10261000550EA76EAA0EA76EA682A6B2FED7A694E6
:102620000050F212000164EF13F0F250006EF29EBF
:10263000AA6A100EA96E02C3A8FFA69CA69EA68435
:102640000F01550EA76EAA0EA76EA682A6B2FED7E0
:10265000A6940050F212000169EF13F0F250006EE0
:10266000F29EAA6A110EA96E02C3A8FFA69CA69E9E
:10267000A6840F01550EA76EAA0EA76EA682A6B25B
:10268000FED7A6940050F21200016DEF13F0040E75
:102690000301026F000133D7800E0301026F0001B6
:1026A00047D70301026B00015CD7010E0301026FE3
:1026B000000170D7010E0301026F000184D7010EE3
:1026C0000301026F000198D7010E0301026F0001A0
:1026D000ACD70301026B0001C1D789EF13F0F250B0
:1026E000006EF29EAA6A500EA96E02C3A8FFA69CB5
:1026F000A69EA6840F01550EA76EAA0EA76EA682EF
:10270000A6B2FED7A6940050F21200011200D1D654
:10271000BED703013C6B3B6B3A6B396B000183DD29
:102720000301356B000197DD03010D6B0C6B0B6B27
:102730000A6B000194DE0301026B0001D0DF04018B
:10274000186B00010ADE0401166B00013FDE040174
:10275000186B00011EDE12000201FE91FE910101C4
:10276000B92D03D00201FE810101000E0201FEB16C
:10277000010E016E000167EF37F0030EEA6E050EE1
:10278000E96EEF500DE0060E016E006A002EFED7D6
:10279000012EFBD77B0E006E002EFED7EF2EF3D757
:1027A000120094908B80020E0301036F960E056F4A
:1027B0000001E3DF0301032FF9D700011200030139
:1027C000426BD8904135426F42C301F000011200C4
:1027D0007E92050E0301416F0001F1DF01C0B8F1E7
:1027E000C2EF1DF080C307F47FC306F40401096B38
:1027F000020E086F00014DDD1200030184C3E9FFE2
:1028000085C3EAFF7FC3EFFF010E8425E96E000E4A
:102810008521EA6E80C3EFFF020E8425E96E000E6B
:102820008521EA6E83C3EFFF030E8425E96E000E57
:102830008521EA6EEF6A040E8425866F000E8521DD
:10284000876FEA6E86C3E9FF82C3E2FF81C3E1FFBF
:102850008351016E04E0E6CFEEFF012EFCD70001AC
:1028600012000301806B040E7F25806F80C301F08E
:10287000000112000301846B856B866B846B8151B0
:10288000845D0CE284517F25E96E000E8021EA6EA2
:10289000EF50852785518627842BF1D782C3E9FF26
:1028A00083C3EAFF85C3EFFF010E8225E96E000EA8
:1028B0008321EA6E86C3EFFF000112009EA8FED7B7
:1028C000AD6E1200F29CF29EF2BEFDD70301825162
:1028D0000001F4DFC00EF2121200B50E0301826F88
:1028E0000001F0DF620E0301826F0001EBDF1200D6
:1028F0000301856B846B836B826BF29CF29EF2BE4C
:10290000FDD7856B846B836B826B85531CE184538D
:102910001AE1835318E18151825D15E27F518225CE
:10292000E96E80518321EA6EEFCF86F38651000174
:10293000C5DF010E03018227D8B0832BD8B4842BC6
:10294000D8B4852BE2D7C00EF212000112007FC36B
:10295000E9FF80C3EAFFEFCF82F30001B3DF010E8E
:1029600003017F25E96E000E8021EA6EEFCF82F32E
:102970000001A8DF12000301806BF29CF29EF2BE00
:10298000FDD7000140EC04F001C080F3C00EF2124C
:10299000030180C301F00001120003017F6B0001FD
:1029A000EADF01C07FF303017F51B508F8E10001C0
:1029B00012000301726B716B706B6F6BF29CF29E75
:1029C000F2BEFDD7726B716B706B6F6B725324E14B
:1029D000715322E1705320E16E516F5D1DE26C5125
:1029E0006F25E96E6D517021EA6EEACF76F3E9CF7B
:1029F00075F3000140EC04F076C3EAFF75C3E9FF0C
:102A000001C0EFFF010E03016F27D8B0702BD8B4BF
:102A1000712BD8B4722BDAD7C00EF212000112005B
:102A20000301366B376B200E686F6981030E04015A
:102A3000076F380E066F096B2E0E086F000129DC38
:102A4000030E0401076F660E066F096B020E086F16
:102A500000011FDC030E0301806F6A0E7F6F00010F
:102A6000C1DE2EC37FF32FC380F332C382F331C3A1
:102A700081F330C383F3030E0301856F380E846F37
:102A80000001BBDE30C37FF3ECDE01C037F3030E81
:102A90000301806F380E7F6F37C381F3030E836F9E
:102AA0006A0E826F0001E6DE18DF030E0301806FFD
:102AB000380E7F6F37C381F300011ADF030E030165
:102AC000806F6A0E7F6F000142DF67DF0301366BA4
:102AD0003651040807E300014EDF01C068F303012B
:102AE000362BF6D769A112D035C36DF334C36CF31E
:102AF00033C36EF300015DDF030E03016D6F660EDD
:102B00006C6F020E6E6F000154DF0301000E69B19D
:102B1000010E016E00019FEF15F003012C6B0A0EF0
:102B20002E6F040E2F6F306B030E326F316F280E35
:102B3000336F030E356F040E346F000171D729C354
:102B40002DF303012951310A000107E0040A09E0CD
:102B5000020A0BE0070A0DE011D0010E03012C6FF1
:102B60000FD0020E03012C6F0BD0030E03012C6F4C
:102B700007D0040E03012C6F03D0000103012C6B5E
:102B80002CC301F00001120003014B6B7A6B7B6BCD
:102B90007C81030E0401076F4C0E066F096B2E0E2D
:102BA000086F000149EC11F0030E0301806F7D0EE8
:102BB0007F6F000117DE48C37FF353DE01C07AF355
:102BC00046C37FF347C380F34AC382F349C381F30B
:102BD00048C383F3030E0301856F4C0E846F00011D
:102BE0000CDE030E0301806F4C0E7F6F7AC381F3FE
:102BF000030E836F7D0E826F00013CDE6EDE030EDE
:102C00000301806F4C0E7F6F7AC381F3000170DE89
:102C1000030E0301806F7D0E7F6F000198DEBDDE25
:102C200003014B6B4B51060807E30001A4DE01C012
:102C30007BF303014B2BF6D7000E7CB1010E016E26
:102C40000001120003010591030E0401076F060E37
:102C5000066F096B2A0E086F000149EC11F0F00EA7
:102C60000301066F076B086B096B0A6B0B6B0C6F2C
:102C7000010E0D6F0E6B0F6B106B116BF00E126F60
:102C8000020E136F146B156B166B176BF00E186F2B
:102C9000030E196F1A6B1B6B1C6B1D6BF00E1E6FF6
:102CA000040E1F6F206B216B226B236BF00E246FC1
:102CB000050E256F266B276B286B296BF00E2A6F8C
:102CC000080E2B6F2C6B2D6B2E6B2F6B0451010A92
:102CD000000103E0030A05E009D0010E0301216FA2
:102CE00006D0020E0301156F02D000010301060E8B
:102CF000466F010E476F2A0E486F030E4A6F060E8D
:102D0000496F000141DF0301059101B0058105A173
:102D1000EED700011200030148514625E96E000E6E
:102D20004721EA6E49C3EFFF00011200030106913B
:102D3000030E0401076F070E066F096B080E086F7C
:102D4000000149EC11F0030E0301476F070E466FB7
:102D5000486BF00E496F0001DEDF030E0301476F81
:102D6000070E466F010E486F04C349F30001D3DF1D
:102D7000030E0301476F070E466F020E486F496B43
:102D80000001C9DF030E0301476F070E466F030EF4
:102D9000486F05C349F30001BEDF030E0301476F0F
:102DA000070E466F040E486F496B0001B4DF030E37
:102DB0000301476F070E466F050E486F496B000110
:102DC000AADF030E0301476F070E466F060E486F1A
:102DD000496B0001A0DF030E0301476F070E466F2A
:102DE000486F496B000197DF060E0301466F010E25
:102DF000476F080E486F030E4A6F070E496F0001B8
:102E0000C3DE0301069101B0068106B102D00001C4
:102E1000EBD70001120003010691030E0401076FB6
:102E2000070E066F096B080E086F000149EC11F0E0
:102E3000030E0301476F070E466F486BF00E496F94
:102E4000000169DF030E0301476F070E466F010E95
:102E5000486F04C349F300015EDF030E0301476FAF
:102E6000070E466F020E486F496B000154DF030ED8
:102E70000301476F070E466F030E486F05C349F302
:102E8000000149DF030E0301476F070E466F040E72
:102E9000486F496B00013FDF030E0301476F070EC8
:102EA000466F050E486F496B000135DF030E0301C5
:102EB000476F070E466F060E486F496B00012BDF08
:102EC000030E0301476F070E466F486F496B000101
:102ED00022DF060E0301466F010E476F080E486F92
:102EE000030E4A6F070E496F00014EDE0301069183
:102EF00001B0068106B102D00001EBD7000112003B
:102F00000201FF51010A000107E0030A0BE0010A78
:102F10002EE0070A51E075D0010E0301046F000195
:102F200091DE6FD00301046B056B0001FFDE010E23
:102F30000301046F056B0001F9DE020E0301046F4B
:102F4000056B0001F3DE030E0301046F056B000146
:102F5000EDDE040E0301046F010E056F0001E6DED5
:102F6000050E0301046F056B0001E0DE4AD003018A
:102F7000046B056B00014FDF010E0301046F056B4D
:102F8000000149DF020E0301046F056B000143DFFE
:102F9000030E0301046F056B00013DDF040E030106
:102FA000046F010E056F000136DF050E0301046F8B
:102FB000056B000130DF25D00301046B056B0001B8
:102FC0002ADF010E0301046F056B000124DF020EEE
:102FD0000301046F056B00011EDF030E0301046F84
:102FE000056B000118DF040E0301046F010E056F6D
:102FF000000111DF050E0301046F056B00010BDFFB
:1030000000D0CAEF1DF0030148514625E96E000EBD
:103010004721EA6E49C3EFFF010E48254625E96EB8
:10302000000E4721EA6E4AC3EFFF020E48254625EF
:10303000E96E000E4721EA6E4BC3EFFF030E4825F1
:103040004625E96E000E4721EA6E4CC3EFFF0001F2
:103050001200030148514625E96E000E4721EA6E31
:1030600049C3EFFF010E48254625E96E000E4721B2
:10307000EA6E4AC3EFFF0001120003010591030E3F
:103080002E6F2F6F306F100E316F020E326F366B56
:10309000356BC30E346F500E336F180E376F140E2E
:1030A000386F050E396F3C0E3A6F3B6B010E3C6F6B
:1030B0003E6BFA0E3D6F406B3F6F426B640E416F8B
:1030C000010E446F2C0E436F456B042D15D0030E7B
:1030D0002E6F050E2F6F306F030E326F3E6B320E68
:1030E0003D6F406B3F6F426B420E416F446BC80EA9
:1030F000436F190E456F03D00451020800E1030E1F
:103100000401076F060E066F096B280E086F000199
:1031100049EC11F0030E0301476F060E466F486B32
:103120002EC349F30001F7DD030E0301476F060EBE
:10313000466F040E486F2FC349F30001ECDD030E08
:103140000301476F060E466F050E486F30C349F303
:103150000001E1DD030E0301476F060E466F486F65
:1031600031C349F30001D7DD030E0301476F060E9B
:10317000466F070E486F32C349F30001CCDD030EE2
:103180000301476F060E466F080E486F36C34CF3B7
:1031900035C34BF334C34AF333C349F3000133DF80
:1031A000030E0301476F060E466F0C0E486F37C3C0
:1031B00049F30001B0DD030E0301476F060E466FB1
:1031C0000D0E486F38C349F30001A5DD030E03015E
:1031D000476F060E466F0E0E486F39C349F3000164
:1031E0009ADD030E0301476F060E466F0F0E486F00
:1031F0003AC349F300018FDD030E0301476F060E4A
:10320000466F100E486F3BC349F3000184DD030E87
:103210000301476F060E466F110E486F3CC349F31A
:10322000000179DD030E0301476F060E466F140E91
:10323000486F3EC34AF33DC349F300010ADF030E62
:103240000301476F060E466F160E486F40C34AF3E0
:103250003FC349F30001FDDE030E0301476F060E75
:10326000466F180E486F42C34AF341C349F3000149
:10327000F0DE030E0301476F060E466F1A0E486F0D
:1032800044C34AF343C349F30001E3DE030E0301E1
:10329000476F060E466F1C0E486F45C349F3000189
:1032A0003ADD060E0301466F1A0E476F280E486F6F
:1032B000030E4A6F060E496F000166DC030105919B
:1032C00001B0058105B102D00001EBD70001120069
:1032D000030105912B6B750E2A6F2C6B030E2D6F5E
:1032E0002F6BFA0E2E6F316B306F336B640E326FB3
:1032F000010E356F2C0E346F366B042D12D0040E78
:103300002C6F020E2D6F2F6B320E2E6F316B306FC4
:10331000336B420E326F356BC80E346F190E366F39
:1033200003D00451020800E1030E0401076F060EEA
:10333000066F096B240E086F000149EC11F0030EB3
:103340000301476F060E466F486B2BC34AF32AC32F
:1033500049F300017EDE030E0301476F060E466F40
:10336000020E486F2CC349F30001D5DC030E0301A4
:10337000476F060E466F030E486F2DC349F30001D9
:10338000CADC030E0301476F060E466F0E0E486F30
:103390002FC34AF32EC349F300015BDE030E030182
:1033A000476F060E466F100E486F31C34AF330C3A5
:1033B00049F300014EDE030E0301476F060E466F10
:1033C000120E486F33C34AF332C349F3000141DEA2
:1033D000030E0301476F060E466F140E486F35C388
:1033E0004AF334C349F3000134DE030E0301476F8F
:1033F000060E466F160E486F36C349F300018BDC8C
:10340000060E0301466F240E476F486F030E4A6F86
:10341000060E496F0001C4EC15F00301059101B0DF
:10342000058105B102D00001EBD7000112000301B4
:1034300005912F6B2E6B316B440E306F356B346BF7
:10344000336B326B030E366F100E376F386B030E13
:103450000401076F060E066F096B280E086F000146
:1034600049EC11F00301042D05D0050E366F010E55
:10347000386F03D00451020800E1030E476F060EB7
:10348000466F486B2FC34AF32EC349F30001E1DDB9
:10349000030E0301476F060E466F020E486F31C3DD
:1034A0004AF330C349F30001D4DD030E0301476F33
:1034B000060E466F040E486F35C34CF334C34BF30E
:1034C00033C34AF332C349F300019DDD030E030108
:1034D000476F060E466F0A0E486F36C349F3000168
:1034E0001ADC030E0301476F060E466F0B0E486F82
:1034F00037C349F300010FDC030E0301476F060ECB
:10350000466F0E0E486F38C349F3000104DC060E07
:103510000301466F230E476F280E486F030E4A6F54
:10352000060E496F0001C4EC15F00301059101B0CE
:10353000058105B102D00001EAD7000112000301A4
:1035400005912B6B750E2A6F2C6B030E2D6F2F6B55
:10355000FA0E2E6F316B306F336B640E326F010ECB
:10356000356F2C0E346F366B042D12D0040E2C6F79
:10357000020E2D6F2F6B320E2E6F316B306F336B4F
:10358000420E326F356BC80E346F190E366F03D092
:103590000451020800E1030E0401076F060E066FD6
:1035A000096B240E086F000149EC11F0030E0301B2
:1035B000476F060E466F486B2BC34AF32AC349F385
:1035C000000147DD030E0301476F060E466F020E32
:1035D000486F2CC349F300018BEC16F0030E030176
:1035E000476F060E466F030E486F2DC349F3000167
:1035F0008BEC16F0030E0301476F060E466F0E0E9E
:10360000486F2FC34AF32EC349F3000122DD030E96
:103610000301476F060E466F100E486F31C34AF321
:1036200030C349F3000115DD030E0301476F060E99
:10363000466F120E486F33C34AF332C349F3000199
:1036400008DD030E0301476F060E466F140E486F28
:1036500035C34AF334C349F30001FBDC030E030115
:10366000476F060E466F160E486F36C349F30001CA
:103670008BEC16F0060E0301466F240E476F486F61
:10368000030E4A6F060E496F0001C4EC15F00301EA
:10369000059101B0058105B102D00001EBD7000111
:1036A0001200030105912F6B2E6B316B440E306FAE
:1036B000030E326F100E336F346B030E0401076F6D
:1036C000060E066F096B280E086F000149EC11F019
:1036D0000301042D05D0050E326F010E346F03D0A7
:1036E0000451020800E1030E476F060E466F486B57
:1036F0002FC34AF32EC349F30001ABDC030E0301D1
:10370000476F060E466F020E486F31C34AF330C34F
:1037100049F300019EDC030E0301476F060E466F5E
:103720000A0E486F32C349F300018BEC16F0030E0A
:103730000301476F060E466F0B0E486F33C349F304
:1037400000018BEC16F0030E0301476F060E466F67
:103750000E0E486F34C349F300018BEC16F0060ED1
:103760000301466F230E476F280E486F030E4A6F02
:10377000060E496F0001C4EC15F00301059101B07C
:10378000058105B102D00001EAD700011200020153
:10379000FF51010A000107E0030A0BE0010A14E0EF
:1037A000070A1DE027D0010E0301046F000165DC4C
:1037B00021D0010E0301046F00018ADD010E030117
:1037C000046F000134DE16D0010E0301046F000106
:1037D000B6DE010E0301046F000163DF0BD0010EA2
:1037E0000301046F0001ABDE010E0301046F000151
:1037F00058DF00D0CDEF1DF003010491030E0C6FD4
:10380000E80E0B6F0E6B010E0D6F106B0F6F0C6FD0
:10381000F40E0B6F030E0401076F050E066F096BA4
:10382000060E086F000149EC11F0030E0301476F0B
:10383000050E466F486B0CC34AF30BC349F30001F6
:1038400008DC030E0301476F050E466F020E486F3A
:103850000EC34AF30DC349F3000129EC18F0030E1F
:103860000301476F050E466F040E486F10C34AF3FD
:103870000FC349F3000129EC18F0060E0301466F4F
:10388000080E476F060E486F030E4A6F050E496F0C
:103890000001C4EC15F00301049101B0048104B1EE
:1038A00002D00001EAD7000121EF1DF003010491CD
:1038B000030E0C6FE80E0B6F0E6B010E0D6F106B8D
:1038C0000F6F030E0401076F050E066F096B060EDE
:1038D000086F000149EC11F0010E03010C6FF40EAA
:1038E0000B6F030E476F050E466F486B0CC34AF310
:1038F0000BC349F3000129EC18F0030E0301476FD5
:10390000050E466F020E486F0EC34AF30DC349F30E
:10391000000129EC18F0030E0301476F050E466FF6
:10392000040E486F10C34AF30FC349F3000129EC9A
:1039300018F0060E0301466F080E476F060E486F1B
:10394000030E4A6F050E496F0001C4EC15F0030128
:10395000049101B0048104B102D00001EAD7000152
:1039600021EF1DF003010491030E0C6FE80E0B6FA5
:103970000E6B010E0D6F106B0F6F030E0401076FBE
:10398000050E066F096B060E086F000149EC11F079
:10399000010E03010C6FF40E0B6F030E476F050E43
:1039A000466F486B0CC34AF30BC349F3000129EC83
:1039B00018F0030E0301476F050E466F020E486FA5
:1039C0000EC34AF30DC349F3000129EC18F0030EAE
:1039D0000301476F050E466F040E486F10C34AF38C
:1039E0000FC349F3000129EC18F0060E0301466FDE
:1039F000080E476F060E486F030E4A6F050E496F9B
:103A00000001C4EC15F00301049101B0048104B17C
:103A100002D00001EAD70001120003010351010A9C
:103A2000000107E0030A07E0010A07E0070A07E0D0
:103A300008D0E2D606D03AD704D094DF02D092DF85
:103A400000D0120003010491030E0401076F050E5C
:103A5000066F096B020E086F000149EC11F0030EAE
:103A60000301476F050E466F486B080E496F000152
:103A70008BEC16F0030E0301476F050E466F010E27
:103A8000486F040E496F00018BEC16F0060E03011F
:103A9000466F110E476F020E486F030E4A6F050EF8
:103AA000496F0001C4EC15F00301049101B00481D9
:103AB00004B102D00001EAD70001AEEF1DF003010E
:103AC0000491030E0401076F050E066F096B020EC9
:103AD000086F000149EC11F0030E0301476F050E5A
:103AE000466F486B080E496F00018BEC16F0030E11
:103AF0000301476F050E466F010E486F040E496FB4
:103B000000018BEC16F0060E0301466F110E476F95
:103B1000020E486F030E4A6F050E496F0001C4EC98
:103B200015F00301049101B0048104B102D0000139
:103B3000EAD70001120003010351010A000107E066
:103B4000030A06E0010A06E0070A06E007D006D0ED
:103B500079D704D0B4DF02D0B2DF00D01200010E5A
:103B60000401076F540E066F096B640E086F0001A5
:103B700049EC11F012000201FE6B0001D1EC13F0D0
:103B8000E8EF13F08DEC15F001C0FEF2FEC2FFF27B
:103B900080EF17F0FEC2FFF2FAD5FEC203F33DDF5D
:103BA000FEC203F3C8DFDBDFAE509D8A010E0101C8
:103BB000B96F00016BEF37F003012E6B2F6B306B89
:103BC000200E316F306B2F6B2E6B2C512D1103E1BA
:103BD000000E016E39D03051302B2C25E96E000ECD
:103BE0002D21EA6EEFCF31F331512F0803E231512D
:103BF000390806E23151400825E23151460822E3F6
:103C000031512F080CE23151390809E32E39326F56
:103C1000F00E3217300E315D32252E6F09D02E395D
:103C2000326FF00E3217410E315D0A0F32252E6FC2
:103C30003051302B2C25E96E000E2D21EA6EEFCF8E
:103C400031F3D2D72EC301F0000171EF1EF0030152
:103C50002D6B2E6B010E2D6F2C512D5D14E22D510D
:103C60002A25E96E000E2B21EA6EEF502A08D8B4FF
:103C70000AD02D512A25E96E000E2B21EA6EEF5055
:103C80002E1B2D2BE9D72EC301F000017CEF1EF077
:103C900003012591266B276B286B296B266B265118
:103CA00063080EE326512325E96E000E2421EA6EF7
:103CB000EF502A0803E126C327F302D0262BEFD7C3
:103CC000275323E0010E27252325016E000E242112
:103CD000036E01C02AF32B6F2D6F01C02CF300017E
:103CE0006BD701C028F324C32BF323C32AF3640E3C
:103CF00003012C6F0001ABD701C029F30301295147
:103D0000285D02E1258101D02591000E25B1010E2B
:103D1000016E000193EF1EF003012291246BDF0E70
:103D2000236F0001B5D70301229101B02281000E5B
:103D300022B1010E016E0001120003012291000167
:103D4000E251520809E1E3514D0806E1E45143080C
:103D500003E1030122810001000E030122B1010EE3
:103D6000016E000117EF1FF00301226B236B226B22
:103D70002251630816E3036A2251DF0FE96E000E39
:103D80000320EA6EEF502C080AE1036A2351430F27
:103D9000E96E010E0320EA6E22C3EFFF232B222BD4
:103DA000E7D700011200200E03014D6F036A4B514B
:103DB000430FE96E010E0320EA6E4C51EF24036AB3
:103DC000DF0FE96E000E0320EA6EEFCF4DF34DC317
:103DD00001F00001120003012591200E266F010E53
:103DE0004B6F4C6F0001DFDF01C026F3030125910B
:103DF0002651410801E12581000E25B1010E016E19
:103E0000000112000301229122910101B85303E144
:103E1000030122810101000E030122B1010E016E96
:103E200000011EEF1FF078DF015215E086D7015226
:103E300010E09ADFD0DF01520AE0E4D7015202E03D
:103E40007E8204D00101B8077E92000101D07E92EB
:103E500001D07E9201D07E921200000E7EB2010E41
:103E6000016E120003014C914D6B4C914B512F0888
:103E700004E24B51390801E34C814CA103D0300ED0
:103E80004B5D4D6F4DC301F0000156EF1FF0200E4A
:103E90000301496F4A6B47C34BF348C34CF300011E
:103EA00082DF01C049F349C34BF3DCD701C04AF3B9
:103EB00003014AC301F00001120003012C6B2BC364
:103EC00047F32AC348F30001E2DF01500A0DF3CFA4
:103ED0002DF30301010E2A252E6F2BC347F3486FE4
:103EE0000001D5DF015003012D252C6F2CC301F0FB
:103EF000000112000301296B28C32AF3080E2B6F5F
:103F00000001DBDF01C029F3030129C301F0000137
:103F100012000301276B050E286F0001EBDF01C0C3
:103F200027F3030127C301F0000161EF23F0030130
:103F3000276B030E286F0001DDDF01C027F30301AB
:103F400027C301F0000173EF23F00301276B010E7B
:103F5000286F0001CFDF01C027F3030127C301F061
:103F6000000185EF23F00301296B28C32AF32B6B93
:103F70000001A3DF01C029F3030129C301F00001FF
:103F800012000301276B010E286F0001ECDF01C056
:103F900027F3030127C301F0000197EF23F003018A
:103FA000276B030E286F0001DEDF01C027F303013A
:103FB00027C301F00001A9EF23F00301276B050ED1
:103FC000286F0001D0DF01C027F3030127C301F0F0
:103FD0000001BBEF23F00301276B080E286F0001DF
:103FE000C2DF01C027F3030127C301F00001CDEFB9
:103FF00023F00301746B756B010E766FDA6AD96A70
:10400000030E796F6C0E786F030EEA6E700EE96E18
:1040100079C3E2FF78C3E1FF76C377F3D890E55028
:10402000EE02F3507423F4507523772FF7D774C33F
:10403000DEFF75C374F3756BD8B0752B782BD8B4CD
:10404000792B762B76510508DFE100011200B60EC0
:10405000006E036A026A016A03014751481149115F
:104060004A1102E1006A0DD0D89001BE09D047374D
:10407000483749374A37033602360136002EF4D71F
:10408000019E00010FEF21F00301396B386B376B94
:10409000366B3D6B3C6B3B6B3A6B3E6B3F6B406BE7
:1040A000416B426B466B456B446B436B036A335108
:1040B000430FE96E010E0320EA6EEFCF3EF3355158
:1040C0003425416F3F6B35513F5D13E23F5134253D
:1040D000406F40513E25036ADF0FE96E000E03205A
:1040E000EA6EEF502E0803E140C341F302D03F2BAC
:1040F000EAD73F6B35513F5DD8B087D03F5134256B
:10410000406F4051415D050FF60F54E20A0F000168
:1041100034EF21F0050E0301466FF50E456FE10EF9
:10412000446F436B47D00301466B980E456F960E64
:10413000446F800E436F3ED00301466B0F0E456FF8
:10414000420E446F400E436F35D00301466B010EA3
:10415000456F860E446FA00E436F2CD00301466B53
:10416000456B446B436B26D00301466B456B270EB2
:10417000446F100E436F1ED00301466B456B030E58
:10418000446FE80E436F16D00301466B456B446BDA
:10419000640E436F0FD00301466B456B446B0A0EF0
:1041A000436F08D00301466B456B446B010E436FB0
:1041B00001D0030133C347F340C348F3000167DE76
:1041C00001C042F303014A6B496B486B42C347F39A
:1041D0004AC36FF349C36EF348C36DF342C36CF334
:1041E00046C373F345C372F344C371F343C370F31F
:1041F0000001FFDE005003013A2701503B2302502B
:104200003C2303503D233F2B75D73DC34AF33CC3AA
:1042100049F33BC348F33AC347F3000118D703C03F
:10422000ABF302C0AAF301C0A9F300C0A8F3AC0E1F
:104230000301AF6FC50EAE6F270EAD6F6E0EAC6F84
:10424000000176EC07F003C039F302C038F301C077
:1042500037F300C036F336C300F037C301F038C37C
:1042600002F039C303F01200E824F76AF736830F2F
:10427000F66E420EF7220A00F550FA6E0800F5506D
:10428000F96EA44196418841784168415C414A41B8
:1042900038412641144103012F6B2E6B2D6B2C6B83
:1042A000306B010E2B25036A430FE96E010E0320CC
:1042B000EA6EEFCF31F3036A2B51430FE96E010E23
:1042C0000320EA6EEF50315DFF0F306F2BC333F3E5
:1042D000010E346F30C335F30001D6DE03C02FF377
:1042E00002C02EF301C02DF300C02CF32CC300F04C
:1042F0002DC301F02EC302F02FC303F012000301FF
:104300002A6B296B286B276B060E2B6F0001C3DF0E
:1043100003C02AF302C029F301C028F300C027F329
:1043200027C300F028C301F029C302F02AC303F019
:10433000DFEF23F003012A6B296B286B276B070E35
:104340002B6F0001A8DF03C02AF302C029F301C0CC
:1043500028F300C027F327C300F028C301F029C3C6
:1043600002F02AC303F0F7EF23F00301AC51D8B4F5
:10437000A5D0B86FB051D8B4A1D0B85F05E37F0E17
:10438000B827D8B09BD006D0810EB85FD8A096D001
:10439000D8B494D0B8C300F0016A026A036AB76B5C
:1043A000ADC3B6F3B68FAEC3B5F3AFC3B4F3190E56
:1043B000B86FB351B45F0DE2010EB55F0AE2B65FAC
:1043C00008E2B75F06E2B72BB62BB52BB351B42783
:1043D00028D0B251B55F12E2010EB65F0FE2B75FAF
:1043E0000DE2B72BB62BB251B527B351B42719E361
:1043F000B52B17E1B62B15E1B72B13D0B1518009BE
:10440000B65F0EE2010EB75F0BE2B72BB151800928
:10441000B627B251B527E9E3B62BE7E1B72BE5D7CD
:104420000380B82F01D00BD0D890B437B537B6374A
:10443000B737D890033602360136B937BAD7B9A1A3
:1044400006D0D890013202320332B93302D00006CE
:1044500035E0B9BF1ED0D890B437B537B637B737C7
:10446000B351B45F07E2010EB55F04E2B65F02E24A
:10447000B75F1AE3B251B55F05E2010EB65F02E223
:10448000B75F12E3B1518009B65F03E2010EB75F77
:104490000BE3032A09E1022A07E1012A05E1002AC8
:1044A0000DE0013202320332ADC3B8F3B151B81B93
:1044B000B8AF02D0018E06D0019E04D0006A016A16
:1044C000026A036A0001120003012A6B296B286B40
:1044D000276B2E6B2D6B2C6B2B6B326B316B306B18
:1044E0002F6B020E336F010E346F020E356F000119
:1044F000CBDD03C02EF302C02DF301C02CF300C0AE
:104500002BF3020E0301336F030E346F080E356F69
:104510000001BADD03C032F302C031F301C030F351
:1045200000C02FF332C3AFF331C3AEF330C3ADF3EA
:104530002FC3ACF30301B36BB26B700EB16F840E7B
:10454000B06F000112DFD8922EC3AFF32DC3AEF3CC
:104550002CC3ADF32BC3ACF303C0B3F302C0B2F36F
:1045600001C0B1F300C0B0F33AEC06F003C02AF387
:1045700002C029F301C028F300C027F3030E030192
:104580004B6F010E4C6F00010EDC01504E0801E133
:1045900005D003012851800A286F000127C300F0CD
:1045A00028C301F029C302F02AC303F00FEF24F05F
:1045B00003012A6B296B286B276B2E6B2D6B2C6BE1
:1045C0002B6B326B316B306B2F6B040E336F010E24
:1045D000346F030E356F000157DD03C02EF302C0A8
:1045E0002DF301C02CF300C02BF3040E0301336F35
:1045F000346F080E356F000147DD03C032F302C08F
:1046000031F301C030F300C02FF332C3AFF331C335
:10461000AEF330C3ADF32FC3ACF30301B36BB26B96
:10462000700EB16F840EB06F00019FDED8922EC362
:10463000AFF32DC3AEF32CC3ADF32BC3ACF303C068
:10464000B3F302C0B2F301C0B1F300C0B0F33AEC6F
:1046500006F003C02AF302C029F301C028F300C00A
:1046600027F3050E03014B6F010E4C6F0001D3ECD5
:104670001EF00150450801E105D003012851800AD0
:10468000286F000127C300F028C301F029C302F0FE
:104690002AC303F027EF24F0030124910001EBEC7F
:1046A0001EF00301249101B0248124A1DDD022C396
:1046B00001F023C303F022C325F323C326F3000133
:1046C00028D426C3EAFF25C3E9FF01C0EFFF010E8E
:1046D00003012225016E000E2321036E01C025F384
:1046E000266F000124D426C3EAFF25C3E9FF01C0D9
:1046F000EFFF020E03012225016E000E2321036E3F
:1047000001C025F3266F000120D426C3EAFF25C38C
:10471000E9FF01C0EFFF030E03012225016E000E29
:104720002321036E01C025F3266F00012AD426C37E
:10473000EAFF25C3E9FF01C0EFFF040E03012225B4
:10474000016E000E2321036E01C025F3266F0001C8
:1047500026D426C3EAFF25C3E9FF01C0EFFF050EFB
:1047600003012225016E000E2321036E01C025F3F3
:10477000266F000122D426C3EAFF25C3E9FF01C04A
:10478000EFFF060E03012225016E000E2321036EAA
:1047900001C025F3266F00011ED426C3EAFF25C3FE
:1047A000E9FF01C0EFFF0F0E03012225016E000E8D
:1047B0002321036E01C025F3266F0001A0D526C377
:1047C000EAFF25C3E9FF00C0EFFF01C0ECFF02C014
:1047D000ECFF03C0ECFF130E03012225016E000E57
:1047E0002321036E01C025F3266F0001A3D526C344
:1047F000EAFF25C3E9FF00C0EFFF01C0ECFF02C0E4
:10480000ECFF03C0ECFF070E03012225016E000E32
:104810002321036E01C025F3266F000155D626C360
:10482000EAFF25C3E9FF00C0EFFF01C0ECFF02C0B3
:10483000ECFF03C0ECFF0B0E03012225016E000EFE
:104840002321036E01C025F3266F0001B1D626C3D4
:10485000EAFF25C3E9FF00C0EFFF01C0ECFF02C083
:10486000ECFF03C0ECFF03010001CAEF36F00301C7
:10487000266BF2CF27F3F29EAA6A0A0EA96EA69CB7
:10488000A69EA680A85027BFF28E266F26C301F0F1
:10489000000151EF24F00301246B040E256F000189
:1048A000E6D701C024F303012451000805E2245196
:1048B000F00802E324C325F325C301F0000191EFC2
:1048C00029F0030126912691060E2425E96E000E9B
:1048D0002521EA6EEF5201E12681000E26B1010E7C
:1048E000016E0001A2EF29F003012F6B6F6B6E6B5D
:1048F0006D6B2EC36CF3736B726B716B200E706FEC
:104900000001F9EC1FF000C02FF3DD0E03012F258D
:10491000306F010E316FD8B0312B31C3EAFF30C395
:10492000E9FF2DC3E2FF2CC3E1FF200E016EE6CFAD
:10493000EEFF012EFCD7000136EF29F004011D6BBC
:104940001C6B216B206B1F6B1E6B1D6B1C6B1D5337
:1049500029E11C51030826E3040E236F1E0E226F6B
:104960001C512225016E1D512321036E0150E96E59
:1049700003C0EAFF1A511C25246F1B511D21256F0E
:10498000F2CF26F4F29E25C4AAFF24C4A9FFA69C58
:10499000A69EA680A85026BFF28EEF6E1C2BD8B420
:1049A0001D2BD5D71EC400F01FC401F020C402F097
:1049B00021C403F0000112000301776B766B756B65
:1049C000746B04011B6B1A6B0001B8DF03C077F333
:1049D00002C076F301C075F300C074F374C300F035
:1049E00075C301F076C302F077C303F0FFEF24F044
:1049F0000301736B726B716B706B0001DDD703C0C9
:104A000073F302C072F301C071F300C070F370C39E
:104A100000F071C301F072C302F073C303F012001F
:104A200003013D6B3C6B3B6B3A6B0001A2EC10F059
:104A3000F29CF29EF2BEFDD76BEC10F0C950020E54
:104A4000C96EC730FEE332C33EF3C95032C3C9FF5B
:104A5000C730FEE331C33EF3C95031C3C9FFC7308D
:104A6000FEE330C33EF3C95030C3C9FFC730FEE395
:104A700003013D6B3C6B3B6B3A6B3D51395D22E36F
:104A80000BE13C51385D1EE307E13B51375D1AE312
:104A900003E136513A5D16E234513A25E96E35515B
:104AA0003B21EA6EEFCF3EF3C9503EC3C9FFC7308A
:104AB000FEE3010E3A27D8B03B2BD8B43C2BD8B438
:104AC0003D2BDBD700016EEC10F0C00EF21212008D
:104AD0002FC333F32EC332F32DC331F32CC330F382
:104AE000010E0301356FDD0E346F396B386B010E2B
:104AF000376F366B000194DF58EF29F0000E01018B
:104B0000DBB1010E016E000165EF26F004011C6BA4
:104B1000F2CF1DF4F29E030EAA6E020EA96EA69CA1
:104B2000A69EA680A8501DBFF28E1C6F1CC401F06B
:104B300000019FEF25F004011B6B0001E7D701C0C6
:104B40001BF404011BC401F00001120004011A6BE4
:104B50000001F1DF01C01AF419C41EF418C41DF4D9
:104B600017C41CF416C41BF41AC41FF494EC11F0FF
:104B70005BEF26F004011A51016A195D03E219C4C2
:104B800000F00CD0006A080E1B6F193700361A515E
:104B9000005CD8B0006E01361B2FF7D70001120061
:104BA0000401166B0001C7DF01C016F4010E0401F9
:104BB0001625186F196F320E1A6F0001DBDF00C067
:104BC00016F416C417F4E2EC11F05CEF26F00401C1
:104BD000186BF2CF19F4F29E030EAA6EA96AA69C76
:104BE000A69EA680A85019BFF28E186F18C401F0B7
:104BF0000001FFEF25F00401176B0001E8D701C0A9
:104C000017F4040117C401F0000112000401166B2F
:104C10000001F1DF01C016F404011651320807E06B
:104C2000162B16C417F40001C5EC11F004010001A5
:104C30005DEF26F00401176BF2CF18F4F29E030E1D
:104C4000AA6E010EA96EA69CA69EA680A85018BFAB
:104C5000F28E176F17C401F0000134EF26F0040143
:104C6000169116910001E6D7012C03D0040116819C
:104C70000001000E040116B1010E016E00011200C8
:104C8000010E0401166F0001E6EC11F050EF26F062
:104C9000E6DF015205E1AFDF0150320801E1F0D754
:104CA0005EEF26F015C419F414C418F413C417F4F5
:104CB00012C416F44BD774D7A9D7EAD71200010152
:104CC000DB91000171EF26F019D701520AE02FC3E2
:104CD00015F42EC314F42DC313F42CC312F4E2DF25
:104CE000EED761EF29F0D8B204D0040EEA6E2A0E96
:104CF000E96E006A016A026A036A04012A6B2B6B7F
:104D00002C6B2D6B29512811271126112CE0200E18
:104D10002E6FD89022372337243725372A372B3761
:104D20002C372D3729512D5D08E128512C5D05E1E7
:104D300027512B5D02E126512A5D0FE326512A5FA0
:104D40002751D8A0273D2B5F2851D8A0283D2C5FA4
:104D50002951D8A0293D2D5FD88000360136023672
:104D600003362E2FD6D72AC4EFFF2BC4ECFF2CC45A
:104D7000ECFF2DC4ECFF000112000401196B186B4D
:104D8000176B166B12510E251A6F13510F211B6FE3
:104D9000145110211C6F155111211D6FD882040E62
:104DA000EA6E1E0EE96E1DC425F41CC424F41BC457
:104DB00023F41AC422F4296B1F0E286F276B266B6D
:104DC000000191DF21C419F420C418F41FC417F4A2
:104DD0001EC416F416C400F017C401F018C402F083
:104DE00019C403F0120003013091346B336B326B42
:104DF000316B2FC311F42EC310F42DC30FF42CC349
:104E00000EF40401156B146B010E136F126B00018D
:104E1000B4DF03C034F302C033F301C032F300C087
:104E200031F30301309131C335F332C336F3376BBD
:104E3000386B355307E1365305E1375303E13853F7
:104E400001E13081000E30B1010E016E00016AEF08
:104E500029F023EC12F06DEF29F00301336B326B74
:104E6000316B306B2FC311F42EC310F42DC30FF42C
:104E70002CC30EF40401156B146B010E136F126B2F
:104E800000017BDF03C033F302C032F301C031F312
:104E900000C030F333C337F332C336F331C335F3D5
:104EA00030C334F3B1EC10F076EF29F004010E6B4F
:104EB0000001D5DE015204E104010E6B05D00001B2
:104EC0003ADE01C00EF404010EC401F0000112002C
:104ED0000401156B146B196B186B176B166B13C4ED
:104EE00022F4000182EC11F002C015F401C014F4A8
:104EF00015C41BF414C41AF421DD03C019F402C054
:104F000018F401C017F400C016F416C400F017C45A
:104F100001F018C402F019C403F098EF27F004015F
:104F2000126B116B106B0F6B0EC413F40001D0D712
:104F300003C012F402C011F401C010F400C00FF459
:104F40000FC400F010C401F011C402F012C403F049
:104F5000120004011D6B1BC41DF41DC401F00001EF
:104F600012000401166B176B189111C41CF410C4C5
:104F70001BF40FC41AF40EC419F40001EADF01C0D7
:104F800016F415C41CF414C41BF413C41AF412C48C
:104F900019F4DFDF01C017F4040118911751165DF1
:104FA00001E11881000E18B1010E016E000112001E
:104FB0000401036B026B016B006B076B066B056BE7
:104FC000046B086B096B0A6B0B6B0C6B0D6B0001B0
:104FD0006DDF01C00AF40FDE01C00BF40AC40EF449
:104FE0009EDF03C003F402C002F401C001F400C05C
:104FF00000F437C311F436C310F435C30FF434C3CF
:105000000EF40401156B010E146F136B126B00018B
:10501000B4DE03C007F402C006F401C005F400C00A
:1050200004F437C311F436C310F435C30FF434C39A
:105030000EF403C415F402C414F401C413F400C440
:1050400012F48FDF015214E004010C51040DF350EF
:10505000036A380FE96E030E0320EA6E04C4EFFF03
:1050600005C4ECFF06C4ECFF07C4ECFF0C2B0001E9
:105070000401086B0B51085D4EE208510A250F6FC1
:10508000196F320E1A6F000175DD00C009F409C4F2
:105090000EF445DF03C003F402C002F401C001F4C2
:1050A00000C000F437C311F436C310F435C30FF455
:1050B00034C30EF403C415F402C414F401C413F48D
:1050C00000C412F44EDF015223E104010451005DDB
:1050D0000CE10551015D09E10651025D06E1075150
:1050E000035DD8A402D0000113D00C51040DF3507D
:1050F000036A380FE96E030E0320EA6E00C4EFFF67
:1051000001C4ECFF02C4ECFF03C4ECFF0C2B000154
:105110000401082BAFD7000105EC12F00CC40DF40C
:1051200004010C6B0D510C5D16E20C51040DF35093
:10513000036A380FE96E030E0320EA6EEFCF12F414
:10514000ECCF13F4ECCF14F4ECCF15F40001AADD8E
:1051500004010C2BE7D70001D4EF28F00301336BD7
:10516000326B316B306B2FC311F42EC310F42DC38F
:105170000FF42CC30EF40401156B146B010E136FA6
:10518000126B0001FADD03C033F302C032F301C039
:1051900031F300C030F333C337F332C336F331C3D6
:1051A00035F330C334F304D77FEF29F0010E030148
:1051B000356F00012BEC11F016EF29F0030130914F
:1051C000346B336B326B316B000112DC03C034F390
:1051D00002C033F301C032F300C031F334C311F421
:1051E00033C310F432C30FF431C30EF42FC315F4DC
:1051F0002EC314F42DC313F42CC312F4BEDD03C06C
:1052000034F302C033F301C032F300C031F30301C1
:105210003091315307E1325305E1335303E1345305
:1052200001E1308130A103D00001C0D7030134C3B4
:1052300038F333C337F332C336F331C335F30001E8
:1052400021EC11F089EF29F003012691276B2B6BDC
:105250002A6B296B286BDCC127F325C32DF324C3EC
:105260002CF327C32EF3000174EF24F00101DC2B93
:10527000030126910101DC51080803E103012681A5
:105280000101030126A146D00001F8EC24F003C07F
:105290002BF302C02AF301C029F300C028F32BC36B
:1052A0002FF32AC32EF329C32DF328C32CF310D4D4
:1052B0002BC32FF32AC32EF329C32DF328C32CF3BA
:1052C00003D52BC32FF32AC32EF329C32DF328C3F1
:1052D0002CF389D5015213E0BCD52BC32FF32AC37D
:1052E0002EF329C32DF328C32CF3B7D52BC32FF3EB
:1052F0002AC32EF329C32DF328C32CF32FD7010182
:10530000DC6B03012F6B2E6B010E2D6F2C6B0001DC
:1053100055D70301000112000201DD2B00014BEF04
:1053200024F001500201DD5D03E10101DB83020194
:105330000101DBA312D023C325F322C324F3000110
:1053400061EF24F0015209E023C325F322C324F3C3
:105350007BDF0201DD6B0101DB930001D2EF36F050
:1053600003014191456B446B436B426B40C3AFF308
:105370003FC3AEF33EC3ADF33DC3ACF3B36BB26B0F
:10538000200EB16F820EB06F000153EC08F004E301
:105390000301418132D000010301456B446B200EB3
:1053A000436F830E426FD8923CC3AFF33BC3AEF35F
:1053B0003AC3ADF339C3ACF345C3B3F344C3B2F35B
:1053C00043C3B1F342C3B0F300013AEC06F040C36B
:1053D000AFF33FC3AEF33EC3ADF33DC3ACF303C085
:1053E000B3F302C0B2F301C0B1F300C0B0F353ECA9
:1053F00008F003014191D8B04181000E41B1010E86
:10540000016E0001E3EF2AF00301476B466B456B29
:10541000446B4B6B4A6B496B486B4C6B4D6B130E7B
:105420004D6F4C6B43514C5D37E24D51040DF350C1
:10543000036A1B0FE96E000E0320EA6EEFCFB0F394
:10544000ECCF01F0ECCF02F0ECCF03F0EACF4FF35A
:10545000E9CF4EF3D89247C3AFF346C3AEF345C38B
:10546000ADF344C3ACF303C0B3F302C0B2F301C065
:10547000B1F300013AEC06F04FC3EAFF4EC3E9FF77
:1054800003C047F302C046F301C045F300C044F334
:1054900003014D074C2BC6D7A96B43C3A8F30001EA
:1054A0001FEC06F047C3AFF346C3AEF345C3ADF3FD
:1054B00044C3ACF303C0B3F302C0B2F301C0B1F311
:1054C00000C0B0F3B5EC21F003C04BF302C04AF3C7
:1054D00001C049F300C048F348C300F049C301F0DC
:1054E0004AC302F04BC303F0120003013F6B406B51
:1054F000EA6A1B0EE96EE26A1F0EE16E4C0E016E47
:10550000E6CFEEFF012EFCD73CC36AF03BC369F047
:105510003AC368F039C367F0010E416F0001DFEC58
:1055200013F001C03FF3040E03013D25016E000E90
:105530003E21036E01C041F3426F3FC343F30001BC
:1055400063DF42C3EAFF41C3E9FF00C0EFFF01C0D0
:10555000ECFF02C0ECFF03C0ECFF0A0E0301416F39
:105560000001DFEC13F001C040F33DC301F03EC386
:1055700003F03DC341F33EC342F340C343F3000194
:1055800043DF42C3EAFF41C3E9FF00C0EFFF01C0B0
:10559000ECFF02C0ECFF03C0ECFFFEEF2AF00301BA
:1055A00038919AC03CF399C03BF398C03AF397C046
:1055B00039F337C340F336C33FF335C33EF334C347
:1055C0003DF30001CDD60301389101B0388138A1F7
:1055D00008D037C39AF036C399F035C398F034C376
:1055E00097F09AC03CF399C03BF398C03AF397C048
:1055F00039F33E6B8F0E3D6F000177D782C0AFF35A
:1056000081C0AEF380C0ADF37FC0ACF396C0B3F3FE
:1056100095C0B2F394C0B1F393C0B0F353EC08F06B
:1056200008E396C082F095C081F094C080F093C0EA
:105630007FF086C0AFF385C0AEF384C0ADF383C006
:10564000ACF392C0B3F391C0B2F390C0B1F38FC08A
:10565000B0F353EC08F008E392C086F091C085F0F7
:1056600090C084F08FC083F097C000F098C001F024
:1056700099C002F09AC003F0F4EF35F00301366BE5
:10568000F2CF37F3F29EAA6A0D0EA96EA69CA69ED3
:10569000A680A85037BFF28E366F36C301F00001E6
:1056A00056EF2BF00301356B0001E8D701C035F34D
:1056B000030135C301F00001AFEF2BF00301396B9B
:1056C000386B376B366B3D6B3C6B3B6B3A6B3553D2
:1056D00006E13D6B3C6B3B6B7F0E3A6F2ED035C3C2
:1056E00041F30001DFEC13F00301A96B01C0A8F343
:1056F00000011FEC06F003C039F302C038F301C00B
:1057000037F300C036F30301AF6BAE6BAD6B7F0EAA
:10571000AC6F39C3B3F338C3B2F337C3B1F336C395
:10572000B0F30001B5EC21F003C03DF302C03CF33F
:1057300001C03BF300C03AF303013AC300F03BC39E
:1057400001F03CC302F03DC303F00001120003016D
:10575000306B346B336B326B316B0001A3D701C0FC
:1057600030F330C335F3AADF03C034F302C033F3A0
:1057700001C032F300C031F331C300F032C301F095
:1057800033C302F034C303F0FEEF35F00301366B90
:10579000F2CF37F3F29EAA6A0E0EA96EA69CA69EC1
:1057A000A680A85037BFF28E366F36C301F00001D5
:1057B000DEEF2BF00301356B0001E8D701C035F3B4
:1057C000030135C301F00001EEEF2BF00301306B54
:1057D000346B336B326B316B0001ECD701C030F3AB
:1057E00030C335F36BDF03C034F302C033F301C0C1
:1057F00032F300C031F331C300F032C301F033C3E0
:1058000002F034C303F008EF36F003017D6B7C6BCC
:105810007B6B7A6B79C3ABF378C3AAF377C3A9F335
:1058200076C3A8F3350EAF6FFA0EAE6F0E0EAD6FE6
:10583000790EAC6F000176EC07F003C07DF302C077
:105840007CF301C07BF300C07AF37AC300F07BC322
:1058500001F07CC302F07DC303F012008E0E006ED7
:105860000301A451005EA5C302F0A6C301F0028E9D
:10587000005209E0D890025202E1015204E00232E3
:105880000132002EF7D7A5AF05D0011E021E012A56
:10589000D8B4022A0001120003018D6B8C6B8B6B54
:1058A0007F0E8A6F7E0E946F800E956F966B976B4E
:1058B0007A0E986F2A0E996FAA0E9A6FA30E9B6F9D
:1058C000750E9C6FB60E9D6F090E9E6F9C0E9F6F9E
:1058D0006F0EA06F4F0EA16FB40EA26F0B0EA36FD1
:1058E00081C3AFF380C3AEF37FC3ADF37EC3ACF32C
:1058F000B36BB26BB16BB06B000153EC08F005E316
:1059000003017F51800A7F6F000181C3AFF380C321
:10591000AEF37FC3ADF37EC3ACF3DB0E0301B36F15
:105920000F0EB26F490EB16F7F0EB06F0001B5EC74
:1059300021F003C0A7F302C0A6F301C0A5F300C085
:10594000A4F38CDF01C08EF381C3AFF380C3AEF349
:105950007FC3ADF37EC3ACF3DB0E0301B36F0F0E59
:10596000B26F490EB16F7F0EB06F0001B5EC21F040
:1059700003C0A7F302C0A6F301C0A5F300C0A4F3BF
:105980000301A96B8EC3A8F300011FEC06F0D882B7
:10599000A7C3AFF3A6C3AEF3A5C3ADF3A4C3ACF3E3
:1059A00003C0B3F302C0B2F301C0B1F300C0B0F35F
:1059B0003AEC06F003C093F302C092F301C091F3F6
:1059C00000C090F3030E03018E178E5303E08E5137
:1059D00002081DE193C3ABF392C3AAF391C3A9F3E9
:1059E00090C3A8F3DB0EAF6F0F0EAE6F490EAD6F15
:1059F0007F0EAC6F000176EC07F003C089F302C0A4
:105A000088F301C087F300C086F36FD003018E2DA9
:105A100037D0D882AF6BAE6BAD6B7F0EAC6F93C3DC
:105A2000B3F392C3B2F391C3B1F390C3B0F30001E7
:105A30003AEC06F003C0A7F302C0A6F301C0A5F339
:105A400000C0A4F303C0ABF302C0AAF301C0A9F3E2
:105A500000C0A8F3DB0E0301AF6F0F0EAE6F490E4F
:105A6000AD6F7F0EAC6F000176EC07F003C089F3D9
:105A700002C088F301C087F300C086F336D003016B
:105A8000D88293C3AFF392C3AEF391C3ADF390C387
:105A9000ACF3B36BB26BB16B7F0EB06F00013AEC3D
:105AA00006F003C0A7F302C0A6F301C0A5F300C02F
:105AB000A4F303C0ABF302C0AAF301C0A9F300C072
:105AC000A8F3DB0E0301AF6F0F0EAE6F490EAD6F83
:105AD0007F0EAC6F000176EC07F003C089F302C0C3
:105AE00088F301C087F300C086F30301856B846BE4
:105AF000836B7F0E826F89C3ABF388C3AAF387C31E
:105B0000A9F386C3A8F389C3AFF388C3AEF387C3F1
:105B1000ADF386C3ACF3000176EC07F003C089F364
:105B200002C088F301C087F300C086F303018F6BC6
:105B30008F5103085EE38DC3ABF38CC3AAF38BC311
:105B4000A9F38AC3A8F389C3AFF388C3AEF387C3AD
:105B5000ADF386C3ACF3000176EC07F003C08DF320
:105B600002C08CF301C08BF300C08AF303018F5194
:105B7000040DF350036A940FE96E030E0320EA6EDE
:105B8000EFCFA8F3ECCFA9F3ECCFAAF3ECCFABF3B4
:105B90008DC3AFF38CC3AEF38BC3ADF38AC3ACF349
:105BA000000176EC07F0EACFA5F3E9CFA4F3D89291
:105BB00085C3AFF384C3AEF383C3ADF382C3ACF349
:105BC00003C0B3F302C0B2F301C0B1F300C0B0F33D
:105BD0003AEC06F0A5C3EAFFA4C3E9FF03C085F3CE
:105BE00002C084F301C083F300C082F303018F2B52
:105BF0009FD78E51020802E08E2D03D08351800A78
:105C0000836F82C300F083C301F084C302F085C3B5
:105C100003F0000112000301716B706B6F6B6E6B10
:105C2000756B746B736B726B6DC379F36CC378F3C4
:105C30006BC377F36AC376F30001E7DD03C071F34A
:105C400002C070F301C06FF300C06EF371C381F343
:105C500070C380F36FC37FF36EC37EF31DDE03C09A
:105C600075F302C074F301C073F300C072F372C322
:105C700000F073C301F074C302F075C303F01200A7
:105C8000D88279C3AFF378C3AEF377C3ADF376C3ED
:105C9000ACF3DB0E0301B36F0F0EB26F490EB16FA1
:105CA0007F0EB06F00013AEC06F003C07DF302C036
:105CB0007CF301C07BF300C07AF303C081F302C020
:105CC00080F301C07FF300C07EF3E6DD8CEF2EF0A1
:105CD0000301716B706B6F6B6E6B756B746B736BB9
:105CE000726B6DC379F36CC378F36BC377F36AC3DC
:105CF00076F300018ADD03C071F302C070F301C0C6
:105D00006FF300C06EF371C379F370C378F36FC3A0
:105D100077F36EC376F3B4D703C075F302C074F3A0
:105D200001C073F300C072F372C300F073C301F0DB
:105D300074C302F075C303F012008BC3ABF38AC3C4
:105D4000AAF389C3A9F388C3A8F38BC3AFF38AC3AB
:105D5000AEF389C3ADF388C3ACF376EC07F0120061
:105D6000A1C3AFF3A0C3AEF39FC3ADF39EC3ACF327
:105D70000301B36BB26BB16BB06B000153EC08F075
:105D800001E205E1006A016A026A036A7BD0A1C3ED
:105D9000A5F3A0C3A4F39FC3A3F39EC3A2F3030E72
:105DA0000301AB6FA20EAA6FAAC3E9FFABC3EAFF60
:105DB000EF50AF6BAE6F7F0EAE27000EAF23D890C3
:105DC000AF31AE31ABC3EAFFAAC3E9FFEF6EA5C3A3
:105DD000A9F3A4C3A8F3A3C3A7F3A2C3A6F3A1C3C3
:105DE000AFF3A0C3AEF39FC3ADF39EC3ACF3A5C3A3
:105DF000B3F3A4C3B2F3A3C3B1F3A2C3B0F30001DE
:105E0000B5EC21F0D892A5C3AFF3A4C3AEF3A3C3FE
:105E1000ADF3A2C3ACF303C0B3F302C0B2F301C04D
:105E2000B1F300C0B0F33AEC06F003C0A5F302C032
:105E3000A4F301C0A3F300C0A2F30301AAC3E9FFC6
:105E4000ABC3EAFFEF06A9C3AFF3A8C3AEF3A7C382
:105E5000ADF3A6C3ACF3A5C3B3F3A4C3B2F3A3C31A
:105E6000B1F3A2C3B0F3000153EC08F0D8B402D0F0
:105E70000301ADD7A6C300F0A7C301F0A8C302F089
:105E8000A9C303F012000301836B826B816B806BEB
:105E90007BC38BF37AC38AF379C389F378C388F31E
:105EA00000014BDF03C087F302C086F301C085F316
:105EB00000C084F37FC38BF37EC38AF37DC389F371
:105EC0007CC388F33ADFEACF89F3E9CF88F3D8922D
:105ED00087C3AFF386C3AEF385C3ADF384C3ACF31E
:105EE00003C0B3F302C0B2F301C0B1F300C0B0F31A
:105EF0003AEC06F089C3EAFF88C3E9FF03C087F3E1
:105F000002C086F301C085F300C084F303C0A1F38F
:105F100002C0A0F301C09FF300C09EF321DF03C0C5
:105F200083F302C082F301C081F300C080F380C319
:105F300000F081C301F082C302F083C303F01200BA
:105F40000301996B87C38CF386C38BF385C38AF3F4
:105F500084C389F387C3AFF386C3AEF385C3ADF3C0
:105F600084C3ACF3B36BB26BB16BB06B000153EC99
:105F700008F007E3010E0301996F8A51800A8A6FC6
:105F800000010301AF6BAE6BAD6B7E0EAC6F8CC3CB
:105F9000B3F38BC3B2F38AC3B1F389C3B0F3000187
:105FA00053EC08F048E3D8820301AF6BAE6BAD6BE6
:105FB0007F0EAC6F8CC3B3F38BC3B2F38AC3B1F360
:105FC00089C3B0F300013AEC06F003C09DF302C0B0
:105FD0009CF301C09BF300C09AF303C0AFF302C06F
:105FE000AEF301C0ADF300C0ACF30301B36BB26B11
:105FF000B16B800EB06F0001B5EC21F003C09DF3D2
:1060000002C09CF301C09BF300C09AF303C0A1F34C
:1060100002C0A0F301C09FF300C09EF3A1DE03C045
:106020008CF302C08BF301C08AF300C089F3020E27
:106030000301882700018CC3ABF38BC3AAF38AC387
:10604000A9F389C3A8F38CC3AFF38BC3AEF38AC3A0
:10605000ADF389C3ACF376EC07F003C098F302C04C
:1060600097F301C096F300C095F3370E0301AB6FB1
:10607000BF0EAA6F7D0EA96FA86F98C3AFF397C329
:10608000AEF396C3ADF395C3ACF3000176EC07F025
:1060900003C09DF302C09CF301C09BF300C09AF3C0
:1060A000D89203C0AFF302C0AEF301C0ADF300C09D
:1060B000ACF33D0E0301B36FAA0EB26F930EB16F36
:1060C000810EB06F00013AEC06F003C090F302C0FD
:1060D0008FF301C08EF300C08DF390C3ABF38FC379
