:020000040000FA
:0406000060EF60F057
:08060800056ED8CF06F0E0CF2B
:1006100007F00001E9CF0DF0EACF08F0E1CF09F0D3
:10062000E2CF0AF0D9CF0BF0DACF0CF0F3CF14F011
:10063000F4CF15F0FACF16F000C00FF001C010F0A3
:1006400002C011F003C012F004C013F09DA22CEF01
:1006500003F09EB28DEF03F0F2A832EF03F0F2B296
:1006600059EF04F0F0A638EF03F0F0B05DEF04F0BE
:100670009DAA3EEF03F09EBAFCEF03F00FC000F01E
:1006800010C001F011C002F012C003F013C004F05A
:100690000DC0E9FF08C0EAFF088E09C0E1FF0AC0EB
:1006A000E2FF0BC0D9FF0CC0DAFF14C0F3FF15C086
:1006B000F4FF16C0FAFF055007C0E0FF06C0D8FFE0
:1006C0001000016A026A006A036A04012B5102E108
:1006D0002A5118E0100E2C6FD89028372937003691
:1006E00003362B51035C02E12A51005C07E32A51D7
:1006F000005ED8A003062B51035ED8800136023677
:100700002C2FEAD700019AEF03F0010EDD6FA5EF61
:1007100003F0010EDC6FADEF03F06F2AD8B4702A3E
:1007200070C029F46FC028F404012B6B0A0E2A6FE5
:100730000001C7D700C028F4040103C029F42853DE
:1007400005E1295303E10001E0D704016F5064087B
:1007500007E1705205E10001DCD7706A6F6A04019D
:100760009E9200013EEF03F09EAAFED7ABCF19F098
:10077000AECF01F019A202D0AB98AB88000C0401F7
:100780002A6703D02B6702D007D02B2B29C4EEFF9A
:100790002A2FFCD72B2FFAD70001000CEA6ADE0EB5
:1007A000E96E0401296B2B6B640E2A6F0001E7DFF1
:1007B0001FEF04F0200E04012C6F036A2B51530F1E
:1007C000E96E010E0320EA6EEFCF2CF42CC401F089
:1007D000000132EF04F004012A6B010E29252A6F73
:1007E0002A51640801E12A6B2AC401F00001000CBF
:1007F000010EAF6F4DEF04F00401286B036A010195
:10080000B951530FE96E010E0320EA6EEACF2CF4C2
:10081000E9CF2BF40001A8DF2CC4EAFF2BC4E9FFC9
:1008200001C0EFFF036A0101B951530FE96E010ED8
:100830000320EA6EEF500A0830E10001AFD704014F
:10084000286B2851630827E3036A2851DE0F016EE5
:10085000000E032201C029F403C02AF4BAC12BF40C
:100860000001A8D72AC4EAFF29C4E9FF01C0EFFFAD
:10087000BAC129F4B0DF01C0BAF1036A04012851FA
:10088000DE0FE96E000E0320EA6EEF500A0801E168
:1008900002D0282BD6D70001ABD7B9C129F400016B
:1008A0009ADF01C0B9F19E9A3EEF03F0010EC16FCD
:1008B000000CFCDFF2923EEF03F0F8DFF0903EEF29
:1008C00003F095988C98BAEF04F0B886080EAF6ED6
:1008D000020EB06EA60EAC6E000CF7DF9EAA02D020
:1008E00043DFFCD797EF04F0B8862A0EAF6E000EF8
:1008F000B06EA60EAC6E000C9EAAFED7ABCF19F060
:10090000AECF01F019A202D0AB98AB88000CECDF9F
:100910009EAA02D0F1DFFCD797EF04F00101CB5182
:10092000000103E0010A02E002D0D7D7F0D7000CA3
:100930000201FF51000103E0010A06E00CD0959A84
:100940008C9A0101CB6B0CD0959A8C8A010E010117
:10095000CB6F06D00001959A8C9A0101CB6B00D029
:100960000001000CDBDF0201FF6B0001E1DFADDF06
:10097000000CA7D7F7DF000CC150C00B0E09C16EE9
:10098000C050C00B0709C06EC09EC280000E016E31
:10099000C250C30B0110C26ED2EF04F09292899242
:1009A000000CEAD7FBDF000CC69A949A94889496C0
:1009B000220EC66E400EC76E94948B84949A8B8AD6
:1009C00094968B86000C020EEA6EFF0EE96EEF50D5
:1009D0000DE0060E016E006A002EFED7012EFBD739
:1009E0007B0E006E002EFED7EF2EF3D7000C9490F6
:1009F0008B80640E0201FF6F0001E5DF000C030134
:100A00003A6BD89039353A6F3AC301F00001000CC7
:100A10007D92140E0301396F0001F1DF01C0B7F1BF
:100A2000E3EF07F00401026B036B036B026B0351EE
:100A3000015D13E303E10051025D0FE20301FE518A
:100A400004010225E96E0301FF5104010321EA6E4E
:100A5000EF6A022BD8B4032BEAD70001000C67C35E
:100A6000FFF366C3FEF30401016B020E006F000189
:100A7000D9DF38EF06F00301676B040E6625676F58
:100A800067C301F000013BEF06F003016BC3E9FF10
:100A90006CC3EAFF66C3EFFF010E6B25E96E000E23
:100AA0006C21EA6E67C3EFFF020E6B25E96E000E44
:100AB0006C21EA6E6AC3EFFF030E6B25E96E000E30
:100AC0006C21EA6EEF6A040E6B256D6F000E6C21CF
:100AD0006E6FEA6E6DC3E9FF69C3E2FF68C3E1FFB1
:100AE0006A51016E04E0E6CFEEFF012EFCD7000153
:100AF0004EEF06F003016B6B6C6B6D6B6B6B6851AB
:100B00006B5D0DE2036A6B516625E96E6751032048
:100B1000EA6EEF506C276C516D276B2BF0D769C3D1
:100B2000E9FF6AC3EAFF6CC3EFFF010E6925E96EB6
:100B3000000E6A21EA6E6DC3EFFF00015BEF06F065
:100B40009EA8FED7AD6E000CF29CF29EF2BEFDD7C1
:100B5000030169510001F4DFC00EF212000CB50E62
:100B60000301696F0001F0DF620E0301696F00018C
:100B7000EBDF5CEF06F00301696B6A6B6B6B6C6B10
:100B8000F29CF29EF2BEFDD76C6B6B6B6A6B696B6D
:100B90006C531CE16B531AE16A5318E16851695DAB
:100BA00015E266516925E96E67516A21EA6EEFCF59
:100BB0006DF36D510001C4DF010E03016927D8B048
:100BC0006A2BD8B46B2BD8B46C2BE2D7C00EF212C0
:100BD000000165EF06F066C3E9FF67C3EAFFEFCFE8
:100BE00068F368C369F30001AFDF010E03016625F6
:100BF000E96E000E6721EA6EEFCF68F368C369F310
:100C00000001A2DF6CEF06F00301676BF29CF29E1D
:100C1000F2BEFDD70001A8DD01C067F3C00EF212DD
:100C2000030167C301F00001000C0301666B0001C2
:100C3000EBDF01C066F303016651B508F8E100017E
:100C40006DEF06F00301326B616B626B6381030E23
:100C5000FF6F330EFE6F0401016B2E0E006F00015B
:100C6000E1DE030E0301676F640E666F0001F7D6C5
:100C70002FC366F300D701C061F32DC366F32EC303
:100C800067F331C369F330C368F32FC36AF3030E0C
:100C900003016C6F330E6B6F0001F7D6030E030177
:100CA000676F330E666F61C368F3030E6A6F640E7D
:100CB000696F00011FD753D7030E0301676F330E0F
:100CC000666F61C368F3000156D7030E0301676FB7
:100CD000640E666F00017FD7A8D70301326B3251D3
:100CE000060807E3000190DF01C062F30301322B25
:100CF000F6D7000E63B1010E016E0001000C030176
:100D00000091016B026B030EFF6FFE6F0401016B1C
:100D10002A0E006F000186DE060E0301016F010E30
:100D2000026FF00E036F046B056B066B076B086BAD
:100D3000096F010E0A6F0B6B0C6B0D6B0E6BF00ED7
:100D40000F6F020E106F116B126B136B146BF00EA2
:100D5000156F030E166F176B186B196B1A6BF00E6D
:100D60001B6F040E1C6F1D6B1E6B1F6B206BF00E38
:100D7000216F050E226F236B246B256B266BF00E03
:100D8000276F080E286F296B2A6B2B6B2C6B0201C7
:100D9000FF51F70F28E2090F000109EF07F0010EDC
:100DA0000301066F02011FD0010E03010C6F020147
:100DB0001AD0020E0301126F020115D0010E0301B9
:100DC000186F020110D0010E03011E6F02010BD03B
:100DD000010E0301246F020106D0010E03012A6FE8
:100DE000020101D0020101C32DF302C32EF32A0E2A
:100DF00003012F6F030E316F306F000123DF0301FA
:100E0000009101B0008100B102D00201ECD70001D5
:100E1000000CF2CF0EF0F29EE824F76AF736370F97
:100E2000F66E0E0EF7220A00F550FA6E0800F55025
:100E30000EBEF28EF96E9E0DA80DB20DBC0DC60D44
:100E4000D00DE40DE40DDA0D040E0201FF6F000178
:100E500056DFE4EF07F003010091016B026B030E14
:100E6000FF6FFE6F0401016B280E006F0001DADDD9
:100E7000060E0301016F1A0E026F030E036F046B5F
:100E8000056B066B076F086F100E096F020E0A6F75
:100E9000500E0B6FC30E0C6F0D6B0E6B180E0F6F99
:100EA000140E106F050E116F3C0E126F136B010EB6
:100EB000146F156B166BFA0E176F186B196F1A6B90
:100EC000640E1B6F1C6B2C0E1D6F1E6B1F6B206B3B
:100ED000216B226B236B246B256B266B276B286B96
:100EE000296B2A6B0201FF5104080FE1030E030175
:100EF000036F050E076F086F030E0A6F5A0E176F08
:100F0000186B196F1A6B05D00201FF51020800E13E
:100F1000030101C32DF302C32EF3280E2F6F030E1E
:100F2000316F306F00018EDE0301009101B000814E
:100F300000A1EFD70001000C040E0201FF6F0001B9
:100F40008ADFE5EF07F00201FF910301006B016BFF
:100F5000030EFF6F020EFE6F0401016B060E006FA1
:100F6000000160DD060E0301006F080E016FFA0E2E
:100F7000026F036B020E046F056B066B076B00C3F9
:100F80002DF301C32EF3060E2F6F030E316F020EE9
:100F9000306F000157DE0201FF9101B0FF81FFB108
:100FA00002D00301ECD70001000C010E0301FF6F1A
:100FB000530EFE6F0401016B640E006F000132DD01
:100FC000000C15DD25D540D7B7D7BDDFEEDF9E9AE3
:100FD0009D8A010E0101B86F0001000CF29CF29E87
:100FE000F2BEFDD79286050E006E002EFED79284CB
:100FF000060E006E002EFED789969296050E006EA4
:10100000002EFED789949294C00EF212000C080EA6
:10101000016E050E006E002EFED789949294060E86
:10102000006E002EFED703012A378996D8B092862B
:10103000D8A09296928480A4FED7012E01D002D02F
:101040000001E7D7050E006E002EFED7899492941A
:1010500000009286060E006E002EFED7060E006E71
:10106000002EFED7928480A4FED7016A060E006E81
:10107000002EFED780B6018089949294899692962C
:101080000001000C010E0301286FF29CF29EF2BEDB
:10109000FDD727C32AF30001BADF01C028F3C00E31
:1010A000F212030128C301F00001000C700E0301CD
:1010B000276F0001E7DF000C600E0201F76FF653A7
:1010C000D8A4F78FF7C227F30001DCDFB4EF08F0F4
:1010D000780E0301256F2353D8A4258F2453D8A459
:1010E000258325C327F30001CDDF000C700E03011B
:1010F000056F0253D8A4058F0353D8A4058504B106
:10110000058104B3058305C327F30001BBDF000C91
:10111000460E0201FC6FFA53D8A4FC8FFB53D8A4EF
:10112000FC87FCC227F30001ADDF000CF29CF29EAD
:10113000F2BEFDD792960000928480A4FED7050EE1
:10114000006E002EFED700D000009286050E006EC5
:10115000002EFED7C00EF212000C40DFA7DF010EFA
:101160000201F66F0001A8D7010E0301236F246B63
:101170000001AEDF010E0301026F036B046B00017F
:10118000B5DF0201FA6B010EFB6F0001C1DFCEDF9C
:10119000CBEF08F0E2D7000CD56ACD6A780E0609CD
:1011A000CA6EFF0ECB6EF29A9D909D82C00EF21217
:1011B000B9EC04F0D1EC04F0D4EC04F002DFEADF87
:1011C00077EF63F00201F26BF2CFF3F2F29EAA6ABC
:1011D000500EA96EA69CA69EA680A850F3BFF28EC4
:1011E000F26FF2C201F000011FEF5FF0000E7DB65A
:1011F000010E016E000C03011FA102D07D8801D0F9
:101200007D981FA302D07D8A01D07D9A0001000C39
:10121000EDDF015206E0030E03011F6F0001EBDF5B
:1012200005D0010E03011F6F0001E5DF000C030173
:10123000405316E0036A3E513C25016E3D510322A6
:1012400001C0E9FF03C0EAFF010E006E3F51016ECD
:1012500004E0D8900036012EFCD70050EF1216D0D3
:10126000036A3E513C25016E3D51032201C0E9FF56
:1012700003C0EAFF010E006E3F51016E04E0D890FA
:101280000036012EFCD70050FF0AEF160001000CBB
:1012900003013A6B3B6B38313A6F3A333A331F0EE6
:1012A0003A173851070BFF0A080F3B6F7DA80DD086
:1012B000010E3D6FBB0E3C6F3AC33EF33BC33FF3A1
:1012C00039C340F30001B3DF03017DAA0DD0010E45
:1012D0003D6FC30E3C6F3AC33EF33BC33FF339C38C
:1012E00040F30001A4DF03010001000C0301336B94
:1012F000346B010E2E5D346F336B2E51335D27E25C
:10130000036A33512C25E96E2D510320EA6EEFCF8D
:1013100035F332C303F031C302F030C301F02FC301
:1013200000F03451366F07E0D890033202320132B8
:101330000032362FF9D7000E00B0010E35C338F356
:10134000396F0001A5DF03013407332BD6D7000125
:10135000000C0301246B256B266B276B286B296B14
:101360002A6B2B6B2251010A000105E0030A14E0ED
:10137000010A23E033D00C0E0301246F0E0E256FFB
:10138000100E266F0F0E276F0B0E286F0A0E296F97
:101390000D0E2A6F000122D0140E0301246F160EC9
:1013A000256F180E266F170E276F130E286F120E5B
:1013B000296F150E2A6F000111D01C0E0301246F36
:1013C0001E0E256F200E266F1F0E276F1B0E286F17
:1013D0001A0E296F1D0E2A6F000100D00301235140
:1013E000300A000131E0010A33E0030A35E0010A66
:1013F00037E0070A39E0010A3BE0030A3DE0010A51
:101400003FE00F0A41E0010A43E05B0A45E0060ABB
:1014100047E0030A49E0150A4BE0330A4DE0020AAF
:101420004FE0060A51E0030A53E00E0A55E0040AB1
:1014300057E0030A59E01F0A5BE0030A5DE0060A71
:101440005FE0780A61E064D07E0E03012B6F63D009
:10145000300E03012B6F5FD06D0E03012B6F5BD03D
:10146000790E03012B6F57D0330E03012B6F53D02E
:101470005B0E03012B6F4FD05F0E03012B6F4BD020
:10148000700E03012B6F47D07F0E03012B6F43D0EB
:101490007B0E03012B6F3FD01F0E03012B6F3BD040
:1014A0003D0E03012B6F37D07B0E03012B6F33D022
:1014B000050E03012B6F2FD0770E03012B6F2BD05E
:1014C0004E0E03012B6F27D04F0E03012B6F23D03D
:1014D000470E03012B6F1FD0370E03012B6F1BD05C
:1014E0000E0E03012B6F17D07E0E03012B6F13D04E
:1014F000670E03012B6F0FD05B0E03012B6F0BD018
:101500003E0E03012B6F07D0010E03012B6F03D09A
:1015100003012B6B00D0030E2D6F240E2C6F070ED2
:101520002E6F326B316B306B2BC32FF30001DEDE7D
:10153000000C010E0301226F1FC323F3000109DF1A
:10154000020E0301226F20C323F3000102DF030E0A
:101550000301226F21C323F30001FBDE000C3EDDFB
:10156000A5DD0301236B22C324F30001B1DDDEDD21
:1015700006EF0BF00301266B25513F0B266F24531A
:10158000D8A4268F26C327F300017CDDF7EF0AF0ED
:10159000010E0301276F286BF29CF29EF2BEFDD76D
:1015A000286B2651285D15E2036A28512425E96E2F
:1015B00025510320EA6EEFCF29F329C32AF3000156
:1015C00026DD01C027F30301275301E002D0282BB9
:1015D000E8D7C00EF21227C301F0000100EF0BF0B4
:1015E000FDDC64DD0301246B256B0001C3D723C33D
:1015F00025F322C324F3080E0301266F0001C8D788
:1016000095DD0BEF0BF021C322F3A9D720C323F301
:101610001FC322F3E5D7000C7DA808D0010E0301FB
:10162000206FBB0E1F6F216B0001EDDF7DAA09D07B
:10163000010E0301206FC30E1F6F010E216F000109
:10164000E2DF000CE5DD1CC31FF31DC320F31EC346
:1016500021F36FDFE1DF000C110E0301386F396BEE
:10166000000116DE190E0301386F396B000110DE20
:101670003BEF0BF0F1D703011D51000105E0010A1A
:101680000BE0030A11E011D0110E0301386F010EB7
:10169000396F0001FDDD09D0190E0301386F010E0D
:1016A000396F0001F5DD01D000D05BEF0BF0B0DD4C
:1016B0001CC31DF3DFD7B0DF000CFFC21CF300C357
:1016C0001DF301C31EF3BEDF020E03011C6F0001F8
:1016D000EEDF000C220E0301386F396B0001D8DDFC
:1016E0002C0E0301386F396B0001D2DD210E03018E
:1016F000386F396B0001CCDD7FEF0BF0EBD7010EBB
:101700000301005DFC0F29E2040F0001B0EF0BF0B4
:10171000220E0301386F010E396F0001B9DD03019C
:101720001CD02C0E0301386F010E396F0001B0DDA3
:10173000030113D0210E0301386F010E396F000130
:10174000A7DD220E0301386F010E396F0001A0DD05
:10175000030103D0030101D003010001CAEF0BF024
:10176000F2CF0EF0F29EE824F76AF736850FF66E98
:10177000170EF7220A00F550FA6E0800F5500EBE5B
:10178000F28EF96E101722173417541741DDFFC27D
:1017900000F3B4D741DF000C03010051FC0F5BE202
:1017A000040F00012DEF0CF0230E0301386F396B8D
:1017B00000016EDD250E0301386F396B000168DD15
:1017C000240E0301386F010E396F000161DD030142
:1017D00042D0230E0301386F396B000159DD250E0D
:1017E0000301386F010E396F000152DD240E030131
:1017F000386F010E396F00014BDD03012CD0230E31
:101800000301386F010E396F000142DD250E03011F
:10181000386F010E396F00013BDD240E0301386F74
:10182000010E396F000134DD030115D0230E0301D1
:10183000386F396B00012CDD250E0301386F396BD1
:10184000000126DD240E0301386F396B000120DD15
:10185000030101D003010001000CF2CF0EF0F29E53
:10186000E824F76AF7367F0FF66E180EF7220A00A3
:10187000F550FA6E0800F5500EBEF28EF96EA817FC
:10188000D217FE172C18C4DCFFC200F385DFC4DEBC
:10189000000C0301086B096B0A6B0B6B0C6B0D6B77
:1018A0000E6B0F6B106B116B126B136B146B156B54
:1018B000166B176B186B196B1A6B1B6B1C6B1D6B04
:1018C0001E6B080E086F060E096F070E0A6F050ED5
:1018D0000B6F040E0C6F020E0D6F030E0E6F010ED8
:1018E0000F6F106B310E116F2E0E126F2F0E136FC4
:1018F0002D0E146F2B0E156F2A0E166F280E176FF4
:10190000290E186F270E196F260E1A6F0751C20F76
:10191000D8B0DED13E0F00017BEF0EF003011E6B4D
:101920001D6B020E1C6F1B6BD3D103011E6B1D6B55
:10193000030E1C6F1B6BCCD103011E6B1D6B030EC2
:101940001C6F800E1B6FC4D103011E6B1D6B030E39
:101950001C6FC00E1B6FBCD103011E6B1D6B030EF1
:101960001C6FE00E1B6FB4D103011E6B1D6B030EC9
:101970001C6FF00E1B6FACD103011E6B1D6B030EB1
:101980001C6FF80E1B6FA4D103011E6B1D6B030EA1
:101990001C6FFC0E1B6F9CD103011E6B1D6B030E95
:1019A0001C6FFE0E1B6F94D103011E6B1D6B030E8B
:1019B0001C6FFF0E1B6F8CD103011E6B1D6B060E7F
:1019C0001C6F1B6B85D103011E6B1D6B0E0E1C6FF4
:1019D0001B6B7ED103011E6B1D6B1E0E1C6F1B6BE0
:1019E00077D103011E6B1D6B3E0E1C6F1B6B70D1FC
:1019F00003011E6B1D6B7E0E1C6F1B6B69D10301F7
:101A00001E6B1D6BFE0E1C6F1B6B62D103011E6BE8
:101A1000010E1D6FFE0E1C6F1B6B5AD103011E6B56
:101A2000030E1D6FFE0E1C6F1B6B52D103011E6B4C
:101A3000070E1D6FFE0E1C6F1B6B4AD103011E6B40
:101A40001D6B1C6B1B6B44D103011E6B040E1D6FC1
:101A50001C6B1B6B3DD103011E6B060E1D6F1C6BB7
:101A60001B6B36D103011E6B070E1D6F1C6B1B6BAE
:101A70002FD103011E6B070E1D6F800E1C6F1B6B99
:101A800027D103011E6B070E1D6FC00E1C6F1B6B51
:101A90001FD103011E6B070E1D6FE00E1C6F1B6B29
:101AA00017D103011E6B070E1D6FF00E1C6F1B6B11
:101AB0000FD103011E6B070E1D6FF80E1C6F1B6B01
:101AC00007D103011E6B070E1D6FFC0E1C6F1B6BF5
:101AD000FFD003011E6B070E1D6FFE0E1C6F1B6BEC
:101AE000F7D003011E6B070E1D6FFF0E1C6F1B6BE3
:101AF000EFD003011E6B070E1D6FFF0E1C6F800ED3
:101B00001B6FE6D003011E6B070E1D6FFF0E1C6FCF
:101B1000C00E1B6FDDD003011E6B070E1D6FFF0E85
:101B20001C6FE00E1B6FD4D003011E6B070E1D6FE0
:101B3000FF0E1C6FF00E1B6FCBD003011E6B070E48
:101B40001D6FFF0E1C6FF80E1B6FC2D003011E6BC2
:101B5000070E1D6FFF0E1C6FFC0E1B6FB9D003012B
:101B60001E6B070E1D6FFF0E1C6FFE0E1B6FB0D09D
:101B700003011E6B070E1D6FFF0E1C6F1B6FA8D09D
:101B800003011E6B060E1D6F1C6B1B6BA1D00301A6
:101B90001E6B070E1D6F1C6B1B6B9AD003011E6B17
:101BA000030E1D6F800E1C6F1B6B92D003011E6B0A
:101BB000010E1D6FC00E1C6F1B6B8AD003011E6BC4
:101BC0001D6BE00E1C6F1B6B83D003011E6B1D6B26
:101BD000700E1C6F1B6B7CD003011E6B1D6B380ECF
:101BE0001C6F1B6B75D003011E6B1D6B1C0E1C6FD5
:101BF0001B6B6ED003011E6B1D6B0E0E1C6F1B6BDF
:101C000067D003011E6B1D6B070E1C6F1B6B60D032
:101C100003011E6B1D6B030E1C6F800E1B6F58D0D3
:101C200003011E6B1D6B010E1C6FC00E1B6F50D08D
:101C300003011E6B1D6B1C6BE00E1B6F49D0030173
:101C40001E6B1D6B1C6B700E1B6F42D003011E6B55
:101C50001D6B1C6B380E1B6F3BD003011E6B1D6B85
:101C60001C6B1C0E1B6F34D003011E6B1D6B1C6B99
:101C70000E0E1B6F2DD003011E6B1D6B1C6B070E10
:101C80001B6F26D003011E6B1D6B1C6B030E1B6F9D
:101C90001FD003011E6B070E1D6FFF0E1C6F1B6F05
:101CA00017D003011E6B1D6B1C6B1B6B11D0030146
:101CB0001E6B050E1D6F550E1C6F1B6F09D00301A7
:101CC0001E6B020E1D6FAA0E1C6F1B6F01D003014D
:101CD000030E2D6F080E2C6F130E2E6F1EC332F3E2
:101CE0001DC331F31CC330F31BC32FF3000176EC8B
:101CF00009F0D0EF0EF0F2CF0EF0F29EE824F76A72
:101D0000F7361B0FF66E1D0EF7220A00F550FA6E1D
:101D10000800F5500EBEF28EF96E1C192A193819FA
:101D2000481958196819781988199819A819B819EB
:101D3000C619D419E219F019FE190C1A1C1A2C1A1A
:101D40003C1A481A561A641A721A821A921AA21A5D
:101D5000B21AC21AD21AE21AF21A041B161B281B54
:101D60003A1B4C1B5E1B701B801B8E1B9C1BAC1BF1
:101D7000BC1BCA1BD81BE61BF41B021C101C201C1E
:101D8000301C3E1C4C1C5A1C681C761C841C921C6B
:101D9000A21CAE1CBE1C08EC09F006C307F379D5E3
:101DA0003BDC000C200E0201FF6F0301006F016F8E
:101DB000000183DC040E0201FF6F0001E7DC030E6B
:101DC0000201FF6F00015FDD3B0E0301066F0001A2
:101DD000E2DF000C94948B94000C94948B84000CA0
:101DE00003013891396BF29CF29EF2BEFDD70001DF
:101DF000F1DFC950050EC96EC730FEE3C950C96A8C
:101E0000C730FEE3C9CF39F3030138913951361594
:101E1000365D01E13881000E38B1010E375DD8B46E
:101E200002D00001EBD70001D8DFC00EF212000C87
:101E3000020E0301366F010E376F0001D1DF2FEF65
:101E40000FF0F29CF29EF2BEFDD7C4DFC950060E21
:101E5000C96EC730FEE3C1DFC00EF212E9D7000C35
:101E6000F0DFF29CF29EF2BEFDD7B4DFC950D80E6F
:101E7000C96EC730FEE32EC330F3C9502EC3C9FF6D
:101E8000C730FEE32DC330F3C9502DC3C9FFC7309F
:101E9000FEE32CC330F3C9502CC3C9FFC730FEE3A7
:101EA0009CDFC00EF212000C0401206B216B216B31
:101EB000206B215334E12051030831E31A512025CE
:101EC000226F1B512121236F040E256F1C0E246FDE
:101ED00020512425016E21512521036E01C0E9FF07
:101EE000EA6EEFCF24F423C4AAFF22C4A9FF24C4BE
:101EF000A8FFA69CA69EA684F2CF00F0F29E0F013A
:101F0000550EA76EAA0EA76EA682A6B2FED7A694FD
:101F10000050F2120401202BD8B4212BCAD70001A3
:101F2000000C04011B6B1A6B34C31FF433C31EF483
:101F300032C31DF431C31CF40001B6DF000C30C302
:101F400034F32FC333F32EC332F32DC331F3E9DF60
:101F5000000CAA6A040EA96E2DC3A8FFA69CA69E1B
:101F6000A684F2CF00F0F29E0F01550EA76EAA0EC6
:101F7000A76EA682A6B2FED7A6940050F212000168
:101F8000000C03012D6B0001E4DFE6EF0FF0010E02
:101F90000301FF6FDA0EFE6F010E0401016F006B8B
:101FA000000112EC05F00101D96B0001000C0301E6
:101FB0002F6B2E6B2D6B2C6B000152DF0301306BEE
:101FC0002F6B2E6B2D6B0001BADFDBD7E0DF92EFBA
:101FD00010F004011B6B1C6B1A51040DF350030F1E
:101FE0001B6F030E1C6FD8B01C2B1BC401F01CC44C
:101FF00002F00001000C0401186B196B17C41AF4ED
:102000000001E7DF02C019F401C018F419C41BF481
:1020100018C41AF416C41FF415C41EF414C41DF415
:1020200013C41CF441DF000C030EAA6EA96A10C48D
:10203000A8FFA69CA69EA684F2CF00F0F29E0F01F8
:10204000550EA76EAA0EA76EA682A6B2FED7A694BC
:102050000050F2120001000C0FC410F4E5DF000C78
:10206000030EAA6E020EA96E10C4A8FFA69CA69E1F
:10207000A684F2CF00F0F29E0F01550EA76EAA0EB5
:10208000A76EA682A6B2FED7A6940050F212000157
:10209000000C0FC410F4E4DF000C030EAA6E010E56
:1020A000A96E0EC4A8FFA69CA69EA684F2CF00F03F
:1020B000F29E0F01550EA76EAA0EA76EA682A6B2BB
:1020C000FED7A6940050F2120001000C04010E6B22
:1020D0000001E3DF85EF10F00401066B066B06518B
:1020E00031080BE3166B156B146B136B06C417F4F6
:1020F000000181DF0401062BF2D70F6B0001ACDF7A
:1021000004010F6B0001C5DFE1D7000C0101D8818C
:102110000001000C010E0301366F376B000160DE19
:10212000000C45D7D9DFF2DFF5DF000C04011B6B93
:10213000050E1A6F05C31FF404C31EF403C31DF478
:1021400002C31CF40001B0DE000C01C305F300C3A0
:1021500004F3FFC203F3FEC202F3E8DF000C030145
:102160002F6B1F0E2E6F2D6B2C6B000179DE030180
:10217000016B006B0201FF6BFE6B0001E6DFCADF43
:10218000000C0201FA6BFB6BFB6BFA6BFB51030853
:102190001BE3FBC2AAFFFAC2A9FFA86AA69CA69EDF
:1021A000A684F2CF00F0F29E0F01550EA76EAA0E84
:1021B000A76EA682A6B2FED7A6940050F212020124
:1021C000FA2BD8B4FB2BE2D70001F0EF11F0AA6A8A
:1021D0000A0EA96EFAC2A8FFA69CA69EA684F2CFFC
:1021E00000F0F29E0F01550EA76EAA0EA76EA682F2
:1021F000A6B2FED7A6940050F2120001B4EF11F07F
:10220000AA6A0B0EA96EFAC2A8FFA69CA69EA68477
:10221000F2CF00F0F29E0F01550EA76EAA0EA76E28
:10222000A682A6B2FED7A6940050F2120001B9EF22
:1022300011F0AA6A0C0EA96EFAC2A8FFA69CA69E6F
:10224000A684F2CF00F0F29E0F01550EA76EAA0EE3
:10225000A76EA682A6B2FED7A6940050F212000185
:10226000BDEF11F0AA6A0D0EA96EFAC2A8FFA69CD6
:10227000A69EA684F2CF00F0F29E0F01550EA76E27
:10228000AA0EA76EA682A6B2FED7A6940050F2129E
:102290000001C2EF11F0AA6A0E0EA96EFAC2A8FFE1
:1022A000A69CA69EA684F2CF00F0F29E0F01550ECA
:1022B000A76EAA0EA76EA682A6B2FED7A69400505D
:1022C000F2120001C7EF11F0AA6A0F0EA96EFAC24E
:1022D000A8FFA69CA69EA684F2CF00F0F29E0F0156
:1022E000550EA76EAA0EA76EA682A6B2FED7A6941A
:1022F0000050F2120001CCEF11F0AA6A100EA96E84
:10230000FAC2A8FFA69CA69EA684F2CF00F0F29E79
:102310000F01550EA76EAA0EA76EA682A6B2FED713
:10232000A6940050F2120001D1EF11F0AA6A110E2A
:10233000A96EFAC2A8FFA69CA69EA684F2CF00F0C2
:10234000F29E0F01550EA76EAA0EA76EA682A6B228
:10235000FED7A6940050F2120001D5EF11F0040E42
:102360000201FA6F000133D7800E0201FA6F0001FB
:1023700047D70201FA6B00015CD7010E0201FA6F28
:10238000000170D7010E0201FA6F000184D7010E1F
:102390000201FA6F000198D7010E0201FA6F0001E5
:1023A000ACD70201FA6B0001C1D7F1EF11F0AA6AB4
:1023B000500EA96EFAC2A8FFA69CA69EA684F2CFD4
:1023C00000F0F29E0F01550EA76EAA0EA76EA68210
:1023D000A6B2FED7A6940050F2120001000CD1D68E
:1023E000BED70301346B336B326B316B000199DD67
:1023F00003012D6B0001ADDD0301056B046B036B65
:10240000026B000193DE0201FA6B0001D0DF0401D0
:10241000106B000109DE04010E6B00013EDE0401B9
:10242000106B00011DDE000C0201F691F691010116
:10243000B82D03D00201F6810101000E0201F6B1B0
:10244000010E016E00015CEF2EF00301266B276B7D
:10245000286B200E296F286B276B266B24512511C2
:1024600003E1000E016E3BD02851282B036A24257E
:10247000E96E25510320EA6EEFCF29F329512F0889
:1024800003E22951390806E22951400826E2295180
:10249000460823E329512F080CE22951390809E3A2
:1024A00026392A6FF00E2A17300E295D2A25266F4D
:1024B00009D026392A6FF00E2A17410E295D0A0F1E
:1024C0002A25266F2851282B036A2425E96E2551D9
:1024D0000320EA6EEFCF29F3D1D726C301F0000124
:1024E000BDEF12F00301256B266B010E256F245101
:1024F000255D16E2036A25512225E96E235103204A
:10250000EA6EEF502A0801E10BD0036A255122251B
:10251000E96E23510320EA6EEF50261B252BE7D7E7
:1025200026C301F00001C8EF12F003011D911E6BDC
:102530001F6B206B216B1E6B1E5163080FE3036A38
:102540001E511B25E96E1C510320EA6EEF502A082C
:1025500003E11EC31FF302D01E2BEED71F5321E051
:10256000010E1F25036A1B25226F1C510320236FB8
:10257000256F22C324F3000168D701C020F31CC3D8
:1025800023F31BC322F3640E0301246F0001AAD7B7
:1025900001C021F303012151205D02E11D8101D021
:1025A0001D91000E1DB1010E016E0001DFEF12F052
:1025B00003011A911C6BDE0E1B6F0001B6D70301DD
:1025C0001A9101B01A81000E1AB1010E016E0001BC
:1025D000000C03011A910001DE51240812E1DF51C1
:1025E00047080FE1E05150080CE1E151520809E1C0
:1025F000E2514D0806E1E351430803E103011A816A
:102600000001000E03011AB1010E016E00016CEF12
:1026100013F003011A6B1B6B1A6B1A51630816E354
:10262000036A1A51DE0FE96E000E0320EA6EEF50C6
:102630002C080AE1036A1B51420FE96E010E0320C8
:10264000EA6E1AC3EFFF1B2B1A2BE7D70001000C11
:10265000200E0301456F036A4351420FE96E010EDC
:102660000320EA6E4451EF24036ADE0FE96E000E88
:102670000320EA6EEFCF45F345C301F00001000CE3
:1026800003011D91200E1E6F010E436F446F000168
:10269000DFDF01C01EF303011D911E51410801E15E
:1026A0001D81000E1DB1010E016E0001000C030121
:1026B0001A911A910101B75303E103011A81010133
:1026C000000E03011AB1010E016E000173EF13F049
:1026D0006FDF015215E07DD7015210E09ADFD0DFA5
:1026E00001520AE0E4D7015202E07D8204D00101E8
:1026F000B7077D92000101D07D9201D07D9201D07B
:102700007D92000C000E7DB2010E016E000C0301E3
:102710004491456B449143512F0804E243513908D9
:1027200001E3448144A103D0300E435D456F45C3AE
:1027300001F00001ABEF13F0200E0301416F426B7B
:102740003FC343F340C344F3000182DF01C041F3C0
:1027500041C343F3DCD701C042F3030142C301F09C
:102760000001000C0301246B23C33FF322C340F399
:102770000001E2DF01500A0DF3CF25F30301010E42
:102780002225266F23C33FF3406F0001D5DF0150A0
:1027900003012525246F24C301F00001000C03016F
:1027A000216B20C322F3080E236F0001DBDF01C081
:1027B00021F3030121C301F00001000C03011F6B91
:1027C000050E206F0001EBDF01C01FF303011FC3E3
:1027D00001F0000170EF19F003011F6B030E206F71
:1027E0000001DDDF01C01FF303011FC301F0000181
:1027F00083EF19F003011F6B010E206F0001CFDF83
:1028000001C01FF303011FC301F0000196EF19F08F
:102810000301216B20C322F3236B0001A3DF01C05E
:1028200021F3030121C301F00001000C03011F6B20
:10283000010E206F0001ECDF01C01FF303011FC375
:1028400001F00001A9EF19F003011F6B030E206FC7
:102850000001DEDF01C01FF303011FC301F000010F
:10286000BCEF19F003011F6B050E206F0001D0DFD4
:1028700001C01FF303011FC301F00001CFEF19F0E6
:1028800003011F6B080E206F0001C2DF01C01FF3A0
:1028900003011FC301F00001E2EF19F003016C6BAB
:1028A0006D6B010E6E6FDA6AD96A030E716F640E7A
:1028B000706F030EEA6E680EE96E71C3E2FF70C3BB
:1028C000E1FF6EC36FF3D890E550EE02F3506C2336
:1028D000F4506D236F2FF7D76CC3DEFF6DC36CF31D
:1028E0006D6BD8B06D2B702BD8B4712B6E2B6E51D5
:1028F0000508DFE10001000CB60E006E036A026AF3
:10290000016A03013F5140114111421102E1006A85
:102910000DD0D89001BE09D03F37403741374237FC
:10292000033602360136002EF4D7019E0001DEEF99
:1029300015F00301A051D8B471D0006EA451D8B4E1
:102940006DD0002604E3810E002668E204D07F0EDD
:10295000005E64E363E0A1C3A8F3A551A81BA18FA7
:10296000A58FA351A703F4CFAAF3A251A603F4CFD6
:1029700003F0F3CFA9F3A703F350AA27F450A92338
:10298000000E0322A351A603F350AA27F450A92353
:10299000000E026A03220222A151A703F350A927C5
:1029A000F4500322000E0222A151A603F350032685
:1029B000F4500222000E016A0122A351A503F35034
:1029C000A927F4500322000E02220122A251A503DE
:1029D000F3500326F4500222000E0122A151A50358
:1029E000F3500226F4500122002A01BE05D0A93777
:1029F0000336023601360006000EA9AF0AD0032ABC
:102A000002220122015005E1025003E1035001E1DD
:102A1000002AA8BF018EA8AF019E04D0006A016AF7
:102A2000026A036A0001000C03012E6B2F6B306BEE
:102A3000316B326B336B346B356B366B376B386B9A
:102A4000396B3A6B3B6B3C6B3D6B3E6B036A2B51B6
:102A5000420FE96E010E0320EA6EEFCF36F32D51DF
:102A60002C25396F376B2D51375D13E237512C25EB
:102A7000386F38513625036ADE0FE96E000E0320E9
:102A8000EA6EEF502E0803E138C339F302D0372B3A
:102A9000EAD7376B2D51375DD8B086D037512C250A
:102AA000386F3851395D050FF60F53E20A0F0001F8
:102AB00002EF16F0050E03013E6FF50E3D6FE10EBD
:102AC0003C6F3B6B46D003013E6B980E3D6F960EFC
:102AD0003C6F800E3B6F3DD003013E6B0F0E3D6F90
:102AE000420E3C6F400E3B6F34D003013E6B010E33
:102AF0003D6F860E3C6FA00E3B6F2BD003013E6BEB
:102B00003D6B3C6B3B6B25D003013E6B3D6B270E51
:102B10003C6F100E3B6F1DD003013E6B3D6B030EEF
:102B20003C6FE80E3B6F15D003013E6B3D6B3C6B79
:102B3000640E3B6F0ED003013E6B3D6B3C6B0A0E87
:102B40003B6F07D003013E6B3D6B3C6B010E3B6F4F
:102B500000D02BC33FF338C340F30001EDDD01C0CB
:102B60003AF30301426B416B406B3AC33FF342C3FC
:102B700067F341C366F340C365F33AC364F33EC3EE
:102B80006BF33DC36AF33CC369F33BC368F30001D5
:102B900085DE0050030132270150332302503423D5
:102BA00003503523372B76D735C342F334C341F373
:102BB00033C340F332C33FF300019ED603C0A3F3F7
:102BC00002C0A2F301C0A1F300C0A0F3AC0E030148
:102BD000A76FC50EA66F270EA56F6E0EA46F00011E
:102BE000A8DE03C031F302C030F301C02FF300C0F0
:102BF0002EF32EC300F02FC301F030C302F031C317
:102C000003F0000CF2CF0EF0F29EE824F76AF736DC
:102C1000290FF66E2C0EF7220A00F550FA6E080006
:102C2000F5500EBEF28EF96E442B362B282B182B46
:102C3000082BFC2AEA2AD82AC62AB42A0301246BC4
:102C4000256B266B276B286B010E2325036A420F29
:102C5000E96E010E0320EA6EEFCF29F3036A2351D8
:102C6000420FE96E010E0320EA6EEF50295DFF0F5F
:102C7000286F23C32BF3010E2C6F28C32DF3000103
:102C8000D3DE03C027F302C026F301C025F300C042
:102C900024F324C300F025C301F026C302F027C3A8
:102CA00003F0000C03011F6B206B216B226B060EDF
:102CB000236F0001C3DF03C022F302C021F301C070
:102CC00020F300C01FF31FC300F020C301F021C395
:102CD00002F022C303F0F4EF19F003011F6B206B25
:102CE000216B226B070E236F0001A8DF03C022F3C4
:102CF00002C021F301C020F300C01FF31FC300F086
:102D000020C301F021C302F022C303F00CEF1AF03C
:102D10000301A451D8B4A5D0B06FA851D8B4A1D0A4
:102D2000B05F05E37F0EB027D8B09BD006D0810EF0
:102D3000B05FD8A096D0D8B494D0B0C300F0016AE8
:102D4000026A036AAF6BA5C3AEF3AE8FA6C3ADF341
:102D5000A7C3ACF3190EB06FAB51AC5F0DE2010E1F
:102D6000AD5F0AE2AE5F08E2AF5F06E2AF2BAE2BCB
:102D7000AD2BAB51AC2728D0AA51AD5F12E2010EAA
:102D8000AE5F0FE2AF5F0DE2AF2BAE2BAA51AD27C6
:102D9000AB51AC2719E3AD2B17E1AE2B15E1AF2BEF
:102DA00013D0A9518009AE5F0EE2010EAF5F0BE2B6
:102DB000AF2BA9518009AE27AA51AD27E9E3AE2B6D
:102DC000E7E1AF2BE5D70380B02F01D00BD0D8902F
:102DD000AC37AD37AE37AF37D89003360236013651
:102DE000B137BAD7B1A106D0D8900132023203323E
:102DF000B13302D0000635E0B1BF1ED0D890AC3759
:102E0000AD37AE37AF37AB51AC5F07E2010EAD5F08
:102E100004E2AE5F02E2AF5F1AE3AA51AD5F05E2E2
:102E2000010EAE5F02E2AF5F12E3A9518009AE5F0F
:102E300003E2010EAF5F0BE3032A09E1022A07E177
:102E4000012A05E1002A0DE0013202320332A5C356
:102E5000B0F3A951B01BB0AF02D0018E06D0019ED5
:102E600004D0006A016A026A036A0001000C800E45
:102E7000D8A202D00301A91B0301AE6BAF6BA5C39F
:102E8000ADF3A951AD1BA451D8B4DFD0AC6F006E27
:102E9000A851D8B4E3D0AC5FD8B483D03EE3A9C383
:102EA000B2F3B28FAAC3B1F3ABC3B0F3AF6BD89098
:102EB000B233B133B033AF33AC2FF8D7ADAF03D0AB
:102EC000AE81E0D0AE91AC91AE89030EEA6EA70E52
:102ED000E96EEBD0AE99ADBF0AD0ACA113D0B2333E
:102EE000B133B033AF33002AD8B4C7D00BD0B2BFA0
:102EF0000CD0D890AF37B037B137B2370006D8B45E
:102F0000BCD0F5D7AE8D6DD0AE9DA5C3ADF3A5AF4A
:102F100002D0B28FABD0B29FA9D0A8C3ACF3A8C3E4
:102F200000F0A451AC5FA5C3B2F3B28FA6C3B1F356
:102F3000A7C3B0F3AF6BD890B233B133B033AF3374
:102F4000AC2FF8D7ADAF03D0AE839CD0AE93AC918D
:102F5000AE8B030EEA6EAB0EE96EA7D0AE9BADBF93
:102F60000AD0ACA113D0B233B133B033AF33002A9F
:102F7000D8B483D00BD0B2BF0CD0D890AF37B03715
:102F8000B137B2370006D8B478D0F5D7AE8F29D094
:102F9000AE9FA9C3ADF3A9AF02D0B28F67D0B29FE5
:102FA00065D0A9C3B2F3B28FAAC3B1F3ABC3B0F378
:102FB000ADAF04D0B29FAE8565D0AE95AF6BAC918E
:102FC000030EEA6EA70EE96E70D0ADBF1CD0A5C38C
:102FD000ADF3ACA106D0B233B133B033AF33002A76
:102FE0004CE0AFAF0BD0B02B09E1B12B07E1B22B16
:102FF00005E1B233B133B033002A3FE0AEBD84D730
:10300000AEBFC6D71CD0800EB21BB2AF04D03AD030
:10301000A9C3ADF30AD0A5C3ADF3B25306E1B153D2
:1030200004E1B05302E1006A21D0B2BF08D0D890C9
:10303000AF37B037B137B237002EF7D71ED0ADAFAC
:1030400002D0B28F13D0B29F11D0A8C300F0A9C391
:10305000B2F3AAC3B1F3ABC3B0F308D0A4C300F07A
:10306000A5C3B2F3A6C3B1F3A7C3B0F3B2C301F0D3
:10307000B1C302F0B0C303F034D0006A016A026A3F
:10308000036A2FD0AF6BB01FB11FB21FAF1FAF2BA2
:1030900005E1B02B03E1B12B01E1B22BAEB112D7A8
:1030A000AEB354D7AEB589D7B3D7EF50B02705E349
:1030B000B12B03E1B22BD8B4AC81ED52EF50B12764
:1030C00003E3B22BD8B4AC81ED52EF50EFBE01D088
:1030D000800AB227D8B0AC81AEB9FCD6AEBB3ED721
:1030E00074D70001000C03011F6B206B216B226B56
:1030F000236B246B256B266B276B286B296B2A6B44
:10310000020E2B6F010E2C6F020E2D6F00018CDC56
:1031100003C026F302C025F301C024F300C023F34B
:10312000020E03012B6F030E2C6F080E2D6F000192
:103130007BDC03C02AF302C029F301C028F300C0DE
:1031400027F32AC3A7F329C3A6F328C3A5F327C3EC
:10315000A4F30301AB6BAA6B700EA96F840EA86F6A
:103160000001D6DDD89226C3A7F325C3A6F324C356
:10317000A5F323C3A4F303C0ABF302C0AAF301C0B9
:10318000A9F300C0A8F373DE03C022F302C021F349
:1031900001C020F300C01FF3030E0301436F010EB3
:1031A000446F000128EC13F001504E0801E105D0F6
:1031B00003012051800A206F00011FC300F020C3CB
:1031C00001F021C302F022C303F024EF1AF003013F
:1031D0001F6B206B216B226B236B246B256B266B83
:1031E000276B286B296B2A6B040E2B6F010E2C6F3B
:1031F000030E2D6F000118DC03C026F302C025F377
:1032000001C024F300C023F3040E03012B6F2C6FC5
:10321000080E2D6F000108DC03C02AF302C029F359
:1032200001C028F300C027F32AC3A7F329C3A6F3DC
:1032300028C3A5F327C3A4F30301AB6BAA6B700EDD
:10324000A96F840EA86F000163DDD89226C3A7F38F
:1032500025C3A6F324C3A5F323C3A4F303C0ABF390
:1032600002C0AAF301C0A9F300C0A8F300DE03C0A6
:1032700022F302C021F301C020F300C01FF3050EAA
:103280000301436F010E446F000128EC13F001505D
:10329000450801E105D003012051800A206F00019B
:1032A0001FC300F020C301F021C302F022C303F0CA
:1032B0003CEF1AF003011C91000140EC13F00301F4
:1032C0001C9101B01C811CA1E4D01AC301F01BC3E6
:1032D00003F01AC31DF31BC31EF30001DEEF13F04E
:1032E0001EC3EAFF1DC3E9FF01C0EFFF010E03018A
:1032F0001A25016E000E1B21036E01C01DF31E6F07
:103300000001ECEF13F01EC3EAFF1DC3E9FF01C08B
:10331000EFFF020E03011A25016E000E1B21036E42
:1033200001C01DF31E6F0001FAEF13F01EC3EAFF88
:103330001DC3E9FF01C0EFFF030E03011A25016E53
:10334000000E1B21036E01C01DF31E6F000116EF5E
:1033500014F01EC3EAFF1DC3E9FF01C0EFFF040E16
:1033600003011A25016E000E1B21036E01C01DF31F
:103370001E6F000124EF14F01EC3EAFF1DC3E9FF16
:1033800001C0EFFF050E03011A25016E000E1B217F
:10339000036E01C01DF31E6F000132EF14F01EC357
:1033A000EAFF1DC3E9FF01C0EFFF060E03011A2566
:1033B000016E000E1B21036E01C01DF31E6F000184
:1033C00040EF14F01EC3EAFF1DC3E9FF01C0EFFF89
:1033D0000F0E03011A25016E000E1B21036E01C0A2
:1033E0001DF31E6F00015ED41EC3EAFF1DC3E9FF7B
:1033F00000C0EFFF01C0ECFF02C0ECFF03C0ECFF18
:10340000130E03011A25016E000E1B21036E01C06D
:103410001DF31E6F000161D41EC3EAFF1DC3E9FF47
:1034200000C0EFFF01C0ECFF02C0ECFF03C0ECFFE7
:10343000070E03011A25016E000E1B21036E01C049
:103440001DF31E6F00014FD61EC3EAFF1DC3E9FF27
:1034500000C0EFFF01C0ECFF02C0ECFF03C0ECFFB7
:103460000B0E03011A25016E000E1B21036E01C015
:103470001DF31E6F0001ABD61EC3EAFF1DC3E9FF9B
:1034800000C0EFFF01C0ECFF02C0ECFF03C0ECFF87
:1034900003010001C0EF2DF003011E6BF2CF1FF3FB
:1034A000F29EAA6A0A0EA96EA69CA69EA680A850A5
:1034B0001FBFF28E1E6F1EC301F0000166EF1AF0EF
:1034C00003011C6B040E1D6F0001E6D701C01CF345
:1034D00003011C51000805E21C51F00802E31CC363
:1034E0001DF31DC301F000019EEF1FF003011E91AB
:1034F0001E91060E1C25E96E000E1D21EA6EEF528C
:1035000001E11E81000E1EB1010E016E0001B0EF3F
:103510001FF00301276B676B666B656B26C364F353
:103520006B6B6A6B696B200E686F00014EEC14F0D8
:1035300000C027F3DA0E03012725286F010E296F3B
:10354000D8B0292B29C3EAFF28C3E9FF25C3E2FF2E
:1035500024C3E1FF200E016EE6CFEEFF012EFCD763
:10356000000143EF1FF00401146B156B166B176B12
:10357000186B196B156B146B155329E11451030863
:1035800026E3040E1B6F160E1A6F14511A25016ED6
:1035900015511B21036E0150E96E03C0EAFF125161
:1035A00014251C6F135115211D6FF2CF1EF4F29ECE
:1035B0001DC4AAFF1CC4A9FFA69CA69EA680A85055
:1035C0001EBFF28EEF6E142BD8B4152BD5D716C4B0
:1035D00000F017C401F018C402F019C403F0000190
:1035E000000C03016C6B6D6B6E6B6F6B0401136BE6
:1035F000126B0001B8DF03C06FF302C06EF301C0AD
:103600006DF300C06CF36CC300F06DC301F06EC3CA
:1036100002F06FC303F014EF1BF00301686B696BDA
:103620006A6B6B6B0001DDD703C06BF302C06AF3FA
:1036300001C069F300C068F368C300F069C301F01A
:103640006AC302F06BC303F0000C0301326B336BEF
:10365000346B356B000121EC0FF0F29CF29EF2BE50
:10366000FDD7EAEC0EF0C950020EC96EC730FEE37A
:103670002AC336F3C9502AC3C9FFC730FEE329C3A2
:1036800036F3C95029C3C9FFC730FEE328C336F358
:10369000C95028C3C9FFC730FEE30301356B346B43
:1036A000336B326B3551315D22E30BE13451305DC8
:1036B0001EE307E133512F5D1AE303E12E51325D22
:1036C00016E22C513225E96E2D513321EA6EEFCFEF
:1036D00036F3C95036C3C9FFC730FEE3010E3227A7
:1036E000D8B0332BD8B4342BD8B4352BDBD700016A
:1036F000EDEC0EF0C00EF212000C27C32BF326C324
:103700002AF325C329F324C328F3010E03012D6FE7
:10371000DA0E2C6F316B306B010E2F6F2E6B0001A8
:1037200094DF65EF1FF0000E0101D8B1010E016EAC
:1037300000017AEF1CF00401146BF2CF15F4F29E35
:10374000030EAA6E020EA96EA69CA69EA680A85085
:1037500015BFF28E146F14C401F00001B4EF1BF01A
:103760000401136B0001E7D701C013F4040113C473
:1037700001F00001000C0401126B0001F1DF01C037
:1037800012F411C416F410C415F40FC414F40EC4CA
:1037900013F412C417F4FBEC0FF070EF1CF00401EB
:1037A0001251016A115D03E211C400F00CD0006AED
:1037B000080E136F113700361251005CD8B0006E3E
:1037C0000136132FF7D70001000C04010E6B000126
:1037D000C7DF01C00EF4010E04010E25106F116F3A
:1037E000320E126F0001DBDF00C00EF40EC40FF4C6
:1037F00049EC10F071EF1CF00401106BF2CF11F4E2
:10380000F29E030EAA6EA96AA69CA69EA680A85048
:1038100011BFF28E106F10C401F0000114EF1CF004
:1038200004010F6B0001E8D701C00FF404010FC4BD
:1038300001F00001000C04010E6B0001F1DF01C07A
:103840000EF404010E51320807E00E2B0EC40FF4E3
:1038500000012CEC10F00401000172EF1CF00401D7
:103860000F6BF2CF10F4F29E030EAA6E010EA96E3A
:10387000A69CA69EA680A85010BFF28E0F6F0FC404
:1038800001F0000149EF1CF004010E910E910001BE
:10389000E6D7012C03D004010E810001000E0401C3
:1038A0000EB1010E016E0001000C010E04010E6F3D
:1038B00000014DEC10F065EF1CF0E6DF015205E170
:1038C000AFDF0150320801E1F0D773EF1CF00DC4F7
:1038D00011F40CC410F40BC40FF40AC40EF44BD74B
:1038E00074D7A9D7EAD7000C0101D891000186EF5F
:1038F0001CF019D701520AE027C30DF426C30CF4BB
:1039000025C30BF424C30AF4E2DFEED76EEF1FF0F9
:10391000006A016A026A036A04011E6B1F6B206B56
:10392000216B1D511C111B111A112CE0200E226F4E
:10393000D89016371737183719371E371F372037E3
:1039400021371D51215D08E11C51205D05E11B510E
:103950001F5D02E11A511E5D0FE31A511E5F1B51DC
:10396000D8A01B3D1F5F1C51D8A01C3D205F1D51DE
:10397000D8A01D3D215FD8800036013602360336BF
:10398000222FD6D7040EEA6E1E0EE96E0001000C3F
:1039900004010E6B0F6B106B116B0A510625126F31
:1039A0000B510721136F0C510821146F0D51092180
:1039B000156F196F14C418F413C417F412C416F455
:1039C0001D6B1F0E1C6F1B6B1A6B0001A1DFEFCF6D
:1039D0000EF4ECCF0FF4ECCF10F4ECCF11F40EC4D6
:1039E00000F00FC401F010C402F011C403F0000C89
:1039F00003012891296B2A6B2B6B2C6B27C309F4CD
:103A000026C308F425C307F424C306F404010D6B90
:103A10000C6B010E0B6F0A6B0001BADF03C02CF3B5
:103A200002C02BF301C02AF300C029F3030128913F
:103A300029C32DF32AC32EF32F6B306B2D5307E1CF
:103A40002E5305E12F5303E1305301E12881000E8D
:103A500028B1010E016E000177EF1FF08AEC10F023
:103A60007AEF1FF00301286B296B2A6B2B6B27C39E
:103A700009F426C308F425C307F424C306F404019B
:103A80000D6B0C6B010E0B6F0A6B000181DF03C025
:103A90002BF302C02AF301C029F300C028F32BC383
:103AA0002FF32AC32EF329C32DF328C32CF330ECB4
:103AB0000FF083EF1FF00401066B0001E5DE0152F9
:103AC00004E10401066B05D000014ADE01C006F4E2
:103AD000040106C401F00001000C04010C6B0D6B25
:103AE0000E6B0F6B106B116B0BC41AF40001E9EC39
:103AF0000FF002C00DF401C00CF40DC413F40CC49B
:103B000012F431DD03C011F402C010F401C00FF44F
:103B100000C00EF40EC400F00FC401F010C402F097
:103B200011C403F09DEF1DF00401076B086B096BD6
:103B30000A6B06C40BF40001D0D703C00AF402C01C
:103B400009F401C008F400C007F407C400F008C479
:103B500001F009C402F00AC403F0000C0401156B63
:103B600013C415F415C401F00001000C04010E6B20
:103B70000F6B109109C414F408C413F407C412F4B1
:103B800006C411F40001EADF01C00EF40DC414F400
:103B90000CC413F40BC412F40AC411F4DFDF01C027
:103BA0000FF4040110910F510E5D01E11081000E20
:103BB00010B1010E016E0001000C0301F86BF96BEE
:103BC000FA6BFB6BFC6BFD6BFE6BFF6B0401006B18
:103BD000016B026B036B046B056B00016CDF01C0B2
:103BE00002F41EDE01C003F402C406F49DDF03C02C
:103BF000FBF302C0FAF301C0F9F300C0F8F32FC3DE
:103C000009F42EC308F42DC307F42CC306F40401F1
:103C10000D6B010E0C6F0B6B0A6B0001B9DE03C05C
:103C2000FFF302C0FEF301C0FDF300C0FCF32FC39D
:103C300009F42EC308F42DC307F42CC306F4FBC308
:103C40000DF4FAC30CF4F9C30BF4F8C30AF48EDFD5
:103C5000015213E004010451040DF350036A300FC4
:103C6000E96E030E0320EA6EFCC3EFFFFDC3ECFF19
:103C7000FEC3ECFFFFC3ECFF042B0401006B0351F8
:103C8000005D4FE200510225076F116F320E126F77
:103C9000000185DD00C001F401C406F445DF03C066
:103CA000FBF302C0FAF301C0F9F300C0F8F32FC32D
:103CB00009F42EC308F42DC307F42CC306F4FBC388
:103CC0000DF4FAC30CF4F9C30BF4F8C30AF44EDF95
:103CD000015224E10301FC51F85D0CE1FD51F95D55
:103CE00009E1FE51FA5D06E1FF51FB5DD8A402D067
:103CF000000114D004010451040DF350036A300F85
:103D0000E96E030E0320EA6EF8C3EFFFF9C3ECFF80
:103D1000FAC3ECFFFBC3ECFF042B00010401002BF2
:103D2000AED700016CEC10F004C405F40401046B80
:103D30000551045D1EE20451040DF350036A300F77
:103D4000E96E030E0320EA6EEFCF06F4ECCF07F422
:103D5000ECCF08F4ECCF09F409C40DF408C40CF45A
:103D600007C40BF406C40AF40001B1DD0401042BFE
:103D7000DFD70001E2EF1EF00301286B296B2A6BED
:103D80002B6B27C309F426C308F425C307F424C307
:103D900006F404010D6B0C6B010E0B6F0A6B000136
:103DA000F7DD03C02BF302C02AF301C029F300C0E2
:103DB00028F32BC32FF32AC32EF329C32DF328C3D3
:103DC0002CF3FBD68CEF1FF0010E03012D6F0001C9
:103DD000A9EC0FF024EF1FF003012891296B2A6B47
:103DE0002B6B2C6B000119DC03C02CF302C02BF3EE
:103DF00001C02AF300C029F32CC309F42BC308F433
:103E00002AC307F429C306F427C30DF426C30CF410
:103E100025C30BF424C30AF4BBDD03C02CF302C09A
:103E20002BF301C02AF300C029F303012891295381
:103E300007E12A5305E12B5303E12C5301E12881CB
:103E400028A102D00001C0D72CC330F32BC32FF31D
:103E50002AC32EF329C32DF300019FEC0FF096EF38
:103E60001FF003011E911F6B206B216B226B236BD4
:103E7000D9C11FF31DC325F31CC324F31FC326F3AD
:103E8000000189EF1AF00101D92B03011E910101F4
:103E9000D951080803E103011E81010103011EA19C
:103EA00046D000010DEC1BF003C023F302C022F347
:103EB00001C021F300C020F323C327F322C326F35C
:103EC00021C325F320C324F318D423C327F322C32B
:103ED00026F321C325F320C324F30BD523C327F3F3
:103EE00022C326F321C325F320C324F381D5015235
:103EF00013E0B4D523C327F322C326F321C325F34C
:103F000020C324F3AFD523C327F322C326F321C351
:103F100025F320C324F330D70101D96B0301276BAC
:103F2000266B010E256F246B000156D7030100019B
:103F3000000C0201DA2B000160EF1AF001500201BF
:103F4000DA5D04E10101D88300D002010101D8A3A8
:103F500012D01BC31DF31AC31CF3000176EF1AF035
:103F6000015209E01BC31DF31AC31CF37ADF0201DF
:103F7000DA6B0101D8930001C8EF2DF0A5C3ACF3B3
:103F80000301A951AC1BACAF05D0D894D890A5BF04
:103F9000D8802FD0A5C3ACF3A8C3ADF3A451AD5FB7
:103FA00006E0ACAF26D0D850010AD86E22D0A9C303
:103FB000ADF3A551AD5F06E0ACAF1BD0D850010A00
:103FC000D86E17D0AAC3ADF3A651AD5F06E0ACAF73
:103FD00010D0D850010AD86E0CD0ABC3ADF3A751A6
:103FE000AD5F06E0ACAF05D0D850010AD86E01D065
:103FF000D8900001000C030139913A6B3B6B3C6B8C
:104000003D6B38C3A7F337C3A6F336C3A5F335C357
:10401000A4F3AB6BAA6B200EA96F820EA86F0001F0
:10402000ADDF04E30301398131D0000103013D6BB1
:104030003C6B200E3B6F830E3A6FD89234C3A7F3CC
:1040400033C3A6F332C3A5F331C3A4F33DC3ABF32B
:104050003CC3AAF33BC3A9F33AC3A8F3000137EC6E
:1040600017F038C3A7F337C3A6F336C3A5F335C398
:10407000A4F303C0ABF302C0AAF301C0A9F300C0CC
:10408000A8F37CDF03013991D8B03981000E39B132
:10409000010E016E000148EF21F08E0E006EA1C3EB
:1040A00001F0A0C302F0036A015209E102C001F06D
:1040B000026A080E005E015202E1006A08D0D89040
:1040C00001BE04D0023601360006F9D7019E000C6D
:1040D00003013C6B3D6B3E6B3F6B406B416B426B36
:1040E000436B446B456B130E456F446B3B51445D12
:1040F00039E24551040DF350036A1A0FE96E000EC0
:104100000320EA6EEFCF00F0ECCF01F0ECCF02F02D
:10411000ECCF03F0EACF47F3E9CF46F3D8923FC3A1
:10412000A7F33EC3A6F33DC3A5F33CC3A4F303C06A
:10413000ABF302C0AAF301C0A9F300C0A8F30001C9
:1041400037EC17F047C3EAFF46C3E9FF03C03FF36C
:1041500002C03EF301C03DF300C03CF3030145073C
:10416000442BC4D7A16B3BC3A0F3000196DF3FC330
:10417000A7F33EC3A6F33DC3A5F33CC3A4F303C01A
:10418000ABF302C0AAF301C0A9F300C0A8F388EC06
:1041900016F003C043F302C042F301C041F300C074
:1041A00040F340C300F041C301F042C302F043C3F7
:1041B00003F0000C0301376B386BEA6A1A0EE96EE4
:1041C000E26A1E0EE16E4C0E016EE6CFEEFF012E8E
:1041D000FCD734C369F033C368F032C367F031C32E
:1041E00066F0020E396F0001FFEC04F001C037F3F6
:1041F000040E03013525016E000E3621036E01C049
:1042000039F33A6F37C33BF3000162DF3AC3EAFF89
:1042100039C3E9FF00C0EFFF01C0ECFF02C0ECFFB3
:1042200003C0ECFF0A0E0301396F0001FFEC04F03C
:1042300001C038F335C301F036C303F035C339F399
:1042400036C33AF338C33BF3000142DF3AC3EAFF17
:1042500039C3E9FF00C0EFFF01C0ECFF02C0ECFF73
:1042600003C0ECFF63EF21F00301309199C034F3F8
:1042700098C033F397C032F396C031F32FC338F3AD
:104280002EC337F32DC336F32CC335F30001B3D659
:104290000301309101B0308130A108D02FC399F0D3
:1042A0002EC398F02DC397F02CC396F099C034F329
:1042B00098C033F397C032F396C031F3366B8E0E4D
:1042C000356F000177D781C0A7F380C0A6F37FC008
:1042D000A5F37EC0A4F395C0ABF394C0AAF393C03A
:1042E000A9F392C0A8F34ADE08E395C081F094C018
:1042F00080F093C07FF092C07EF085C0A7F384C0A9
:10430000A6F383C0A5F382C0A4F391C0ABF390C021
:10431000AAF38FC0A9F38EC0A8F330DE08E391C0E2
:1043200085F090C084F08FC083F08EC082F096C07C
:1043300000F097C001F098C002F099C003F0D8EFE8
:104340002CF003012E6BF2CF2FF3F29EAA6A0D0E12
:10435000A96EA69CA69EA680A8502FBFF28E2E6F97
:104360002EC301F00001B9EF21F003012D6B000114
:10437000E8D701C02DF303012DC301F0000111EFB7
:1043800022F003012E6B2F6B306B316B326B336B72
:10439000346B356B2D5306E1356B346B336B7F0E0D
:1043A000326F2DD02DC339F30001FFEC04F003016F
:1043B000A16B01C0A0F3000170DE03C031F302C0A5
:1043C00030F301C02FF300C02EF30301A76BA66BDF
:1043D000A56B7F0EA46F31C3ABF330C3AAF32FC319
:1043E000A9F32EC3A8F3000188EC16F003C035F33F
:1043F00002C034F301C033F300C032F3030132C30F
:1044000000F033C301F034C302F035C303F0000100
:10441000000C0301286B296B2A6B2B6B2C6B0001A2
:10442000A4D701C028F328C32DF3ABDF03C02CF3BE
:1044300002C02BF301C02AF300C029F329C300F006
:104440002AC301F02BC302F02CC303F0E2EF2CF0DF
:1044500003012E6BF2CF2FF3F29EAA6A0E0EA96E05
:10446000A69CA69EA680A8502FBFF28E2E6F2EC3AC
:1044700001F0000140EF22F003012D6B0001E8D7AD
:1044800001C02DF303012DC301F0000150EF22F014
:104490000301286B296B2A6B2B6B2C6B0001ECD76B
:1044A00001C028F328C32DF36CDF03C02CF302C036
:1044B0002BF301C02AF300C029F329C300F02AC35B
:1044C00001F02BC302F02CC303F0ECEF2CF003013E
:1044D000666B676B686B696BD882A76BA66BA56B05
:1044E0007F0EA46F65C3ABF364C3AAF363C3A9F3E0
:1044F00062C3A8F3000137EC17F061C3A3F360C3F4
:10450000A2F35FC3A1F35EC3A0F303C0A7F302C08D
:10451000A6F301C0A5F300C0A4F399EC14F000C009
:104520006AF301C06BF302C06CF303C06DF35DC3AB
:10453000A3F35CC3A2F35BC3A1F35AC3A0F365C3A7
:10454000A7F364C3A6F363C3A5F362C3A4F399EC12
:1045500014F0D8926DC3A7F36CC3A6F36BC3A5F395
:104560006AC3A4F303C0ABF302C0AAF301C0A9F36A
:1045700000C0A8F337EC17F003C069F302C068F37A
:1045800001C067F300C066F366C300F067C301F0C3
:1045900068C302F069C303F0000C0301726B736B14
:1045A000746B756B71C3A3F370C3A2F36FC3A1F3F4
:1045B0006EC3A0F3350EA76FFA0EA66F0E0EA56F91
:1045C000790EA46F000199EC14F003C075F302C0DA
:1045D00074F301C073F300C072F372C300F073C3CD
:1045E00001F074C302F075C303F0000C8E0E006E70
:1045F00003019C51005E9DC302F09EC301F0028E38
:10460000005209E0D890025202E1015204E0023265
:104610000132002EF7D79DAF05D0011E021E012AE0
:10462000D8B4022A0001000C7F0E0301826F836B55
:10463000846B856B7E0E8C6F800E8D6F8E6B8F6B97
:104640007A0E906F2A0E916FAA0E926FA30E936F3F
:10465000750E946FB60E956F090E966F9C0E976F40
:104660006F0E986F4F0E996FB40E9A6F0B0E9B6F73
:1046700079C3A7F378C3A6F377C3A5F376C3A4F3EE
:10468000AB6BAA6BA96BA86B000178DC04E3030198
:104690007751800A776F79C3A7F378C3A6F377C3FE
:1046A000A5F376C3A4F3DB0E0301AB6F0F0EAA6F65
:1046B000490EA96F7F0EA86F000188EC16F003C0A9
:1046C0009FF302C09EF301C09DF300C09CF38EDFF8
:1046D00001C086F379C3A7F378C3A6F377C3A5F324
:1046E00076C3A4F3DB0E0301AB6F0F0EAA6F490E66
:1046F000A96F7F0EA86F000188EC16F000C09CF334
:1047000001C09DF302C09EF303C09FF30301A16BA0
:1047100086C3A0F30001C1DCD8829FC3A7F39EC368
:10472000A6F39DC3A5F39CC3A4F303C0ABF302C0DF
:10473000AAF301C0A9F300C0A8F337EC17F003C037
:104740008BF302C08AF301C089F300C088F3030E23
:1047500003018617865303E0865102081DE18BC3CF
:10476000A3F38AC3A2F389C3A1F388C3A0F3DB0E2A
:10477000A76F0F0EA66F490EA56F7F0EA46F0001E5
:1047800099EC14F003C081F302C080F301C07FF301
:1047900000C07EF36FD00301862D37D0D882A76B7F
:1047A000A66BA56B7F0EA46F8BC3ABF38AC3AAF372
:1047B00089C3A9F388C3A8F3000137EC17F000C040
:1047C0009CF301C09DF302C09EF303C09FF303C09E
:1047D000A3F302C0A2F301C0A1F300C0A0F3DB0E5B
:1047E0000301A76F0F0EA66F490EA56F7F0EA46F72
:1047F000000199EC14F003C081F302C080F301C002
:104800007FF300C07EF336D00301D8828BC3A7F3B9
:104810008AC3A6F389C3A5F388C3A4F3AB6BAA6BC1
:10482000A96B7F0EA86F000137EC17F000C09CF356
:1048300001C09DF302C09EF303C09FF303C0A3F326
:1048400002C0A2F301C0A1F300C0A0F3DB0E03017C
:10485000A76F0F0EA66F490EA56F7F0EA46F000104
:1048600099EC14F003C081F302C080F301C07FF320
:1048700000C07EF303017D6B7C6B7B6B7F0E7A6FD8
:1048800081C3A3F380C3A2F37FC3A1F37EC3A0F3CC
:1048900081C3A7F380C3A6F37FC3A5F37EC3A4F3AC
:1048A000000199EC14F003C081F302C080F301C051
:1048B0007FF300C07EF30301876B8751030866E333
:1048C00085C3A3F384C3A2F383C3A1F382C3A0F37C
:1048D00081C3A7F380C3A6F37FC3A5F37EC3A4F36C
:1048E000000199EC14F003C085F302C084F301C009
:1048F00083F300C082F303018751040DF350036A70
:104900008C0FE96E030E0320EA6EEFCF9CF3ECCF21
:104910009DF3ECCF9EF3ECCF9FF39FC3A3F39EC315
:10492000A2F39DC3A1F39CC3A0F385C3A7F384C3E3
:10493000A6F383C3A5F382C3A4F3000199EC14F09A
:10494000EACF9DF3E9CF9CF3D8927DC3A7F37CC354
:10495000A6F37BC3A5F37AC3A4F303C0ABF302C0F1
:10496000AAF301C0A9F300C0A8F337EC17F09DC368
:10497000EAFF9CC3E9FF03C07DF302C07CF301C0E2
:104980007BF300C07AF30301872B97D78651020887
:1049900002E0862D03D07B51800A7B6F7AC300F042
:1049A0007BC301F07CC302F07DC303F00001000C67
:1049B0000301666B676B686B696B6A6B6B6B6C6B27
:1049C0006D6B65C371F364C370F363C36FF362C34C
:1049D0006EF30001E2DD03C069F302C068F301C0B9
:1049E00067F300C066F369C379F368C378F367C3FC
:1049F00077F366C376F318DE03C06DF302C06CF381
:104A000001C06BF300C06AF36AC300F06BC301F02E
:104A10006CC302F06DC303F0000CD88271C3A7F31E
:104A200070C3A6F36FC3A5F36EC3A4F3DB0E03013B
:104A3000AB6F0F0EAA6F490EA96F7F0EA86F000112
:104A400037EC17F000C072F301C073F302C074F3C7
:104A500003C075F303C079F302C078F301C077F3A4
:104A600000C076F3E1DD59EF25F00301666B676B5B
:104A7000686B696B6A6B6B6B6C6B6D6B65C371F3A9
:104A800064C370F363C36FF362C36EF3000185DD2B
:104A900003C069F302C068F301C067F300C066F3A6
:104AA00069C371F368C370F367C36FF366C36EF3D2
:104AB000B4D703C06DF302C06CF301C06BF300C048
:104AC0006AF36AC300F06BC301F06CC302F06DC3FC
:104AD00003F0000C83C3A3F382C3A2F381C3A1F349
:104AE00080C3A0F383C3A7F382C3A6F381C3A5F356
:104AF00080C3A4F399EC14F0000C99C3A7F398C3F6
:104B0000A6F397C3A5F396C3A4F30301AB6BAA6BFB
:104B1000A96BA86B0001BEEC1FF001E205E1006A81
:104B2000016A026A036A7BD099C39DF398C39CF320
:104B300097C39BF396C39AF3030E0301A36F9A0ED8
:104B4000A26FA2C3E9FFA3C3EAFFEF50A76BA66F52
:104B50007F0EA627000EA723D890A731A631A3C3A6
:104B6000EAFFA2C3E9FFEF6E9DC3A1F39CC3A0F3CC
:104B70009BC39FF39AC39EF399C3A7F398C3A6F36D
:104B800097C3A5F396C3A4F39DC3ABF39CC3AAF349
:104B90009BC3A9F39AC3A8F3000188EC16F0D8923E
:104BA0009DC3A7F39CC3A6F39BC3A5F39AC3A4F329
:104BB00003C0ABF302C0AAF301C0A9F300C0A8F37D
:104BC00037EC17F003C09DF302C09CF301C09BF3C8
:104BD00000C09AF30301A2C3E9FFA3C3EAFFEF06F3
:104BE000A1C3A7F3A0C3A6F39FC3A5F39EC3A4F3D9
:104BF0009DC3ABF39CC3AAF39BC3A9F39AC3A8F3C9
:104C00000001BEEC1FF0D8B402D00301ADD79EC3A3
:104C100000F09FC301F0A0C302F0A1C303F0000C99
:104C20000301786B796B7A6B7B6B73C383F372C30D
:104C300082F371C381F370C380F300014BDF00C0C6
:104C40007CF301C07DF302C07EF303C07FF377C322
:104C500083F376C382F375C381F374C380F33ADFC1
:104C6000EACF81F3E9CF80F3D8927FC3A7F37EC365
:104C7000A6F37DC3A5F37CC3A4F303C0ABF302C0CA
:104C8000AAF301C0A9F300C0A8F337EC17F081C361
:104C9000EAFF80C3E9FF00C07CF301C07DF302C0DE
:104CA0007EF303C07FF303C099F302C098F301C001
:104CB00097F300C096F321DF03C07BF302C07AF3C1
:104CC00001C079F300C078F378C300F079C301F034
:104CD0007AC302F07BC303F0000C0301916B7FC326
:104CE00084F37EC383F37DC382F37CC381F37FC3EC
:104CF000A7F37EC3A6F37DC3A5F37CC3A4F3AB6B7C
:104D0000AA6BA96BA86B0001BEEC1FF006E3010EB5
:104D10000301916F8251800A826F0301A76BA66B1A
:104D2000A56B7E0EA46F84C3ABF383C3AAF382C3C7
:104D3000A9F381C3A8F30001BEEC1FF048E3D882B9
:104D40000301A76BA66BA56B7F0EA46F84C3ABF3A7
:104D500083C3AAF382C3A9F381C3A8F3000137EC8C
:104D600017F000C092F301C093F302C094F303C0A4
:104D700095F303C0A7F302C0A6F301C0A5F300C0DA
:104D8000A4F30301AB6BAA6BA96B800EA86F0001A3
:104D900088EC16F000C092F301C093F302C094F3C4
:104DA00003C095F303C099F302C098F301C097F3D1
:104DB00000C096F3A2DE03C084F302C083F301C0F7
:104DC00082F300C081F3020E03018027000184C337
:104DD000A3F383C3A2F382C3A1F381C3A0F384C36B
:104DE000A7F383C3A6F382C3A5F381C3A4F399EC0D
:104DF00014F003C090F302C08FF301C08EF300C023
:104E00008DF3370E0301A36FBF0EA26F7D0EA16F4E
:104E1000A06F90C3A7F38FC3A6F38EC3A5F38DC372
:104E2000A4F3000199EC14F000C092F301C093F3D5
:104E300002C094F303C095F3D89203C0A7F302C055
:104E4000A6F301C0A5F300C0A4F33D0E0301AB6FB0
:104E5000AA0EAA6F930EA96F810EA86F000137ECFE
:104E600017F003C088F302C087F301C086F300C0C7
:104E700085F388C3A3F387C3A2F386C3A1F385C3D5
:104E8000A0F390C3A7F38FC3A6F38EC3A5F38DC37E
:104E9000A4F399EC14F000C092F301C093F302C0A4
:104EA00094F303C095F3D89203C0A7F302C0A6F30E
:104EB00001C0A5F300C0A4F3EE0E0301AB6F500ECA
:104EC000AA6F330EA96F810EA86F000137EC17F09F
:104ED00003C088F302C087F301C086F300C085F3E6
:104EE0000301A36BA26BA16B7F0EA06F90C3A7F30E
:104EF0008FC3A6F38EC3A5F38DC3A4F3000199EC71
:104F000014F000C092F301C093F302C094F303C005
:104F100095F3D89203C0A7F302C0A6F301C0A5F38E
:104F200000C0A4F30A0E0301AB6F8D0EAA6FB10E81
:104F3000A96F810EA86F000137EC17F003C08CF346
:104F400002C08BF301C08AF300C089F38CC3A3F3C2
:104F50008BC3A2F38AC3A1F389C3A0F390C3A7F3C1
:104F60008FC3A6F38EC3A5F38DC3A4F399EC14F0FD
:104F700000C092F301C093F302C094F303C095F311
:104F8000D89203C0A7F302C0A6F301C0A5F300C0E6
:104F9000A4F3EE0E0301AB6F500EAA6F330EA96F90
:104FA000810EA86F000137EC17F003C08CF302C02C
:104FB0008BF301C08AF300C089F384C3A3F383C3D6
:104FC000A2F382C3A1F381C3A0F388C3A7F387C36D
:104FD000A6F386C3A5F385C3A4F399EC14F000C02F
:104FE00092F301C093F302C094F303C095F303C09E
:104FF000A7F302C0A6F301C0A5F300C0A4F38CC3BD
:10500000ABF38BC3AAF38AC3A9F389C3A8F388ECD3
:1050100016F003C088F302C087F301C086F300C016
:1050200085F3030180A32ED0A36BA26BA16B800E2E
:10503000A06F88C3A7F387C3A6F386C3A5F385C370
:10504000A4F3000199EC14F0D882DB0E0301A76FE2
:105050000F0EA66F490EA56F7F0EA46F03C0ABF3B2
:1050600002C0AAF301C0A9F300C0A8F3000137EC05
:1050700017F003C088F302C087F301C086F300C0B5
:1050800085F30301915303E08651800A866F80A166
:105090001DD0D882DB0EA76F0F0EA66F490EA56F2D
:1050A0007F0EA46F88C3ABF387C3AAF386C3A9F3AB
:1050B00085C3A8F3000137EC17F003C088F302C0E2
:1050C00087F301C086F300C085F3030185C300F0B8
:1050D00086C301F087C302F088C303F000017DEFAF
:1050E00028F077C37FF376C37EF375C37DF374C373
:1050F0007CF30301806B0001F0D503C07BF302C099
:105100007AF301C079F300C078F378C300F079C373
:1051100001F07AC302F07BC303F0FBEF28F0030138
:10512000746B756B766B776B73C3A3F372C3A2F367
:1051300071C3A1F370C3A0F3E00EA76F2E0EA66F8C
:10514000650EA56F840EA46F000199EC14F003C0E6
:1051500077F302C076F301C075F300C074F374C333
:1051600000F075C301F076C302F077C303F072EF6D
:1051700029F00301646B656B666B676B686B696B29
:105180006A6B6B6B6C6B6D6B6E6B6F6B63C373F386
:1051900062C372F361C371F360C370F35FC377F3EB
:1051A0005EC376F35DC375F35CC374F3000138DD51
:1051B00063C3A7F362C3A6F361C3A5F360C3A4F3FB
:1051C00003C0ABF302C0AAF301C0A9F300C0A8F367
:1051D00088EC16F000C070F301C071F302C072F3E6
:1051E00003C073F303C077F302C076F301C075F315
:1051F00000C074F376D703C067F302C066F301C042
:1052000065F300C064F35FC3A7F35EC3A6F35DC399
:10521000A5F35CC3A4F30301AB6BAA6BA96BA86BEA
:105220000001BEEC1FF01EE3D882DB0E0301A76F66
:105230000F0EA66F490EA56F800EA46F67C3ABF368
:1052400066C3AAF365C3A9F364C3A8F3000137ECEE
:1052500017F003C06BF302C06AF301C069F300C02A
:1052600068F337D063C3A7F362C3A6F361C3A5F3A2
:1052700060C3A4F30301AB6BAA6BA96BA86B00011D
:10528000BEEC1FF01EE3D892DB0E0301A76F0F0EDA
:10529000A66F490EA56F810EA46F67C3ABF366C3FB
:1052A000AAF365C3A9F364C3A8F3000137EC17F0B0
:1052B00003C06BF302C06AF301C069F300C068F376
:1052C00008D067C36BF366C36AF365C369F364C34D
:1052D00068F36BC373F36AC372F369C371F368C392
:1052E00070F31DD703C06FF302C06EF301C06DF3FE
:1052F00000C06CF36CC300F06DC301F06EC302F02C
:105300006FC303F0000C03014A6B4B6B4C6B4D6B8E
:105310004E6B4F6B506B516B526B536B546B556BA9
:10532000566B576B586B596B43C365F342C364F3B9
:1053300041C363F340C362F30001D8EC24F03FC3E0
:10534000A3F33EC3A2F33DC3A1F33CC3A0F303C048
:10535000A7F302C0A6F301C0A5F300C0A4F399EC23
:1053600014F003C04DF302C04CF301C04BF300C076
:105370004AF343C365F342C364F341C363F340C3D9
:1053800062F335EC25F03FC3A3F33EC3A2F33DC364
:10539000A1F33CC3A0F303C0A7F302C0A6F301C06E
:1053A000A5F300C0A4F399EC14F003C051F302C0BC
:1053B00050F301C04FF300C04EF3030144C3E9FFB3
:1053C00045C3EAFFEFCF5AF3ECCF5BF3ECCF5CF3CE
:1053D000ECCF5DF3040E4425E96E000E4521EA6E24
:1053E000EFCF5EF3ECCF5FF3ECCF60F3ECCF61F384
:1053F00061C365F360C364F35FC363F35EC362F3C9
:105400000001D8EC24F05DC3A3F35CC3A2F35BC33B
:10541000A1F35AC3A0F303C0A7F302C0A6F301C0CF
:10542000A5F300C0A4F399EC14F003C055F302C037
:1054300054F301C053F300C052F3030144C3E9FF26
:1054400045C3EAFFEFCF5AF3ECCF5BF3ECCF5CF34D
:10545000ECCF5DF3040E4425E96E000E4521EA6EA3
:10546000EFCF5EF3ECCF5FF3ECCF60F3ECCF61F303
:1054700061C365F360C364F35FC363F35EC362F348
:10548000000135EC25F05DC3A3F35CC3A2F35BC35D
:10549000A1F35AC3A0F303C0A7F302C0A6F301C04F
:1054A000A5F300C0A4F399EC14F003C059F302C0B3
:1054B00058F301C057F300C056F34DC35DF34CC31E
:1054C0005CF34BC35BF34AC35AF355C361F354C354
:1054D00060F353C35FF352C35EF349C365F348C33C
:1054E00064F347C363F346C362F367EC22F003C07F
:1054F00055F302C054F301C053F300C052F351C33B
:105500005DF350C35CF34FC35BF34EC35AF359C30F
:1055100061F358C360F357C35FF356C35EF349C3E7
:1055200065F348C364F347C363F346C362F367ECB0
:1055300022F003C059F302C058F301C057F300C072
:1055400056F344C301F045C303F044C35AF345C3C3
:105550005BF355C373F354C372F353C371F352C374
:1055600070F359C377F358C376F357C375F356C333
:1055700074F3000110EC26F05BC3EAFF5AC3E9FFA5
:1055800000C0EFFF01C0ECFF02C0ECFF03C0ECFF66
:10559000040E03014425016E000E4521036E01C077
:1055A0005AF35B6F55C35FF354C35EF353C35DF3AC
:1055B00052C35CF359C363F358C362F357C361F337
:1055C00056C360F30001D5DD5BC3EAFF5AC3E9FFB0
:1055D00000C0EFFF01C0ECFF02C0ECFF03C0ECFF16
:1055E000000C03012C912BC3A7F32AC3A6F329C3F4
:1055F000A5F328C3A4F374C0ABF373C0AAF372C0BD
:10560000A9F371C0A8F30001BEEC1FF003012C91B7
:10561000D8B02C81000E2CB1010E016E0001000CDF
:105620000301506B516B526B536B4FC365F34EC309
:1056300064F34DC363F34CC362F30001D8EC24F070
:1056400000C054F301C055F302C056F303C057F332
:105650004FC365F34EC364F34DC363F34CC362F3AE
:1056600035EC25F000C058F301C059F302C05AF3DD
:1056700003C05BF357C35FF356C35EF355C35DF3DB
:1056800054C35CF303C063F302C062F301C061F36F
:1056900000C060F36EDD03C053F302C052F301C0DB
:1056A00051F300C050F350C300F051C301F052C396
:1056B00002F053C303F0000C0301446B456B466BCF
:1056C000476BD8823FC3A7F33EC3A6F33DC3A5F300
:1056D0003CC3A4F343C3ABF342C3AAF341C3A9F34E
:1056E00040C3A8F3000137EC17F000C048F301C035
:1056F00049F302C04AF303C04BF303C04FF302C0A7
:105700004EF301C04DF300C04CF38ADF03C047F3F2
:1057100002C046F301C045F300C044F30301A76B88
:10572000A66B340EA56F860EA46F47C3ABF346C3BA
:10573000AAF345C3A9F344C3A8F30001BEEC1FF0CC
:105740001BE3D88247C3A7F346C3A6F345C3A5F31B
:1057500044C3A4F30301AB6BAA6B340EA96F870E8D
:10576000A86F000137EC17F003C047F302C046F3FF
:1057700001C045F300C044F344C300F045C301F049
:1057800046C302F047C303F0000C0301386B396BCA
:105790003A6B3B6B2FC33FF32EC33EF32DC33DF358
:1057A0002CC33CF333C343F332C342F331C341F35D
:1057B00030C340F3456B9A0E446FCD0E496FCC0E4B
:1057C000486F4C0E476F7A0E466F00019CDD7DA03E
:1057D0003FD037C33FF336C33EF335C33DF334C345
:1057E0003CF37CC043F37BC042F37AC041F379C001
:1057F00040F362DF03C078F002C077F001C076F0BA
:1058000000C075F075C000F076C001F077C002F0FE
:1058100078C003F0019E75C03CF301C03DF377C032
:105820003EF378C03FF30301A76BA66B340EA56F60
:10583000840EA46F78C0ABF377C0AAF301C0A9F3BC
:1058400075C0A8F30001BEEC1FF001E37D9088D085
:1058500033C33FF332C33EF331C33DF330C33CF3B4
:10586000A1C043F3A0C042F39FC041F39EC040F3E8
:1058700023DF03C03BF302C03AF301C039F300C099
:1058800038F338C300F039C301F03AC302F03BC328
:1058900003F0019E38C33CF301C03DF33AC33EF32D
:1058A0003BC33FF33BC3A7F33AC3A6F301C0A5F341
:1058B00038C3A4F30301AB6BAA6B200EA96F820E51
:1058C000A86F0001BEEC1FF042E3AA2B2FC33FF3E9
:1058D0002EC33EF32DC33DF32CC33CF333C343F33C
:1058E00032C342F331C341F330C340F30301456B8C
:1058F000A20E446F496B486B476B7E0E466F0001EA
:1059000002DDAA51050822E1A9C07CF0A8C07BF005
:10591000A7C07AF0A6C079F07D8037C33FF336C3C5
:105920003EF335C33DF334C33CF37CC043F37BC04B
:1059300042F37AC041F379C040F3BEDE03C078F091
:1059400002C077F001C076F000C075F009D0AA6BF4
:10595000A56BA46BA36BA26BA96BA86BA76BA66BC3
:1059600075EF2DF003011C6B1D6B1E6B1F6B206B05
:10597000216B226B236B246B256B266B276B0F0E21
:105980001A25E96E000E1B21EA6EEFCF28F3ECCF4B
:1059900029F3ECCF2AF3ECCF2BF32BC32FF32AC33D
:1059A0002EF329C32DF328C32CF3000134EF21F08B
:1059B00003C027F302C026F301C025F300C024F37F
:1059C00009EF22F003C01FF302C01EF301C01DF354
:1059D00000C01CF348EF22F003C023F302C022F3FF
:1059E00001C021F300C020F327C35DF326C35CF39D
:1059F00025C35BF324C35AF374C061F373C060F32F
:105A000072C05FF371C05EF31FC365F31EC364F31E
:105A10001DC363F31CC362F367EC22F003C074F090
:105A200002C073F001C072F000C071F0130E0301E8
:105A30001A25E96E000E1B21EA6EEFCF28F3ECCF9A
:105A400029F3ECCF2AF3ECCF2BF327C33FF326C384
:105A50003EF325C33DF324C33CF32BC343F32AC3D6
:105A600042F329C341F328C340F3456B860E446FCC
:105A700023C349F322C348F321C347F320C346F3AA
:105A8000000141DC03012B6B2A6B296B7F0E286F11
:105A90000001A7DD015229E0130E03011A25E96E6A
:105AA000000E1B21EA6EEFCF28F3ECCF29F3ECCFE9
:105AB0002AF3ECCF2BF327C32FF326C32EF325C3F2
:105AC0002DF324C32CF32BC333F32AC332F329C39E
:105AD00031F328C330F38DC037F38CC036F38BC05D
:105AE00035F38AC034F3000150D6CFEF2DF0036AAE
:105AF00003011A51AC0FE96E000E0320EA6E010E8D
:105B0000EF6E0001000C0201FA6BFB6BFC6BFD6B8E
:105B1000FE6BFF6B0301006B016B026B036B046B8D
:105B2000056B066B076B086B096B0A6B0B6B0C6BD9
:105B30000D6B0E6B0F6B106B116B126B136B146B89
:105B4000156B166B176B186B196B0201F951320844
:105B500001E12CD0F951330801E128D0F9510308B3
:105B600025E1000168EC13F082EC13F0015218E01B
:105B7000020E03011B6FFA0E1A6F00015AEF19F0A3
:105B8000020E03011B6FFA0E1A6F000199EF1FF04E
:105B9000020E03011B6FFA0E1A6F0001E3D605D047
:105BA000020E03011A6F0001A2DF02010001000CC6
:105BB0000201F951320801E114D0F951330801E131
:105BC00010D0F95103080DE1000168EC13F082ECEC
:105BD00013F0015205E0010E03011A6F000187DF87
:105BE00002010001000C0201F76B020EF86FE5C222
:105BF000F8F2E551010A000103E0030A15E027D09D
:105C0000F6C2F9F280DF0201F6530CE0F651020A07
:105C1000000101E007D0020E0201F86F010EF76FDC
:105C2000000100D0000113D0F6C2F9F2C1DF020179
:105C3000F6530BE0F651010A000101E006D0010E17
:105C40000201F86FF76F000100D0000100D00201DF
:105C5000F72D2AD0E551010A000103E0030A07E00D
:105C60000CD0330E0201F96F00014DDF06D0330E68
:105C70000201F96F00019CDF00D0F8C2E5F20201D9
:105C8000E551010A000103E0030A07E00CD0320EDF
:105C90000201F96F000137DF06D0320E0201F96F01
:105CA000000186DF00D00201F6C201F00001000C05
:105CB000B2EC04F014EF12F0015202E1E1EC07F053
:105CC000020E0201E56F320EF66F00018CDF000C50
:105CD0009292898270EF2EF00201FE6B0001F8D7DC
:105CE000C282C2B2FED7C4CFFEF202010001CEECE6
:105CF00004F00201FEC201F0000184EF2EF0020167
:105D0000FC6BFD6B0001E8D701C0FCF20301A16B45
:105D1000FCC2A0F300014DEC20F000C0FEF201C077
:105D2000FFF202C000F303C001F303C05DF302C041
:105D30005CF301C05BF300C05AF36EC061F36DC049
:105D400060F36CC05FF36BC05EF3CD0E0301656F53
:105D5000CC0E646F4C0E636F7B0E626F000167ECBC
:105D600022F003C06EF002C06DF001C06CF000C004
:105D70006BF00301A76BA66B050EA56F860EA46FD3
:105D80006EC0ABF36DC0AAF36CC0A9F36BC0A8F3EF
:105D90000001BEEC1FF004E3010E0201FD6F32D0E2
:105DA0000301A76BA66B700EA56F850EA46F6EC066
:105DB000ABF36DC0AAF36CC0A9F36BC0A8F30001EC
:105DC000BEEC1FF004E3020E0201FD6F1BD00301C5
:105DD000A76BA66B520EA56F850EA46F6EC0ABF3BA
:105DE0006DC0AAF36CC0A9F36BC0A8F30001BEECB0
:105DF0001FF005E3030E0201FD6F04D00001040E45
:105E00000201FD6FFDC201F0000153EF2FF0EEEC37
:105E100007F056EC08F00301026B010E036F020E4F
:105E2000046F000176EC08F096EC08F07D86000C1B
:105E3000F6EC08F001520EE1010EEA6EC30EE96EB7
:105E4000010EE26EBB0EE16E080E016EE6CFEEFFB4
:105E5000012EFCD77D987D8AFCC200F3CCEC0BF0C0
:105E60000CEC0BF0D4DF7D8E7DEF2FF0EEEC07F025
:105E700056EC08F00301026B036B046B000176EC37
:105E800008F096EC08F07D96000C7D9E7DBE03D058
:105E90007DBC01D0EBDF81EF2FF0030E0201FA6F22
:105EA000FB9100012CD701C06AF0010E6A5CFC0F67
:105EB00019E2040F83EF2FF0020E0201FA6FFB913B
:105EC000000110D0010E0201FA6FFB9100010AD00F
:105ED0000201FA6BFB81000105D00201FA6BFB8124
:105EE000000100D0FAC2FFF243EC0CF00201FBA16A
:105EF00006D0030EFC6F00019BD703D00201000106
:105F0000C4D7B5EF2FF0F2CF0EF0F29EE824F76A77
:105F1000F7362B0FF66E5F0EF7220A00F550FA6E79
:105F20000800F5500EBEF28EF96EB85EC45ED05E0B
:105F3000DA5E0201FA91FA916A50040801E1FA81ED
:105F4000000EFAB1010E016E0001B6EF2FF0020152
:105F5000F951320801E112D0F951330801E10ED0B4
:105F6000F95130080BE1000198D7E3D7015205E061
:105F7000040E03011A6F0001BADD02010001000CDA
:105F80000201F76B010EF86FDEC2F8F2DE51010A72
:105F9000000101E00AD0F6C2F9F2D9DF0201F6539E
:105FA00002E0F65100D0000100D00201F72D1AD016
:105FB000DE51010A000101E006D0330E0201F96F43
:105FC0000001C5DF00D0F8C2DEF20201DE51010A95
:105FD000000101E006D0320E0201F96F0001B7DFC7
:105FE00000D00201F6C201F00001000C010E020116
:105FF000DE6F320EF66F0001C3DF000CEA6A1A0E84
:10600000E96E0401296B2B6B500E2A6F0001BFEC67
:1060100003F00CEF30F0F2D7816B806B7F6A7E6A01
:10602000856B846B836B826B000C010E0201FB6F2E
:10603000FA51000103E0010A06E00AD0010E020154
:10604000FB6F000105D0020E0201FB6F000100D0C2
:10605000FBC2FFF2C6EC0BF0000C03011A6BF2CF8F
:106060001BF3F29EAA6A0C0EA96EA69CA69EA680A1
:10607000A8501BBFF28E1A6F1AC301F000014AEF3D
:1060800030F00301156B7F0E166F176B186B196BD1
:106090000001E3D701C015F303011551000107E02A
:1060A000010A0CE0030A14E0010A1CE025D00301F8
:1060B000196B186B176B7F0E166F25D0BE0E030180
:1060C000196F4C0E186F130E176F7F0E166F1BD0C3
:1060D000560E0301196F0E0E186F6D0E176F7F0E9F
